:030000000220518A
:10205100787FE4F6D8FD9060007F007E07E4F0A36E
:0A206100DFFCDEFA7581660220A69E
:0C000300000000000000000000000000F1
:0B2D4B00EF1FAC0670011E4C70F6225A
:10004200AB07AA06EB1BAE0270011A4E600C75D903
:0B005200AA7F747E04122D4B80EA226E
:101EDA00907120E04480F07F057E00122D4BE4FFD4
:101EEA00FE12004275A75575AC5C9071327450F0C1
:101EFA009071307403F0907136742FF090715C74A5
:101F0A0003F090715BE054FCF07F18EF2466FDE467
:101F1A0034718D82F583E4F00FEFB433EE90401103
:101F2A00E4935407FF90711CE054F84FF090401767
:101F3A00E493547FFF90711DE054804FF09040105D
:101F4A00E493FF5401C43333335480FE907123E089
:101F5A00547F4EF0EFC313543F4440FFA3E0548034
:101F6A004FF0904012E493FF540FFE907146E054F4
:101F7A00F04EF0EFC4540FFF90714FE054F04FF061
:101F8A00904013E493543FFF907140E054C04FF0E7
:101F9A00904014E493907126F0904015E493907168
:0B1FAA0028F0904016E49390712AF09C
:011FB5002209
:102B3E00000009C4006400C80101F4004B000A0043
:102B4E0000010F04050600000032000200320003EF
:0E2B5E00003200090032000A00320018004B5D
:102C4B00E2FE74622FF582E43464F583E02224FC07
:082C5B0025E0FDF874030822D6
:101A9100E4FF122C4DC394085058122C4DC39404EA
:101AA100502878C2C000122C4B122C5B8002C33329
:101AB100D8FCF45ED000F278C2C000122C4B122C7C
:101AC1005B8002C333D8FC021BBF78C3C000122C59
:101AD1004B122C598002C333D8FCF45ED000F2784B
:101AE100C3C000122C4B122C598002C333D8FC0204
:101AF1001BBF122C4DC394084068122C4DC3941087
:101B01005060122C4DC3940C502C78D2C000122C72
:101B11004B24F8122C5B8002C333D8FCF45ED00056
:101B2100F278D2C000122C4B24F8122C5B8002C335
:101B310033D8FC021BBF78D3C000122C4B24F41203
:101B41002C5B8002C333D8FCF45ED000F278D3C0A2
:101B510000122C4B24F4122C5B8002C333D8FC02FC
:101B61001BBF122C4DC39414502B78E2C000122CD1
:101B71004B24F0122C5B8002C333D8FCF45ED000FE
:101B8100F278E2C000122C4B24F0122C5B8002C3CD
:101B910033D8FC802978E3C000122C4B24EC122CA2
:101BA1005B8002C333D8FCF45ED000F278E3C0005E
:101BB100122C4B24EC122C5B8002C333D8FC4ED088
:0B1BC10000F20FEF64066003021A93AD
:011BCC0022F6
:03005D000228A0D6
:1028A000C0E0C0F0C083C082C0D075D000C000C0FE
:1028B00001C002C003C004C005C006C0077881E2A1
:1028C00030E607E24440F2122488D007D006D00553
:1028D000D004D003D002D001D000D0D0D082D08399
:0528E000D0F0D0E03251
:10272400D2AF43AB0843B6C0907132E04440F043AB
:10273400AB087877743FF208744BF2787A7430F20D
:10274400788914F27871744FF2187427F2787274DD
:10275400A8F2087410F208E4F208F208F2787E7421
:0F276400D0F2087404F208741EF2087402F22214
:03003F0002285A3A
:10285A00C0E0C0F0C083C082C0D075D000C000C044
:10286A0001C002C003C004C005C006C0079071536E
:10287A00E030E707E04480F012000FD007D006D01E
:10288A0005D004D003D002D001D000D0D0D082D05D
:06289A0083D0F0D0E03213
:10217E00E4FBEB25E025E02454F582E4342BF583D3
:10218E00740193FF74622BF582E43464F583EFF0EF
:10219E00EB25E025E02456F582E4342BF583E49319
:1021AE00FE740193FFEB25E02480F582E43464F5A0
:1021BE0083EEF0A3EFF0EB25E02444F582E43464E3
:1021CE00F583E4F0A3744BF0E47F01FEFDFC746232
:1021DE002B122C50F9F8121155E53F4FFFE53E4EEC
:1021EE00FEE53D4DFDE53C4C8F3F8E3E8D3DF53C75
:1021FE000BEB64066003022180121A91121FB602C5
:02220E00272483
:102BD500122C6312217E120983122BB5120060128A
:0F2BE5000C0E300205C20212217E75D9AA80EAB9
:102CD800121EDA75D95590715EE054FEF075D9BBB5
:032CE800022BD5E7
:101BCD004264D500004464CA000000004164CE00A8
:071BDD004464CF000000008A
:1028E5007F08E4FEFDFC90648C1211CEC302113109
:1028F5009064901211B2EF2401FFE43EFEE43DFD29
:10290500E43CFC9064900211DAE47F4BFEFDFC9000
:1029150064CF22E47F64FEFDFC90649022E4FFFE18
:04292500FD7C012212
:102C6300122626122C7B122A5C122D601229A61220
:082C73002969122C93022B9336
:10006000AF1BAE1AAD19AC1890648C1211DA906403
:10007000901211E600000000E4906494F0A3F0FFF9
:10008000FEFDFCAB1BAA1AA919A818C312113160F6
:100090000312003090648C1211B2EC4D4E4F70037D
:1000A0000202C39064CEE060030202C37F4BFEFDF8
:1000B000FCA31228EE40030202C39064901211E6E2
:1000C000000000007F207EA17D077C0090649012DC
:1000D00028EE50497F0A7E00120042122BB5AF1B5A
:1000E000AE1AAD19AC181228EB70329064CF121111
:1000F000B2EF2401FFE43EFEE43DFDE43CFC9064ED
:10010000CF1211DA12290E1211CED312113140087A
:100110009064CE7401F080051228F580A712290E94
:100120001211CED312113140099064CE7401F00245
:1001300002C39064CF1211E60000000012292212BF
:1001400028EB70399064901211E60000000012292B
:10015000181228EE502212057F1229221228EB7065
:1001600011E4FF1228E860051205CA80F47D16022A
:1001700002B11228F502014E7D160202BE1228E5D8
:1001800070369064901211E60000000012291812D7
:1001900028EE501F12057F1228E57011E4FF122887
:1001A000E860051205CA80F47D170202B11228F535
:1001B00002018C7D170202BE7F041228E77039907D
:1001C00064901211E6000000001229181228EE5067
:1001D000221205E2E47F041228E87011E4FF1228DD
:1001E000E860051205FB80F47D180202B11228F5C3
:1001F0000201C97D180202BEE47F011228E87039AD
:100200009064901211E6000000001229181228EEE6
:1002100050221205E2E47F011228E87011E4FF1277
:1002200028E860051205FB80F47D190202B112284E
:10023000F502020A7D190202BEE4FF7E021228E9DD
:10024000703A9064901211E6000000001229181212
:1002500028EE5023120613E4FF7E021228E97011E3
:10026000E4FF1228E8600512062C80F47D1A0202D1
:10027000B11228F502024C7D1A0202BEE4FF7E0490
:100280001228E9703E9064901211E60000000012FE
:1002900029181228EE5025120613E4FF7E041228B6
:1002A000E97013E4FF1228E8600512062C80F47D43
:1002B0001B7F04022CAB1228F502028F7D1BE4FF8A
:1002C000122CAB9064CEE064016003020489FF123B
:1002D00028E8700302048990648C1211B29064CAF9
:1002E0001211DA1229221228EB703B12290F122860
:1002F000EE4011E47F5A1229111228EE50067D16A5
:100300007F01801DE4FF1228E870030204FA120442
:10031000FB40F19064CF1211E60000004B7D167F88
:1003200002122CAB80DE1228E5703B12290F122836
:10033000EE4011E47F5A1229111228EE50067D1763
:100340007F01801DE4FF1228E870030204FA120402
:10035000FB40F19064CF1211E60000004B7D177F47
:1003600002122CAB80DEE47F041228E8703B1229D5
:100370000F1228EE4011E47F5A1229111228EE5074
:10038000067D187F01801DE4FF1228E87003020437
:10039000FA12053D40F19064CF1211E60000004BC7
:1003A0007D187F02122CAB80DEE47F011228E870FA
:1003B0003B12290F1228EE4011E47F5A1229111224
:1003C00028EE50067D197F01801DE4FF1228E87099
:1003D000030204FA12053D40F19064CF1211E600C9
:1003E00000004B7D197F02122CAB80DEE4FF7E0201
:1003F0001228E9704412290F1228EE4011E47F5AA6
:100400001229111228EE50067D1A7F018026E4FF82
:100410001228E870030204FA120598E47F571229A3
:10042000111228EE40E89064CF1211E60000004B54
:100430007D1A7F02122CAB80D5E4FF7E041228E9DE
:1004400060030204FA12290F1228EE4011E47F5AC9
:100450001229111228EE50067D1B7F018026E4FF31
:100460001228E870030204FA120598E47F57122953
:10047000111228EE40E89064CF1211E60000004B04
:100480007D1B7F02122CAB80D59064CEE06401709E
:1004900069FF1228E870639064CA1211B2121272D6
:1004A00004D40000000104D00000000404CC0000CB
:1004B000000804D80000020004DC0000040004C8A6
:1004C00001000000000004E37D1680127D17800EFD
:1004D0007D18800A7D1980067D1A80027D1B7F03AE
:1004E000122CABE49064CEF0A31211E600000000E1
:0A04F0009064CA1211E6000000003B
:1004FA00227F0A7E001200429064CF1211B2EF24CA
:10050A0001FFE43EFEE43DFDE43CFC9064CF1211A1
:10051A00DA122BB5AF1BAE1AAD19AC1890648C1257
:10052A0011DAE47F57FEFDFC9064CF1211CEC3129C
:10053A001131227F0A7E001200429064CF1211B25A
:10054A00EF2401FFE43EFEE43DFDE43CFC9064CF71
:10055A001211DA122BB5AF1BAE1AAD19AC18906492
:10056A008C1211DAE47F57FEFDFC9064CF1211CE93
:10057A00C3121131227F017E00120042122BB5AF45
:10058A001BAE1AAD19AC1890648C1211DA227F0ACC
:10059A007E001200429064CF1211B2EF2401FFE4F0
:1005AA003EFEE43DFDE43CFC9064CF1211DA122BCE
:1005BA00B5AF1BAE1AAD19AC1890648C1211DA22C1
:1005CA0075D9AA120030122BB5AF1BAE1AAD19ACF1
:1005DA001890648C1211DA227F017E0012004212F6
:1005EA002BB5AF1BAE1AAD19AC1890648C1211DA88
:1005FA002275D9AA120030122BB5AF1BAE1AAD194B
:10060A00AC1890648C1211DA227F017E001200422B
:10061A00122BB5AF1BAE1AAD19AC1890648C12111F
:10062A00DA2275D9AA120030122BB5AF1BAE1AAD59
:0A063A0019AC1890648C1211DA223A
:102CEB0078D2E254FBF2E24404F2907187E4F0D222
:022CFB00912224
:102BF40078D2E254EFF2E24410F2907188E4F07873
:0D2C0400D0E24404F208E24404F2D292222D
:102C110078C2E254FBF2E24404F290717FE4F0786E
:0D2C2100C0E24402F208E24402F2C2812245
:102C2E0078E3E254EFF2E24410F2907194E4F0781B
:0D2C3E00E0E24440F208E24440F2C2A62267
:101BE4004164E1004264E200004164DE004164DFDC
:051BF400004164E00067
:082D9000789CE2541FF2E222DC
:102C7B0078F2E254FBF2E24404F278F0E24402F21E
:082C8B00907197E4F0D2B12230
:102A5C00E5B154CF42B1789CE254F3F2E24414F263
:102A6C00E254FCF2E24401F208E2547FF2E2442028
:102A7C00F278A07432F2087401F2789EE4F208F253
:0A2A8C00122D9044A0F253A8BF22BF
:0A2D5600122D9044C0F243A8402261
:102D1F00122D9044A0F2789EE4F208F253A8BF223D
:03002100021DEAD3
:101DEA00C0E0C083C082C0D075D000C000C006C0A9
:011DFA0007E1
:101DFB00789DE220E703021ECBE24480F29064E17F
:101E0B00E064016003021ECB9064DFE0FFC3740F3C
:101E1B009FFF7E007401A807088005C333CE33CE25
:101E2B00D8F9FF9064E2E05EFEA3E05F4E60219084
:101E3B0064DEE014600E14600F1460102403702F26
:101E4B00D2B1802BD2B18027D2B18023C2B1801FF7
:101E5B009064DEE014600E14600F146010240370A5
:101E6B000ED2B1800AC2B18006C2B18002C2B1905B
:101E7B0064DEE004F0E0C394044009A3E004F090B6
:101E8B0064DEE4F09064DFE0C394104014A3E070D0
:101E9B001004F09064DFE014F09064DE7403F080C3
:101EAB001F9064DFE0C394104016A3E0B4011190BF
:101EBB0064DFE4F09064DEF09064E0F0A3F0D2B164
:0F1ECB00D007D006D000D0D0D082D083D0E03264
:102680009064E2EEF0A3EFF0C2B1122D74E47F018A
:10269000FEFDFC9064E51211CEC312113150057598
:1026A000D9AA80E9122D0EE49064E4F09064E5125A
:1026B00011E600000000122D569064E17401F090C4
:1026C00064E1E0600575D9AA80F5122D1F7F0A7EAE
:0426D00000020042C2
:022CAB00A90579
:102CAD00EFC43354E0FCE9541F4CFCECF4FFEFFD92
:052CBD00AE04022680B8
:102CC20075AF3F8FAF75AEB975A402E5A520E105DA
:062CD20075D9AA80F6226C
:102A20009064A112124375AF3F8FAF9064A4E0C3CE
:102A300094014027E5A520E00575D9AA80F69064A9
:102A4000A1E475F00112122C1210B2F5A675AEB900
:0C2A500075A4019064A4E014F080D02272
:102AD0009064A11212439064A4E0602AAE070FEE46
:102AE0002400FDE4343F8D82F583E493FE9064A1DD
:102AF000E475F00112122CEE1210CB9064A4E014D5
:072B0000F075D9AA80D02274
:102929009064E97456F0A37478F0E4A3F0A3F0FF7F
:10293900122CC27B017A6479E99064A47402F012C2
:102949002A207B017A6479EB9064A47402F0122A3C
:0F295900D09064EBE0B45607A3E0B47802C292CA
:01296800224C
:0F1BF9004C60240000000000000000000000000D
:101CE3009064901211B274242FF582E43460F5836A
:101CF300E4F090648C1211B278081211429064904F
:101D03001211CE90602675F004EB121217EA25E04B
:101D130025E02583F5831211DA90648C1211B27BCE
:101D230001E4FEFDFCFAF9F8C30211319064941248
:101D330011B290602675F004EF121217EE25E0251C
:101D4300E02583F5830211B29064941211B290647A
:101D530094EF2401FFE43EFEE43DFDE43CFC02116C
:101D6300DA906494E47F02FEFDFC1211CEC30211EB
:101D7300319064941211B274242FF582E43460F527
:101D830083229064901211B2742E2FF582E4346092
:101D9300F583229064901211B2906490EF2401FFB6
:101DA300E43EFEE43DFDE43CFC0211DA90648C1257
:101DB30011B2E4FEFDFC7B032290648C1211B27815
:101DC300080211429064900211B27B017A60792477
:101DD300740CF0E4FF22E47F02FEFDFC22E0FFE44A
:071DE300FCFDFE9064982254
:1009830090648C1211E6000000009064901211E64E
:10099300000000009064941211E600000000C203FE
:1009A3009064981211E60000000090649C1211E616
:1009B30000000000122D749064E4E06401600B7584
:1009C300D9AA12280F12003080ED122D0EE4906484
:1009D300E4F09064E51211E6000000009064A412B4
:1009E3001DCD122AD09063E6E07003020C0DE4F0F3
:1009F3007B017A64798C9064A71212431B7A007985
:100A0300009064AA1212430B7A6379F47F147E0078
:100A13007D007C0012193C121D1C600D121DAFF8E5
:100A2300C31211316003020C0D9064901211E600A1
:100A3300000000906490121D674003020AC5906491
:100A430090121D32C004C005C006C007121DBCA809
:100A530004A905AA06AB07D007D006D005D004C366
:100A63001211317051121CE37008121D857401F0CC
:100A7300801290648C1211B27B03121D2470051234
:100A83001D85E4F09064941211E600000000121D2D
:100A9300645020121DC7906494121D6D6010121DC6
:100AA3002FE4FB121D286006121D74E004F0121DD2
:100AB3004B80DB020BFF121DC7906490121D540282
:100AC3000A369064901211E600000000121DD990BE
:100AD3006490121D6D5069906490121D77E0705AF6
:100AE300906490121D32E4FB121D28704D121CE31A
:100AF3007008121D857401F0800D121DAF121D28A0
:100B03007005121D85E4F09064941211E600000054
:100B130000121D645020121DC7906494121D6D6055
:100B230010121D2FE4FB121D286006121D74E00431
:100B3300F0121D4B80DBD2038006121D96020ACFF2
:100B4300300303020BFF9064901211E600000000D3
:100B5300121DD9906490121D6D5028906490121D3F
:100B630077121DE0121D6D5015906490121D7712BF
:100B73001DE01211DA121DC790649C1211DA121DC6
:100B83009680CD121DBC90649C1211CE9060267588
:100B9300F004EB121217EA25E025E02583F5831212
:100BA30011DA90649C121D77E4F0121D1C700B90F7
:100BB300649C121D887401F08010121DAF121D2851
:100BC300700890649C121D88E4F09064941211E6FE
:100BD30000000000121D64502390649C1211B29017
:100BE3006494121D6D6010121D2FE4FB121D28600A
:100BF30006121D74E004F0121D4B80D8E4FF122C82
:0A0C0300C29064A4121DCD122A2035
:010C0D0022C4
:102B0700E490648CF0F090648CE0FBC39402502452
:102B17009063E9121DBFEB25E025E02426F582E44A
:102B27003460F583121D6D70037F012290648CE081
:062B370004F080D27F00D3
:012B3D002275
:102A96009064ED1211E600000000121DD99064ED5D
:102AA600121D6D50249064ED121D77E0FF7E00121A
:102AB60026809064ED121D321226809064ED12116C
:092AC600B29064ED121D9F80D155
:012ACF0022E4
:101C08004263E700004463DE000000004463E20032
:101C18000000004463ED000000004463E900000098
:101C2800004263F10000605063F40000000000000F
:101C3800000000000000000000000000000000009C
:101C4800000000000000000000000000000000008C
:101C5800000000000000000000000000000000007C
:101C6800000000000000000000000000000000006C
:101C7800000000000000000000004163F300416321
:071C8800E6004263DC0000EE
:1024FD00E49063E2FEFDFC1211CED3021131E490A3
:10250D0063EDFEFDFC1211CEC3021131FFEC9063A1
:10251D00E91211DA9063DCE475F0010210DDFF9031
:10252D0064A01212238F828E831211689064B722D9
:10253D009063E90211B2E0FEA3E0FFEE3395E0FDFA
:10254D00FC9064A3227890E2541FF2E2221212232F
:04255D00E94A4B22DA
:1026260078D2E254BFF218E24408F2E5B854CF4239
:10263600B843A804D2AF78D7E24408F278D4E2547B
:102646003FF2E5B154F342B17890E254F3F2E2443A
:1026560014F2E254FCF2E24401F208E2547FF2E2A0
:102666004420F278947498F208E4F27892F208F230
:0A26760012255244A0F253A8DF22FF
:03001E0002277343
:10277300C0E0C0F0C083C082C0D075D000C000C02C
:1027830004C005C006C0077891E230E71DE244802B
:10279300F29063DE1211B2EF2401FFE43EFEE43D4A
:1027A300FDE43CFC9063DE1211DAD007D006D005BD
:0F27B300D004D000D0D0D082D083D0F0D0E0328C
:0A2D600012255244C0F243A82022BD
:102D2F0012255244A0F27892E4F208F253A8DF225F
:030015000217E0EF
:1017E000C0E0C0F0C083C082C0D075D000C000C0CF
:0D17F00001C002C003C004C005C006C00750
:1017FD0078D6E29064C9F053A8FBE020E303021908
:10180D00179063DE30931D1211B29063ED1211DA51
:10181D009063DE1211E6000000009063E7E4F0A390
:10182D0004F080131211B29063E21211DA9063DEAC
:10183D001211E6000000009063E7E07002A3E07073
:10184D00030219179063E7E4F0A3F07F329063ED84
:10185D0012250140030218E67F011224FD4034E4F5
:10186D007F061224FE502C7F0512250B4025E47FA8
:10187D0014FEFDFC9063ED122504501712253DEF6B
:10188D0054FE1225199063DCE07004A3E064186027
:10189D00598036E47F059063E212250F403B7F149B
:1018AD001224FD50347F0112250B402DE47F0A12C6
:1018BD00250C502512253DEF44011225199063DCAE
:1018CD00E07004A3E06418602112253D7801121127
:1018DD00559063E91211DA80119063E91211E60057
:1018ED000000009063DCE4F0A3F0C39063DDE094AE
:1018FD00189063DCE064809480400F9063F1E4F015
:10190D00A304F09063DCE4F0A3F09064C9E078D612
:04191D00F243A804E5
:10192100D007D006D005D004D003D002D001D0001A
:0B193100D0D0D082D083D0F0D0E032C4
:0C193C009064A01212439064A31211DA10
:101948009064AD1211E60000000074FF9064B1F0DD
:10195800A3F0A31211E6000000009064B71211E68C
:10196800000000009064BB1211E600000000E49043
:1019780064BFF0A3F0A3F0A3F09064A012255A70FE
:1019880003021A90E49064BFF0A3F09064BF12259C
:10199800431225045003021A5D9064BFE0FEA3E0E1
:1019A8007802C333CE33CED8F912252B1211DA9030
:1019B80064BB1211E600000000E49064C1F0A3F0DB
:1019C8009064C112254312250440399064C1E0FE99
:1019D800A3E07802C333CE33CED8F912252B1225D3
:1019E8001270199064BB1211B2EF2401FFE43EFE9D
:1019F800E43DFDE43CFC9064BB1211DA9064C11232
:101A0800252480BC9064AD1211B29064B7122512DF
:101A1800603A9064B31211B29064BB122504402C52
:101A28009064B71211B29064AD1211DA9064BB12CF
:101A380011B29064B31211DA9064C2E024FFFE90F0
:101A480064C1E034FF9064B1F0A3CEF09064BF129B
:101A580025240219939064A712255A600F9064AD4B
:101A68001211B29064A71212231211989064AA124C
:101A7800255A60149064B1E0FEA3E0FFE4FCFD90F9
:081A880064AA12122312119846
:011A90002233
:10280F009064A01211E6000000009063F1E07002E6
:10281F00A3E06028E49063F1F0A3F053A8FB122526
:10282F003D9063F3E0FB04F0EB25E025E024F4F5A5
:10283F0082E43463F5831211DA43A8049063F3E062
:0A284F00B41407E4F09063E604F00F
:01285900225C
:102B6C00E49064FDF0A3F0A3F09063F1E07002A395
:102B7C00E06013E49063F1F0A3F053A8FD12253D3F
:062B8C0012268043A8029E
:012B92002220
:071C8F004464F100000000B5
:092D7E00907108E0541FF0E022FE
:10296900E5B254F342B2907108E054F3F0E0441434
:10297900F0E054FCF0E04401F0A3E0547FF0E044BF
:1029890020F053A9FD90710C7437F0A3743BF090BB
:0D299900710AE4F0A3F0122D7E44A0F0229C
:0A2D6A00122D7E44C0F043A902229E
:102CFD00122D7E44A0F090710AE4F0A3F053A9FDCB
:012D0D0022A3
:030027000226D4DA
:1026D400C0E0C0F0C083C082C0D075D000C000C0CC
:1026E40004C005C006C007907109E030E71DE0444E
:1026F40080F09064F11211B2EF2401FFE43EFEE495
:102704003DFDE43CFC9064F11211DAD007D006D010
:1027140005D004D000D0D0D082D083D0F0D0E03225
:101C96004164D8004464D9000000004164DD00417D
:031CA60064D70000
:102561007F0C9064F1E4FEFDFC0211CEE47F6E90DD
:1025710064F5FEFDFC0211CE9063E91211B2EF5435
:102581003FFFE4AD07229064D8F09063E91211B2E5
:1025910078080211429064DDEFF09064D91211B213
:1025A1009064F11211CE1210F39064D91211DA90E5
:1025B10064F122E47F5A9064D9FEFDFC1211CEC36E
:0325C100021131D3
:100C0E009063F1E07002A3E060031200309063F194
:100C1E00E07002A3E0603FE4FF9064D9122573C335
:100C2E0012113170319064D8E0702B9063F1F0A303
:100C3E00F0122B07EF64016003020E4504122587A4
:100C4E00C006C007122579D007D006121650906440
:100C5E00DDEFF0022D6A7F4B9064D9122566C31228
:100C6E0011314003020D7E9063F1E07002A3E0604B
:100C7E002D122561D31211315024120E466003023B
:100C8E000E4512258BC006C007122579D007D00657
:100C9E001216501225961211E6000000002212259F
:100CAE0061D31211315003020E459064D8E07003E7
:030CBE00020E45DE
:100CC100E4F0A31211E600000000122CFD9064F183
:100CD1001211E6000000009064F51211E600000018
:100CE100001200189064DDE09064D7F09063F1E0A9
:100CF1007002A3E0603BE47F32122570D312113100
:100D0100402F12256DC312113150269064DDE0FD94
:100D11009064D7E0B505157F04122CAB7FDC7E0013
:100D2100120042E49063F1F0A3F08048120E548067
:100D3100439063F1E07002A3E0600E12256DD312BF
:100D410011314005120E54802B9063F1E07002A323
:100D5100E0709912256ED31211314090122D9890A6
:100D610064F51211E6000000009064D7E0FDE4FF95
:0D0D7100122CABE49064DDF09064D7F0220A
:100D7E009064D8E0640170327F4BA31225BA402AEA
:100D8E001225B450257402122587C006C0071225FD
:100D9E0079D007D0061216509064DDEFF0E0FD7F9B
:100DAE0001122CAB9064D87403F09064D8E0640305
:100DBE00704D9063F1E07002A3E06043122561D3A1
:100DCE00121131503A120E46706D12258BC006C0AC
:100DDE0007122579D007D006121650122596121139
:100DEE00E6000000001225B4404D9064DDE0FD7F6A
:100DFE0002122CAB9064D91211E60000004B2212A5
:100E0E002561D3121131402F9064D8E0602990648F
:100E1E00DDE0FD7F03122CABE49064D8F0A3121139
:100E2E00E600000000122CFD9064F11211E60000A5
:070E3E000000E49064DDF008
:100E450022E49063F1F0A3F0122B07EF64012290E6
:0B0E550064D7E0FDE4FF122CABE422A8
:0B1CA9004164E4004464E5000000001A
:092D8700907100E0541FF0E022FD
:1029A600E5B254FC42B2907100E054F3F0E04414F6
:1029B600F0E054FCF0E04401F0A3E0547FF0E04482
:1029C60020F090710474E0F0A3741DF0907102E49D
:0D29D600F0A3F0122D8744A0F053A9FE22BB
:0A2D7400122D8744C0F043A901228C
:102D0E00122D8744A0F0907102E4F0A3F053A9FEB7
:012D1E002292
:0300240002229421
:10229400C0E0C0F0C083C082C0D075D000C000C010
:1022A40001C002C003C004C005C006C0079071018C
:1022B400E030E740E04480F09064E51211B2EF248E
:1022C40001FFE43EFEE43DFDE43CFC9064E51211B4
:1022D400DAE47FE87E03FDFC9064E51211CEC312BC
:1022E400113170109064E51211E600000000906452
:1022F400E47401F0D007D006D005D004D003D00296
:0F230400D001D000D0D0D082D083D0F0D0E03242
:0B16500090648CEEF0A3EFF0A3EDF02F
:10165B00E4A3F0A37455F0E4A3F0F0906491E0FBE5
:10166B00C39402503E90648CE0FEA3E0FFE4FCFDCB
:10167B00EB25E025E02426F582E43460F583121196
:10168B00CEC31211317014906491E0242EF582E4D4
:10169B003460F583E0906490F08008906491E004EE
:1016AB00F080B8906490E0FF706490648EE012124A
:1016BB004C16DE0116E10216E40316E60416E905E4
:1016CB0016EC0616F50716FE0817070917100A0081
:1016DB000017DA02176C0217748076021784021750
:1016EB008C90648F7406F00217DA90648F7407F095
:1016FB000217DA90648F7408F00217DA90648F7413
:10170B0009F00217DA90648F740AF00217DAEF64AB
:10171B000160030217DA90648EE012124C175C0121
:10172B00176402176C03177404177C0517840617CC
:10173B008C07179408179C0917A40A17AC0B17B43E
:10174B000C17BC0D17C40E17CC0F17D410000017B5
:10175B00DA90648F7401F0807690648F740BF08054
:10176B006E90648F7402F0806690648F7403F080C7
:10177B005E90648F740CF0805690648F7404F080CC
:10178B004E90648F7405F0804690648F740DF080DA
:10179B003E90648F740EF0803690648F740FF080DF
:1017AB002E90648F7410F0802690648F7411F080EB
:1017BB001E90648F7412F0801690648F7413F080F7
:1017CB000E90648F7414F0800690648F7415F090F3
:0417DB00648FE0FF38
:0117DF0022E7
:071CB4004464F5000000008C
:102C930043A90475D11075E6F075E70575DABC75BF
:082CA300DF20E4F5DED2AF22D0
:0400180075DE01226E
:072D9800E4F5DE75D1102205
:03002A000227C2E8
:1027C200C0E0C0F0C083C082C0D075D000C000C0DD
:1027D20004C005C006C007E5EE30E51C43E22090C8
:1027E20064F51211B2EF2401FFE43EFEE43DFDE484
:1027F2003CFC9064F51211DAD007D006D005D00463
:0D280200D000D0D0D082D083D0F0D0E03212
:091CBB004464F900000000C102BC
:0C2D3F00FDFC9064F91211CEC3021131AA
:0D0030009064F91211E600000000C20222E7
:102B930043A9087856E4F2782774BBF218747FF2DD
:102BA300785C7402F27811E24401F27817E244018E
:022BB300F2220C
:03002D0002240F9B
:10240F00C0E0C0F0C083C082C0D075D000C000C093
:10241F0001C002C003C004C005C006C0077862E255
:10242F0030E13BE24402F2E4FFFE122D3F502F90C9
:10243F0064F91211B2EF2401FFE43EFEE43DFDE426
:10244F003CFC9064F91211DAE47F887E13122D3F61
:10245F00400C9064F91211E600000000D202D00780
:10246F00D006D005D004D003D002D001D000D0D0F8
:09247F00D082D083D0F0D0E0320D
:101CC40041604801426049000041604B0041604C62
:0E1CD4000041604D0041604E7F42604FFFFFB7
:1029E300E4F561AE3EAD3DAC3C853F178E168D15CB
:1029F3008C14787EE254FCF2E24514F218E515F2E9
:102A030018E516F218E517F2787FE254FBF2E25468
:0D2A1300FB4404F2E24401F27F01022210B4
:100E6000906496EFF0E0FF2450F582E43464F5835B
:100E7000E004F0745C2FF582E43464F583E4F074EC
:100E8000502FF582E43464F583E0C3956350030288
:100E900010B1906496E0FB2450F582E43464F5834D
:100EA000E4F0902B4F93640160030210627F01FE17
:100EB000FDFC74622BF582E43464F583E0F9F812EA
:100EC0001155E51F4FF51FE51E4EF51EE51D4DF5AD
:100ED0001DE51C4CF51CAF1FAE1EAD1DFC780112AC
:100EE0001142EF5455FBEE5455FAED5455F9EC54BC
:100EF00055F8C3E51F9BF53BE51E9AF53AE51D99AC
:100F0000F539E51C98F538AF3BAE3AAD39FC7802BF
:100F1000121142EF5433FBEE5433FAED5433F9EC33
:100F20005433F8E53B5433FFE53A5433FEE5395486
:100F300033FDE5385433FCEB2FF53BEA3EF53AE957
:100F40003DF539E83CF538AF3BAE3AAD39FC7804B5
:100F5000121142EF253BFFEE353AFEED3539FDEC3F
:100F60003538FCEF540FF53BEE540FF53AED540FC6
:100F7000F539EC540FF538AF3BAE3AAD39FC780893
:100F8000121142EF253BFFEE353AED3539FDEC35D8
:100F900038EFF53BE4F53AEDF539E4F538AE3AAC27
:100FA000387810121142EF253BFFEE353AFEEFF58F
:100FB0003BEEF53AE4F539F538906496E025E02407
:100FC00068F582E43464F583E0FEA3E0D39553EE44
:100FD00095524024906496E0FF25E02468F582E471
:100FE0003464F583E0F552A3E0F55374622FF58283
:100FF000E43464F583E0F564902B4FE493FFE4FC64
:10100000FDFEAB3BAA3AA939A838D31211314052A0
:10101000AF650565D3EF940374809480500302108C
:10102000B1E4F565F51FF51EF51DF51C7F01FEFD0C
:10103000FCA964A8011211558F1B8E1A8D198C18EA
:10104000E47F01FEFDFCA8011211558F338E328D15
:10105000318C30E4F552F553756420122313433775
:101060000222E4F5657F01FEFDFC906496E0FB241E
:1010700062F582E43464F583E0F9F8121155E51B5A
:101080004FF51BE51A4EF51AE5194DF519E5184C03
:10109000F518E47F01FEFDFCA803121155E5334F5E
:1010A000F533E5324EF532E5314DF531E5304CF5AD
:0210B0003022EC
:10064400E4F566902B53E493FFE566C39F400302F1
:100654000982E56625E02400F582E4346085828A17
:100664007F548F8B7E0E8E8C758903758889E56621
:1006740025E02400F582E4346085828A8F8B758CB2
:1006840012758904758889E56625E02418F582E4E5
:100694003460F583E0FCA3E0C3950FEC950E502E77
:1006A400E56625E0243CF582E43460F583E0FCA3B0
:1006B400E0C39513EC95125015AF600560EF9402FA
:1006C40074809480400BE4F5605337FD8003E4F5B7
:1006D40060E53730E125E56625E02468F582E434F9
:1006E40064F583E4F0A3F0E56625E02474F582E480
:1006F4003464F583E4F0A3F0020792E56625E02470
:1007040018F582E4346085828A8E8B758C0A75892B
:10071400267588892088FDE5F130E00875F107E445
:10072400F50AF50BAE0AE50B7802C333CE33CED807
:10073400F9FFE56625E02468F582E43464F583EE88
:10074400F0A3EFF0E56625E0243CF582E43460850F
:10075400828A758B12758C0A758927758889208819
:10076400FDE5F130E00875F107E4F50AF50BAE0A92
:10077400E50B7802C333CE33CED8F9FFE56625E026
:100784002474F582E43464F583EEF0A3EFF0E566B7
:1007940025E02480F582E43464F583E0FEA3E07868
:1007A40002CEC313CE13D8F9F5518E50E56625E079
:1007B4002468F582E43464F583E0FEA3E0FF902B23
:1007C4004BE493FC740193FDC3EF9DEE9C4017E54D
:1007D4006625E02474F582E43464F583E0FEA3E046
:1007E400C39DEE9C50028068E56625E02468F5828E
:1007F400E43464F583E0FEA3E0C39551EE955040E4
:100804001CE56625E02474F582E43464F583E0FE97
:10081400A3E0C39551EE9550400302089E745625FB
:1008240066F582E43464F583E004F074562566F5D5
:1008340082E43464F583E0FF902B50E493FEEFD31D
:100844009E406474562566F582E43464F583E4F0CE
:10085400E56625E0240CF582E43460F583E0FEA32C
:10086400E0FFE56625E02418F582E43460F583EEC4
:10087400F0A3EFF0E56625E02430F582E43460F57A
:1008840083E0FEA3E0FFE56625E0243CF582E43442
:1008940060F583EEF0A3EFF0800D74562566F582C3
:1008A400E43464F583E4F0E56625E0240CF582E4A1
:1008B400346085828AE56625E02400F582E43460AC
:1008C40085828B758C0A7589207588CB2088FDE517
:1008D400F130E00875F107E4F50AF50BE56625E06B
:1008E400240CF582E4346085828A758B547F0E8FE4
:1008F4008C7589237588897E0A8E8A8F8BE5662597
:10090400E0240CF582E4346085828CE4F5897588F2
:1009140029E56625E02430F582E4346085828AE5A1
:100924006625E02400F582E4346085828B8E8C7524
:1009340089207588CB2088FDE5F130E00875F10742
:10094400E4F50AF50BE56625E02430F582E434602D
:1009540085828A758B547F0E8F8C7589247588895E
:10096400758A0A8F8BE56625E02430F582E43460CD
:0F09740085828CE4F5897588290566020647227D
:1012E200E4F566902B53E493FFE566C39F40030247
:1012F200149AE56625E02480F582E43464F583E0FF
:10130200FEA3E07802CEC313CE13D8F9F5518E5066
:10131200E56625E02468F582E43464F583E0FEA303
:10132200E0D39551EE9550402EE56625E02474F504
:1013320082E43464F583E0FEA3E0D39551EE955048
:101342004015745C2566F582E43464F583E4F0AFFD
:1013520066120E60021495902B52E493FFC3E5517E
:101362009FFFE5509400FED3EF9400EE94004002FC
:1013720080047E007F00E56625E02468F582E4347F
:1013820064F583E0FCA3E0C39FEC9E400302148853
:10139200902B52E493FFC3E5519FFFE5509400FE6A
:1013A200D3EF9400EE9400400280047E007F00E5BB
:1013B2006625E02474F582E43464F583E0FCA3E05E
:1013C200C39FEC9E400302148874502566F582E4A4
:1013D2003464F583E4F0745C2566F582E43464F5E4
:1013E20083E004F0745C2566F582E43464F583E0FE
:1013F200C395635003021495745C2566F582E43448
:1014020064F583E4F07F01FEFDFC74622566F582DB
:10141200E43464F583E0F9F8121155121100E51F66
:101422005FF51FE51E5EF51EE51D5DF51DE51C5C05
:10143200F51CE47F01FEFDFCA966A80112115512FC
:101442001100E5335FF533E5325EF532E5315DF5E6
:1014520031E5305CF530E47F01FEFDFC7462256607
:10146200F582E43464F583E0F9F8121155121100A3
:10147200E51B5FF51BE51A5EF51AE5195DF519E541
:10148200185CF518800D745C2566F582E43464F509
:0914920083E4F005660212E52274
:10231300E4F566902B53E493FFE566C39F506EE5A7
:102323006625E02468F582E43464F583E4F0A3F0E1
:10233300E56625E02474F582E43464F583E4F0A3D0
:10234300F0E56625E0240CF582E43460F583E0FED5
:10235300A3E0FFE56625E02418F582E43460F58305
:10236300EEF0A3EFF0E56625E02430F582E4346077
:10237300F583E0FEA3E0FFE56625E0243CF582E477
:0E2383003460F583EEF0A3EFF005668086224D
:1020EB00E4F566902B53E493FFE566C39F5067902E
:1020FB006048E0FF7E00C39410748094805053EFCF
:10210B009408748094804025E56625E02400F582D0
:10211B00E43460F583E0FEA3E0FFE56625E0240CE4
:10212B00F582E43460F583EE8FF01210DDE5662561
:10213B00E02400F582E43460F583E0FEA3E0FFE5E4
:10214B006625E02430F582E43460F583EE8FF012DF
:10215B0010DD0566808D906048E0C3941074809408
:10216B008040054337048006906048E004F07F010F
:03217B000222102D
:10239100E4FFFEFDFCAB1BAA1AA919A818C3121170
:1023A10031606390604AE004F07006906049E00497
:1023B100F0902B47E493FE740193FF4E602ED3906F
:1023C100604AE09F906049E09E4021E4F0A3F0F56F
:1023D1001FF51EF51DF51CF533F532F531F530F518
:1023E1001BF51AF519F518C201022313902B49E4C4
:1023F10093FE740193FFD390604AE09F906049E09F
:0D2401009E400AD20122E4906049F0A3F051
:01240E0022AB
:05149B009064C4EFF0B5
:1014A000A3E0FCA3E0FDA3E0FEA3E0F5288E278DDA
:1014B000268C257884E2F50A08E2F50B758A087512
:1014C0008B25758C2175881D2088FDE4FFFEFDFCB1
:1014D000AB24AA23A922A821D312111B4006AC21B8
:1014E000A8048013AF24AE23AD22AC2112110DABA2
:1014F00007AA06A905A80490604FE0FEA3E0FFE458
:10150000FCFDC312111B5041E4FFFEFDFCAB24AAFD
:1015100023A922A82112111B4006AF24AE23800B61
:10152000AF24AE23AD22AC2112110D90604FEEF02E
:10153000A3EFF09064C4E025E02444F582E4346431
:10154000F583E0A3E090604EF0902B44E493FE74AA
:101550000193FFD3906050E09F90604FE09E501B3E
:101560009064C4E025E02444F582E43464F583E02B
:10157000A3E090604EF090604B8079E4FFFEFDFCAC
:10158000AB24AA23A922A821D312111B40349064B2
:10159000C4E0FF25E02444F582E43464F583E0FCF4
:1015A000A3E0D39400EC9400404DEF25E02444F5F3
:1015B00082E43464F58374FFF5F01210DD90604C22
:1015C00080329064C4E0FF25E02444F582E4346472
:1015D000F583E0FCA3E0C3947FEC94005019EF2561
:1015E000E02444F582E43464F583E475F0011210DC
:1015F000DD90604D7401F090604CE064017011A3C7
:10160000E06401700B90604CF0A3F090604B04F02C
:1016100090604BE06401703590604EE0FF9064C4D0
:10162000E025E02444F582E43464F583E4F0A3EF9C
:10163000F074FF90604FF0A3F090604E747FF0E480
:0F16400090604CF0A3F090604BF07F01227F0090
:01164F002278
:1025C400E49064C3F0902B3E1211BE7801121155B1
:1025D4009064C51211DAAF6112149BEF6022056199
:1025E400E53730E4095337EF9064C37401F0902B5E
:1025F40053E493FFE561C39F4006E4F5614337105C
:10260400C3902B427401939562E493940040089024
:1026140064C3E064017005D2000229E3E4FF1222DE
:0126240010A5
:012625002292
:10221000EF70607F01FEFDFC74622561F582E4349D
:1022200064F583E0F9F81211558F178E168D158C11
:1022300014787EE254FCF2E24514F218E515F21827
:10224000E516F218E517F2E56125E02444F582E48D
:102250003464F583E0A3E0547FFF7878E254804F44
:10226000F2787FE254FBF2E254FB4404F2E24401D0
:10227000F2801CE56125E02444F582E43464F583B2
:10228000E0A3E0547FFF7878E254804FF2787FE259
:042290004402F222F0
:101FB600E490648CF0A3F090648CE0FEA3E0FFC391
:101FC6009488EE94035031EF2444FFEE34068F825A
:101FD600F583E493FF90648DE02451FD90648CE0DA
:101FE60034608D82F583EFF090648DE004F070C765
:081FF60090648CE004F080BF50
:101FFE009063D97401F0A37460F0A37451F0E4F50A
:10200E0061F537F536F535F534C200C201F51FF529
:10201E001EF51DF51CF533F532F531F530F51BF5D2
:10202E001AF519F518902B4D93FF902B51E493FE52
:10203E00A807088002C333D8FCF563756420E4FF5B
:03204E000222105B
:102488007884E2F50A08E2F50BAE0A7803CEC313A6
:10249800CE13D8F97802C333CE33CED8F9FFE5612D
:1024A80025E02400F582E43460F583EEF0A3EFF034
:1024B80020000F902B46E4937005D2000229E30216
:1024C80025C40561902B53E493FFE561C39F401F2A
:1024D800787FE254FBF2E254FB4404F2E24401F256
:1024E800E4F561E53720E2030220EB433701227F60
:0524F800011222102278
:05000F000562022391CF
:102BB500E53730E01A9063D9A3E0FAA3E0F91212E1
:102BC500AC1212E2E4F5617F011222105337FE22A6
:10206B00022CD8E493A3F8E493A34003F68001F287
:10207B0008DFF48029E493A3F85407240CC8C33376
:10208B00C4540F4420C8834004F456800146F6DF45
:10209B00E4800B0102040810204080901BCDE47EED
:1020AB00019360BCA3FF543F30E509541FFEE4933A
:1020BB00A360010ECF54C025E060A840B8E493A301
:1020CB00FAE493A3F8E493A3C8C582C8CAC583CA2C
:1020DB00F0A3C8C582C8CAC583CADFE9DEE780BEE4
:011CE2000001
:1010B200BB010689828A83E0225002E722BBFE023C
:0910C200E32289828A83E493226F
:1010CB00BB010689828A83F0225002F722BBFE0104
:0210DB00F322FE
:1010DD00C5F0F8A3E028F0C5F0F8E582158270029E
:0610ED001583E038F0223B
:0D10F300EF2BFFEE3AFEED39FDEC38FC224C
:0D110000CFF4CFCEF4CECDF4CDCCF4CC2284
:0E110D00C3E49FFFE49EFEE49DFDE49CFC22F3
:10111B00EB9FF5F0EA9E42F0E99D42F0EC6480C84B
:06112B0064809845F022EB
:10113100EB9FF5F0EA9E42F0E99D42F0E89C45F014
:01114100228B
:10114200E8600FECC313FCED13FDEE13FEEF13FF8B
:03115200D8F122AF
:10115500E8600FEFC333FFEE33FEED33FDEC33FCF8
:03116500D8F1229C
:10116800BB010DE58229F582E5833AF5830211B2C8
:101178005007E92582F80212B2BBFE07E92582F87A
:101188000212BEE58229F582E5833AF5830211BE93
:10119800BB010789828A830211DA5005E9F8021235
:0A11A800CABBFE05E9F80212D622C8
:0C11B200E0FCA3E0FDA3E0FEA3E0FF22B0
:1011BE00E493FC740193FD740293FE740393FF2277
:0C11CE00E0F8A3E0F9A3E0FAA3E0FB22A4
:0C11DA00ECF0A3EDF0A3EEF0A3EFF02288
:1011E600A8828583F0D083D0821211FD1211FD12E0
:1011F60011FD1211FDE473E493A3C583C5F0C58305
:10120600C8C582C8F0A3C583C5F0C583C8C582C852
:0112160022B5
:0C121700A42582F582E5F03583F58322E2
:09122300E0FBA3E0FAA3E0F922CC
:10122C00F8E0FBA3A3E0F925F0F0E582158270024B
:07123C001583E0FA38F022EF
:09124300EBF0A3EAF0A3E9F022AC
:10124C00D083D082F8E4937012740193700DA3A331
:10125C0093F8740193F5828883E473740293686045
:06126C00EFA3A3A380DF45
:10127200D083D082E4937012740193700DA3A39370
:10128200F8740193F5828883E4737402936C70128C
:101292007403936D700C7404936E70067405936FEF
:0A12A20060DDA3A3A3A3A3A380CAE9
:0612AC008A838982E473CD
:0C12B200E6FC08E6FD08E6FE08E6FF2268
:0C12BE00E2FC08E2FD08E2FE08E2FF226C
:0C12CA00ECF608EDF608EEF608EFF62250
:0C12D600ECF208EDF208EEF208EFF22254
:00000001FF
