:0300000002201AC1
:10201A00787FE4F6D8FD9060007F007E07E4F0A3A5
:0A202A00DFFCDEFA75816602206F0C
:0C000300000000000000000000000000F1
:0B2C5000EF1FAC0670011E4C70F62256
:10004200AB07AA06EB1BAE0270011A4E600C75D903
:0B005200AA7F747E04122C5080EA226A
:101EA300907120E04480F07F057E00122C50E4FF07
:101EB300FE12004275A75575AC5C9071327450F0F8
:101EC3009071307403F0907136742FF090715C74DC
:101ED30003F090715BE054FCF07F18EF2466FDE49F
:101EE30034718D82F583E4F00FEFB433EE9040113B
:101EF300E4935407FF90711CE054F84FF09040179F
:101F0300E493547FFF90711DE054804FF090401094
:101F1300E493FF5401C43333335480FE907123E0C0
:101F2300547F4EF0EFC313543F4440FFA3E054806B
:101F33004FF0904012E493FF540FFE907146E0542B
:101F4300F04EF0EFC4540FFF90714FE054F04FF098
:101F5300904013E493543FFF907140E054C04FF01E
:101F6300904014E493907126F0904015E49390719F
:0B1F730028F0904016E49390712AF0D3
:011F7E002240
:102A8E00000009C4006400C80101F4004B000A00F4
:102A9E0000010F04050600000032000200320003A0
:0E2AAE00003200090032000A00320018004B0E
:102B5A00E2FE74622FF582E43464F583E02224FCF9
:082B6A0025E0FDF874030822C8
:101A6300E4FF122B5CC394085058122B5CC39404FC
:101A7300502878C2C000122B5A122B6A8002C3333B
:101A8300D8FCF45ED000F278C2C000122B5A122B9D
:101A93006A8002C333D8FC021B9178C3C000122BA7
:101AA3005A122B688002C333D8FCF45ED000F2785C
:101AB300C3C000122B5A122B688002C333D8FC0216
:101AC3001B91122B5CC394084068122B5CC39410C7
:101AD3005060122B5CC3940C502C78D2C000122B94
:101AE3005A24F8122B6A8002C333D8FCF45ED00068
:101AF300F278D2C000122B5A24F8122B6A8002C348
:101B030033D8FC021B9178D3C000122B5A24F41251
:101B13002B6A8002C333D8FCF45ED000F278D3C0C2
:101B230000122B5A24F4122B6A8002C333D8FC020E
:101B33001B91122B5CC39414502B78E2C000122B20
:101B43005A24F0122B6A8002C333D8FCF45ED0000F
:101B5300F278E2C000122B5A24F0122B6A8002C3DF
:101B630033D8FC802978E3C000122B5A24EC122BC3
:101B73006A8002C333D8FCF45ED000F278E3C0007D
:101B8300122B5A24EC122B6A8002C333D8FC4ED09A
:0B1B930000F20FEF64066003021A6509
:011B9E002224
:03005D000227F087
:1027F000C0E0C0F0C083C082C0D075D000C000C0AF
:1028000001C002C003C004C005C006C0077881E251
:1028100030E607E24440F21223D8D007D006D005B4
:10282000D004D003D002D001D000D0D0D082D08349
:05283000D0F0D0E03201
:10267400D2AF43AB0843B6C0907132E04440F0435C
:10268400AB087877743FF208744BF2787A7430F2BE
:10269400788914F27871744FF2187427F27872748E
:1026A400A8F2087410F208E4F208F208F2787E74D2
:0F26B400D0F2087404F208741EF2087402F222C5
:03003F000227AAEB
:1027AA00C0E0C0F0C083C082C0D075D000C000C0F5
:1027BA0001C002C003C004C005C006C0079071531F
:1027CA00E030E707E04480F012000FD007D006D0CF
:1027DA0005D004D003D002D001D000D0D0D082D00E
:0627EA0083D0F0D0E032C4
:10214700E4FBEB25E025E024A4F582E4342AF583BB
:10215700740193FF74622BF582E43464F583EFF026
:10216700EB25E025E024A6F582E4342AF583E49301
:10217700FE740193FFEB25E02480F582E43464F5D7
:1021870083EEF0A3EFF0EB25E02444F582E434641A
:10219700F583E4F0A3744BF0E47F01FEFDFC746269
:1021A7002B122B5FF9F8121127E53F4FFFE53E4E43
:1021B700FEE53D4DFDE53C4C8F3F8E3E8D3DF53CAC
:1021C7000BEB64066003022149121A63121F7F0298
:0221D70026746C
:102BA200122BE6122147120965122AE31200601263
:072BB2000E3F75D9AA80F265
:102BFB00121EA375D95590715EE054FEF075D9BBCA
:032C0B00022BA2F7
:101B9F004264D500004464CA000000004164CE00D6
:071BAF004464CF00000000B8
:102835007F08E4FEFDFC90648C1211A0C302110315
:10284500906490121184EF2401FFE43EFEE43DFD07
:10285500E43CFC9064900211ACE47F4BFEFDFC90DF
:1028650064CF22E47F64FEFDFC90649022E4FFFEC9
:04287500FD7C0122C3
:102BE600122576122B721229AC122C651228F612B7
:052BF60028B9022B8A42
:10006000AF1BAE1AAD19AC1890648C1211AC906431
:10007000901211B800000000E4906494F0A3F09096
:10008000648C121184EC4D4E4F70030202AE9064EA
:10009000CEE060030202AE7F4BFEFDFCA312283EC1
:1000A00040030202AE9064901211B8000000007F7D
:1000B000207EA17D077C0090649012283E50497FED
:1000C0000A7E00120042122AE3AF1BAE1AAD19AC31
:1000D0001812283B70329064CF121184EF2401FF74
:1000E000E43EFEE43DFDE43CFC9064CF1211AC1212
:1000F000285E1211A0D312110340089064CE74013F
:10010000F0800512284580A712285E1211A0D31294
:10011000110340099064CE7401F00202AE9064CFE6
:100120001211B80000000012287212283B7039909A
:1001300064901211B80000000012286812283E5086
:100140002212056A12287212283B7011E4FF12284D
:100150003860051205CE80F47D1602029C122845F7
:100160000201397D160202A912283570369064907A
:100170001211B80000000012286812283E501F1209
:10018000056A1228357011E4FF122838600512053F
:10019000CE80F47D1702029C1228450201777D175C
:1001A0000202A97F0412283770399064901211B8A6
:1001B0000000000012286812283E50221205B5E403
:1001C0007F041228387011E4FF12283860051205E8
:1001D000E380F47D1802029C1228450201B47D18C8
:1001E0000202A9E47F01122838703990649012113C
:1001F000B80000000012286812283E50221205B5EF
:10020000E47F011228387011E4FF122838600512CB
:1002100005E380F47D1902029C1228450201F57D58
:10022000190202A9E4FF7E02122839703A90649004
:100230001211B80000000012286812283E50231244
:1002400005F8E4FF7E021228397011E4FF12283805
:10025000600512061180F47D1A02029C12284502E4
:1002600002377D1A0202A9E4FF7E04122839703E8B
:100270009064901211B80000000012286812283E05
:1002800050251205F8E4FF7E041228397013E4FFAC
:10029000122838600512061180F47D1B7F04022BA2
:1002A000B912284502027A7D1BE4FF122BB9906433
:1002B000CEE064016003020474FF12283870030268
:1002C000047490648C1211849064CA1211AC1228C8
:1002D0007212283B703B12285F12283E4011E47FC7
:1002E0005A12286112283E50067D167F01801DE4B7
:1002F000FF12283870030204E51204E640F190640E
:10030000CF1211B80000004B7D167F02122BB9806E
:10031000DE122835703B12285F12283E4011E47F20
:100320005A12286112283E50067D177F01801DE475
:10033000FF12283870030204E51204E640F19064CD
:10034000CF1211B80000004B7D177F02122BB9802D
:10035000DEE47F04122838703B12285F12283E40EA
:1003600011E47F5A12286112283E50067D187F0141
:10037000801DE4FF12283870030204E512052840AE
:10038000F19064CF1211B80000004B7D187F02126B
:100390002BB980DEE47F01122838703B12285F12EF
:1003A000283E4011E47F5A12286112283E50067DF3
:1003B000197F01801DE4FF12283870030204E51242
:1003C000052840F19064CF1211B80000004B7D1950
:1003D0007F02122BB980DEE4FF7E021228397044BE
:1003E00012285F12283E4011E47F5A122861122819
:1003F0003E50067D1A7F018026E4FF1228387003E4
:100400000204E5120583E47F5712286112283E405A
:10041000E89064CF1211B80000004B7D1A7F0212E1
:100420002BB980D5E4FF7E0412283960030204E56D
:1004300012285F12283E4011E47F5A1228611228C8
:100440003E50067D1B7F018026E4FF122838700392
:100450000204E5120583E47F5712286112283E400A
:10046000E89064CF1211B80000004B7D1B7F021290
:100470002BB980D59064CEE064017069FF122838F2
:1004800070639064CA12118412124404BF00000009
:100490000104BB0000000404B70000000804C3000E
:1004A00000020004C70000040004B30100000000C3
:1004B0000004CE7D1680127D17800E7D18800A7D87
:1004C0001980067D1A80027D1B7F03122BB9E490F0
:1004D00064CEF0A31211B8000000009064CA12119B
:0504E000B8000000005F
:1004E500227F0A7E001200429064CF121184EF240D
:1004F50001FFE43EFEE43DFDE43CFC9064CF1211B7
:10050500AC122AE3AF1BAE1AAD19AC1890648C126D
:1005150011ACE47F57FEFDFC9064CF1211A0C3120D
:100525001103227F0A7E001200429064CF121184CB
:10053500EF2401FFE43EFEE43DFDE43CFC9064CF86
:100545001211AC122AE3AF1BAE1AAD19AC189064A8
:100555008C1211ACE47F57FEFDFC9064CF1211A004
:10056500C3121103227F017E00120042122AE3AF5B
:100575001BAE1AAD19AC1890648C1211AC227F0A0F
:100585007E001200429064CF121184EF2401FFE433
:100595003EFEE43DFDE43CFC9064CF1211AC122A12
:1005A500E3AF1BAE1AAD19AC1890648C1211AC22D6
:1005B5007F017E00120042122AE3AF1BAE1AAD196D
:1005C500AC1890648C1211AC2275D9AA122AE3AF2B
:1005D5001BAE1AAD19AC1890648C1211AC2275D9EA
:1005E500AA122AE3AF1BAE1AAD19AC1890648C128F
:1005F50011AC227F017E00120042122AE3AF1BAE2E
:100605001AAD19AC1890648C1211AC2275D9AA12C6
:100615002AE3AF1BAE1AAD19AC1890648C1211AC5D
:0106250022B2
:10002D0078D2E254FBF2E24404F2907187E4F0D20C
:02003D0091220E
:102B030078D2E254EFF2E24410F2907188E4F07864
:0D2B1300D0E24404F208E24404F2D292221F
:102B200078C2E254FBF2E24404F290717FE4F07860
:0D2B3000C0E24402F208E24402F2C2812237
:102B3D0078E3E254EFF2E24410F2907194E4F0780D
:0D2B4D00E0E24440F208E24440F2C2A62259
:101BB6004164E1004264E200004164DE004164DF0A
:051BC600004164E00095
:082C9500789CE2541FF2E222D8
:102B720078F2E254FBF2E24404F278F0E24402F228
:082B8200907197E4F0D2B1223A
:1029AC00E5B154CF42B1789CE254F3F2E24414F214
:1029BC00E254FCF2E24401F208E2547FF2E24420D9
:1029CC00F278A07432F2087401F2789EE4F208F204
:0A29DC00122C9544A0F253A8BF226C
:0A2C5B00122C9544C0F243A8402259
:102C3000122C9544A0F2789EE4F208F253A8BF2229
:03002100021DB30A
:101DB300C0E0C083C082C0D075D000C000C006C0E0
:011DC3000718
:101DC400789DE220E703021E94E24480F29064E1ED
:101DD400E064016003021E949064DFE0FFC3740FAB
:101DE4009FFF7E007401A807088005C333CE33CE5D
:101DF400D8F9FF9064E2E05EFEA3E05F4E602190BC
:101E040064DEE014600E14600F1460102403702F5D
:101E1400D2B1802BD2B18027D2B18023C2B1801F2E
:101E24009064DEE014600E14600F146010240370DC
:101E34000ED2B1800AC2B18006C2B18002C2B19092
:101E440064DEE004F0E0C394044009A3E004F090ED
:101E540064DEE4F09064DFE0C394104014A3E07007
:101E64001004F09064DFE014F09064DE7403F080FA
:101E74001F9064DFE0C394104016A3E0B4011190F6
:101E840064DFE4F09064DEF09064E0F0A3F0D2B19B
:0F1E9400D007D006D000D0D0D082D083D0E0329B
:1025D0009064E2EEF0A3EFF0C2B1122C79E47F0137
:1025E000FEFDFC9064E51211A0C3121103500575A5
:1025F000D9AA80E9122C1FE49064E4F09064E512FB
:1026000011B800000000122C5B9064E17401F0909E
:1026100064E1E0600575D9AA80F5122C307F0A7E4E
:042620000002004272
:022BB900A9056C
:102BBB00EFC43354E0FCE9541F4CFCECF4FFEFFD85
:052BCB00AE040225D05C
:102BD00075AF3F8FAF75AEB975A402E5A520E105CD
:062BE00075D9AA80F6225F
:102970009064A112121575AF3F8FAF9064A4E0C3AD
:1029800094014027E5A520E00575D9AA80F690645A
:10299000A1E475F0011211FE121084F5A675AEB90E
:0C29A00075A4019064A4E014F080D02223
:102A20009064A11212159064A4E0602AAE070FEE24
:102A30002400FDE4343F8D82F583E493FE9064A18D
:102A4000E475F0011211FEEE12109D9064A4E014E2
:072A5000F075D9AA80D02225
:102879009064E97456F0A37478F0E4A3F0A3F0FF30
:10288900122BD07B017A6479E99064A47402F01266
:1028990029707B017A6479EB9064A47402F0122A9E
:0F28A900209064EBE0B45607A3E0B47802C2922B
:0128B80022FD
:0F1BCB004C60240000000000000000000000003B
:101CAC0090649012118474242FF582E43460F583CF
:101CBC00E4F090648C1211847808121114906490E2
:101CCC001211A090602675F004EB1211E9EA25E0E0
:101CDC0025E02583F5831211AC90648C1211847B62
:101CEC0001E4FEFDFCFAF9F8C302110390649412AE
:101CFC00118490602675F004EF1211E9EE25E025B1
:101D0C00E02583F58302118490649412118490640D
:101D1C0094EF2401FFE43EFEE43DFDE43CFC0211A3
:101D2C00AC906494E47F02FEFDFC1211A0C302117E
:101D3C000390649412118474242FF582E43460F5BA
:101D4C008322906490121184742E2FF582E43460F7
:101D5C00F58322906490121184906490EF2401FF1B
:101D6C00E43EFEE43DFDE43CFC0211AC90648C12BC
:101D7C001184E4FEFDFC7B032290648C12118478A8
:101D8C00080211149064900211847B017A6079240A
:101D9C00740CF0E4FF22E47F02FEFDFC22E0FFE481
:071DAC00FCFDFE906498228B
:1009650090648C1211B8000000009064901211B8C8
:10097500000000009064941211B800000000C2024B
:100985009064981211B80000000090649C1211B890
:1009950000000000122C799064E4E06401600875A1
:1009A500D9AA12275F80F0122C1FE49064E4F0901E
:1009B50064E51211B8000000009064A4121D96129F
:1009C5002A209063E6E07003020BECE4F07B017AE9
:1009D50064798C9064A71212151B7A0079009064D3
:1009E500AA1212150B7A6379F47F147E007D007CC0
:1009F5000012190E121CE5600D121D78F8C31211B4
:100A0500036003020BEC9064901211B80000000023
:100A1500906490121D304003020AA4906490121C49
:100A2500FBC004C005C006C007121D85A804A905A2
:100A3500AA06AB07D007D006D005D004C312110310
:100A45007051121CAC7008121D4E7401F08012908A
:100A5500648C1211847B03121CED7005121D4EE48B
:100A6500F09064941211B800000000121D2D502062
:100A7500121D90906494121D366010121CF8E4FB50
:100A8500121CF16006121D3DE004F0121D1480DBFE
:100A9500020BDE121D90906490121D1D020A159026
:100AA50064901211B800000000121DA2906490120B
:100AB5001D365069906490121D40E0705A90649004
:100AC500121CFBE4FB121CF1704D121CAC700812D9
:100AD5001D4E7401F0800D121D78121CF170051267
:100AE5001D4EE4F09064941211B800000000121D30
:100AF5002D5020121D90906494121D366010121C0A
:100B0500F8E4FB121CF16006121D3DE004F0121D15
:100B15001480DBD2028006121D5F020AAE3002038A
:100B2500020BDE9064901211B800000000121DA2A5
:100B3500906490121D365028906490121D40121D2D
:100B4500A9121D365015906490121D40121DA91250
:100B550011AC121D9090649C1211AC121D5F80CDDA
:100B6500121D8590649C1211A090602675F004EB0F
:100B75001211E9EA25E025E02583F5831211AC90F1
:100B8500649C121D40E4F0121CE5700B90649C12ED
:100B95001D517401F08010121D78121CF17008901F
:100BA500649C121D51E4F09064941211B800000089
:100BB50000121D2D502390649C1211849064941290
:100BC5001D366010121CF8E4FB121CF16006121DA4
:100BD5003DE004F0121D1480D8E4FF122BD0906480
:070BE500A4121D96122970F5
:010BEC0022E6
:102A5700E490648CF0F090648CE0FBC39402502403
:102A67009063E9121D88EB25E025E02426F582E432
:102A77003460F583121D3670037F012290648CE069
:062A870004F080D27F0084
:012A8D002226
:1029E6009064ED1211B800000000121DA29064ED73
:1029F600121D3650249064ED121D40E0FF7E001239
:102A060025D09064ED121CFB1225D09064ED1211B6
:092A1600849064ED121D6880D16A
:012A1F002294
:101BDA004263E700004463DE000000004463E20061
:101BEA000000004463ED000000004463E9000000C7
:101BFA00004263F10000605063F40000000000003E
:101C0A0000000000000000000000000000000000CA
:101C1A0000000000000000000000000000000000BA
:101C2A0000000000000000000000000000000000AA
:101C3A00000000000000000000000000000000009A
:101C4A00000000000000000000004163F30041634F
:071C5A00E6004263DC00001C
:10244D00E49063E2FEFDFC1211A0D3021103E490AF
:10245D0063EDFEFDFC1211A0C3021103FFEC9063AE
:10246D00E91211AC9063DCE475F0010210AFFF903E
:10247D0064A01211F58F828E8312113A9064B722E7
:10248D009063E9021184E0FEA3E0FFEE3395E0FDD9
:10249D00FC9064A3227890E2541FF2E2221211F50F
:0424AD00E94A4B228B
:1025760078D2E254BFF218E24408F2E5B854CF42EA
:10258600B843A804D2AF78D7E24408F278D4E2542C
:102596003FF2E5B154F342B17890E254F3F2E244EB
:1025A60014F2E254FCF2E24401F208E2547FF2E251
:1025B6004420F278947498F208E4F27892F208F2E1
:0A25C6001224A244A0F253A8DF2261
:03001E000226C3F4
:1026C300C0E0C0F0C083C082C0D075D000C000C0DD
:1026D30004C005C006C0077891E230E71DE24480DC
:1026E300F29063DE121184EF2401FFE43EFEE43D29
:1026F300FDE43CFC9063DE1211ACD007D006D0059C
:0F270300D004D000D0D0D082D083D0F0D0E0323C
:0A2C65001224A244C0F243A820226A
:102C40001224A244A0F27892E4F208F253A8DF2200
:030015000217B21D
:1017B200C0E0C0F0C083C082C0D075D000C000C0FD
:0D17C20001C002C003C004C005C006C0077E
:1017CF0078D6E29064C9F053A8FBE020E303021837
:1017DF00E99063DE30931D1211849063ED1211AC0A
:1017EF009063DE1211B8000000009063E7E4F0A3ED
:1017FF0004F080131211849063E21211AC9063DE37
:10180F001211B8000000009063E7E07002A3E070CF
:10181F00030218E99063E7E4F0A3F07F329063EDE1
:10182F0012245140030218B87F0112244D4034E4B2
:10183F007F0612244E502C7F0512245B4025E47F37
:10184F0014FEFDFC9063ED122454501712248DEFFB
:10185F0054FE1224699063DCE07004A3E064186006
:10186F00598036E47F059063E212245F403B7F147A
:10187F0012244D50347F0112245B402DE47F0A1255
:10188F00245C502512248DEF44011224699063DCEF
:10189F00E07004A3E06418602112248D7801121106
:1018AF00279063E91211AC80119063E91211B8000F
:1018BF000000009063DCE4F0A3F0C39063DDE094DC
:1018CF00189063DCE064809480400F9063F1E4F043
:1018DF00A304F09063DCE4F0A3F09064C9E078D641
:0418EF00F243A80414
:1018F300D007D006D005D004D003D002D001D00049
:0B190300D0D0D082D083D0F0D0E032F2
:0C190E009064A01212159064A31211AC9A
:10191A009064AD1211B80000000074FF9064B1F039
:10192A00A3F0A31211B8000000009064B71211B816
:10193A00000000009064BB1211B800000000E4909F
:10194A0064BFF0A3F0A3F0A3F09064A01224AA70DD
:10195A0003021A62E49064BFF0A3F09064BF1224F9
:10196A00931224545003021A2F9064BFE0FEA3E09E
:10197A007802C333CE33CED8F912247B1211AC903D
:10198A0064BB1211B800000000E49064C1F0A3F037
:10199A009064C112249312245440399064C1E0FE29
:1019AA00A3E07802C333CE33CED8F912247B1224B3
:1019BA006270199064BB121184EF2401FFE43EFEA9
:1019CA00E43DFDE43CFC9064BB1211AC9064C1128E
:1019DA00247480BC9064AD1211849064B71224629E
:1019EA00603A9064B31211849064BB122454402C60
:1019FA009064B71211849064AD1211AC9064BB125A
:101A0A0011849064B31211AC9064C2E024FFFE907A
:101A1A0064C1E034FF9064B1F0A3CEF09064BF12C9
:101A2A0024740219659064A71224AA600F9064AD09
:101A3A001211849064A71211F512116A9064AA1205
:101A4A0024AA60149064B1E0FEA3E0FFE4FCFD90D8
:081A5A0064AA1211F512116AD1
:011A62002261
:10275F009064A01211B8000000009063F1E07002C5
:10276F00A3E06028E49063F1F0A3F053A8FB1224D8
:10277F008D9063F3E0FB04F0EB25E025E024F4F506
:10278F0082E43463F5831211AC43A8049063F3E041
:0A279F00B41407E4F09063E604F0C0
:0127A900220D
:102ABC00E49064F9F0A3F0A3F09063F1E07002A34A
:102ACC00E06013E49063F1F0A3F053A8FD12248DA1
:062ADC001225D043A80200
:012AE20022D1
:071C61004464F100000000E3
:092C8300907108E0541FF0E022FA
:1028B900E5B254F342B2907108E054F3F0E04414E5
:1028C900F0E054FCF0E04401F0A3E0547FF0E04470
:1028D90020F053A9FD90710C7437F0A3743BF0906C
:0D28E900710AE4F0A3F0122C8344A0F02249
:0A2C6F00122C8344C0F043A9022296
:102C0E00122C8344A0F090710AE4F0A3F053A9FDB6
:012C1E002293
:030027000226248A
:10262400C0E0C0F0C083C082C0D075D000C000C07C
:1026340004C005C006C007907109E030E71DE044FE
:1026440080F09064F1121184EF2401FFE43EFEE473
:102654003DFDE43CFC9064F11211ACD007D006D0EF
:1026640005D004D000D0D0D082D083D0F0D0E032D6
:101C68004164D8004464D9000000004164DD0041AB
:031C780064D7002E
:1024B1007F0C9064F1E4FEFDFC0211A0E47F6E90BC
:1024C10064F5FEFDFC0211A09063E9121184EF5442
:1024D1003FFFE4AD07229064D8F09063E9121184C4
:1024E10078080211149064DDEFF09064D912118420
:1024F1009064F11211A01210C59064D91211AC9020
:1025010064F122E47F5A9064D9FEFDFC1211A0C34C
:03251100021103B1
:100E3F009063F1E07002A3E0603FE4FF9064D91289
:100E4F0024C3C312110370319064D8E0702B9063E8
:100E5F00F1F0A3F0122A57EF640160030210690446
:100E6F001224D7C006C0071224C9D007D006121605
:100E7F00229064DDEFF0022C6F7F4B9064D9122427
:100E8F00B6C31211034003020FA29063F1E0700288
:100E9F00A3E0602D1224B1D3121103502412106A53
:100EAF0060030210691224DBC006C0071224C9D0E8
:100EBF0007D0061216221224E61211B80000000005
:100ECF00221224B1D312110350030210699064D877
:060EDF00E070030210693F
:100EE500E4F0A31211B800000000122C0E9064F17A
:100EF5001211B8000000009064F51211B80000004E
:100F0500001200189064DDE09064D7F09063F1E082
:100F15007002A3E0603BE47F321224C0D3121103B8
:100F2500402F1224BDC312110350269064DDE0FD4D
:100F35009064D7E0B505157F04122BB97FDC7E00E0
:100F4500120042E49063F1F0A3F08048121078801B
:100F5500439063F1E07002A3E0600E1224BDD3124A
:100F650011034005121078802B9063F1E07002A305
:100F7500E070991224BED31211034090122C9D905B
:100F850064F51211B8000000009064D7E0FDE4FF9D
:0D0F9500122BB9E49064DDF09064D7F022D7
:100FA2009064D8E0640170327F4BA312250A402A74
:100FB200122504502574021224D7C006C007122439
:100FC200C9D007D0061216229064DDEFF0E0FD7F53
:100FD20001122BB99064D87403F09064D8E06403D2
:100FE200704D9063F1E07002A3E060431224B1D32C
:100FF200121103503A12106A706D1224DBC006C03F
:10100200071224C9D007D0061216221224E61211A2
:10101200B800000000122504404D9064DDE0FD7F21
:1010220002122BB99064D91211B80000004B22129F
:1010320024B1D3121103402F9064D8E06029906448
:10104200DDE0FD7F03122BB9E49064D8F0A3121106
:10105200B800000000122C0E9064F11211B80000CA
:071062000000E49064DDF0E2
:1010690022E49063F1F0A3F0122A57EF6401229071
:0B10790064D7E0FDE4FF122BB9E42275
:0B1C7B004164E4004464E50000000048
:092C8C00907100E0541FF0E022F9
:1028F600E5B254FC42B2907100E054F3F0E04414A7
:10290600F0E054FCF0E04401F0A3E0547FF0E04432
:1029160020F090710474E0F0A3741DF0907102E44D
:0D292600F0A3F0122C8C44A0F053A9FE2267
:0A2C7900122C8C44C0F043A9012284
:102C1F00122C8C44A0F0907102E4F0A3F053A9FEA3
:012C2F002282
:0300240002225D58
:10225D00C0E0C0F0C083C082C0D075D000C000C047
:10226D0001C002C003C004C005C006C007907101C3
:10227D00E030E740E04480F09064E5121184EF24F3
:10228D0001FFE43EFEE43DFDE43CFC9064E51211EB
:10229D00ACE47FE87E03FDFC9064E51211A0C3124F
:1022AD00110370109064E51211B8000000009064E5
:1022BD00E47401F0D007D006D005D004D003D002CD
:0F22CD00D001D000D0D0D082D083D0F0D0E0327A
:0B16220090648CEEF0A3EFF0A3EDF05D
:10162D00E4A3F0A37455F0E4A3F0F0906491E0FB13
:10163D00C39402503E90648CE0FEA3E0FFE4FCFDF9
:10164D00EB25E025E02426F582E43460F5831211C4
:10165D00A0C31211037014906491E0242EF582E45E
:10166D003460F583E0906490F08008906491E0041C
:10167D00F080B8906490E0FF706490648EE0121278
:10168D001E16B00116B30216B60316B80416BB0526
:10169D0016BE0616C70716D00816D90916E20A0097
:1016AD000017AC02173E0217468076021756021736
:1016BD005E90648F7406F00217AC90648F7407F01F
:1016CD000217AC90648F7408F00217AC90648F749D
:1016DD0009F00217AC90648F740AF00217ACEF6436
:1016ED000160030217AC90648EE012121E172E01DA
:1016FD00173602173E03174604174E0517560617E1
:10170D005E07176608176E0917760A177E0B178680
:10171D000C178E0D17960E179E0F17A6100000179B
:10172D00AC90648F7401F0807690648F740BF080B0
:10173D006E90648F7402F0806690648F7403F080F5
:10174D005E90648F740CF0805690648F7404F080FA
:10175D004E90648F7405F0804690648F740DF08008
:10176D003E90648F740EF0803690648F740FF0800D
:10177D002E90648F7410F0802690648F7411F08019
:10178D001E90648F7412F0801690648F7413F08025
:10179D000E90648F7414F0800690648F7415F09021
:0417AD00648FE0FF66
:0117B1002215
:071C86004464F500000000BA
:102B8A0043A90475D11075E6F075E70575DABC75C9
:082B9A00DF20E4F5DED2AF22DA
:0400180075DE01226E
:072C9D00E4F5DE75D1102201
:03002A0002271298
:10271200C0E0C0F0C083C082C0D075D000C000C08D
:1027220004C005C006C007E5EE30E51C43E2209078
:1027320064F5121184EF2401FFE43EFEE43DFDE462
:102742003CFC9064F51211ACD007D006D005D00441
:0D275200D000D0D0D082D083D0F0D0E032C3
:101C8D0041604801426049000041604B0041604C99
:0E1C9D000041604D0041604E7F42604FFFFFEE
:10293300E4F561AE3EAD3DAC3C853F178E168D157B
:102943008C14787EE254FCF2E24514F218E515F299
:1029530018E516F218E517F2787FE254FBF2E25419
:0D296300FB4404F2E24401F27F010221D99D
:100BED00906496EFF0E0FF2450F582E43464F583D1
:100BFD00E004F0745C2FF582E43464F583E4F07462
:100C0D00502FF582E43464F583E0C39563500302FD
:100C1D000E3E906496E0FB2450F582E43464F58337
:100C2D00E4F0902A9F9364016003020DEF7F01FEB3
:100C3D00FDFC74622BF582E43464F583E0F9F8125F
:100C4D001127E51F4FF51FE51E4EF51EE51D4DF550
:100C5D001DE51C4CF51CAF1FAE1EAD1DFC78011221
:100C6D001114EF5455FBEE5455FAED5455F9EC545F
:100C7D0055F8C3E51F9BF53BE51E9AF53AE51D9921
:100C8D00F539E51C98F538AF3BAE3AAD39FC780235
:100C9D00121114EF5433FBEE5433FAED5433F9ECD7
:100CAD005433F8E53B5433FFE53A5433FEE53954FC
:100CBD0033FDE5385433FCEB2FF53BEA3EF53AE9CD
:100CCD003DF539E83CF538AF3BAE3AAD39FC78042B
:100CDD00121114EF253BFFEE353AFEED3539FDECE3
:100CED003538FCEF540FF53BEE540FF53AED540F3C
:100CFD00F539EC540FF538AF3BAE3AAD39FC780809
:100D0D00121114EF253BFFEE353AED3539FDEC357B
:100D1D0038EFF53BE4F53AEDF539E4F538AE3AAC9C
:100D2D00387810121114EF253BFFEE353AFEEFF532
:100D3D003BEEF53AE4F539F538906496E025E0247C
:100D4D0068F582E43464F583E0FEA3E0D39553EEB9
:100D5D0095524024906496E0FF25E02468F582E4E6
:100D6D003464F583E0F552A3E0F55374622FF582F8
:100D7D00E43464F583E0F564902A9FE493FFE4FC8A
:100D8D00FDFEAB3BAA3AA939A838D3121103405244
:100D9D00AF650565D3EF9403748094805003020E04
:100DAD003EE4F565F51FF51EF51DF51C7F01FEFDF5
:100DBD00FCA964A8011211278F1B8E1A8D198C188E
:100DCD00E47F01FEFDFCA8011211278F338E328DB9
:100DDD00318C30E4F552F5537564201222DC433723
:100DED000222E4F5657F01FEFDFC906496E0FB2494
:100DFD0062F582E43464F583E0F9F8121127E51BFE
:100E0D004FF51BE51A4EF51AE5194DF519E5184C78
:100E1D00F518E47F01FEFDFCA803121127E5334F01
:100E2D00F533E5324EF532E5314DF531E5304CF522
:020E3D00302261
:10062600E4F566902AA3E493FFE566C39F400302C0
:100636000964E56625E02400F582E4346085828A53
:100646007F548F8B7E0E8E8C758903758889E5663F
:1006560025E02400F582E4346085828A8F8B758CD0
:1006660012758904758889E56625E02418F582E403
:100676003460F583E0FCA3E0C3950FEC950E502E95
:10068600E56625E0243CF582E43460F583E0FCA3CE
:10069600E0C39513EC95125015AF600560EF940218
:1006A60074809480400BE4F5605337FD8003E4F5D5
:1006B60060E53730E125E56625E02468F582E43417
:1006C60064F583E4F0A3F0E56625E02474F582E49E
:1006D6003464F583E4F0A3F0020774E56625E024AC
:1006E60018F582E4346085828A8E8B758C0A75894A
:1006F600267588892088FDE5F130E00875F107E464
:10070600F50AF50BAE0AE50B7802C333CE33CED825
:10071600F9FFE56625E02468F582E43464F583EEA6
:10072600F0A3EFF0E56625E0243CF582E43460852D
:10073600828A758B12758C0A758927758889208837
:10074600FDE5F130E00875F107E4F50AF50BAE0AB0
:10075600E50B7802C333CE33CED8F9FFE56625E044
:100766002474F582E43464F583EEF0A3EFF0E566D5
:1007760025E02480F582E43464F583E0FEA3E07886
:1007860002CEC313CE13D8F9F5518E50E56625E097
:100796002468F582E43464F583E0FEA3E0FF902A42
:1007A6009BE493FC740193FDC3EF9DEE9C4017E51B
:1007B6006625E02474F582E43464F583E0FEA3E064
:1007C600C39DEE9C50028068E56625E02468F582AC
:1007D600E43464F583E0FEA3E0C39551EE95504002
:1007E6001CE56625E02474F582E43464F583E0FEB6
:1007F600A3E0C39551EE9550400302088074562538
:1008060066F582E43464F583E004F074562566F5F3
:1008160082E43464F583E0FF902AA0E493FEEFD3EC
:100826009E406474562566F582E43464F583E4F0EC
:10083600E56625E0240CF582E43460F583E0FEA34A
:10084600E0FFE56625E02418F582E43460F583EEE2
:10085600F0A3EFF0E56625E02430F582E43460F598
:1008660083E0FEA3E0FFE56625E0243CF582E43460
:1008760060F583EEF0A3EFF0800D74562566F582E1
:10088600E43464F583E4F0E56625E0240CF582E4BF
:10089600346085828AE56625E02400F582E43460CA
:1008A60085828B758C0A7589207588CB2088FDE535
:1008B600F130E00875F107E4F50AF50BE56625E089
:1008C600240CF582E4346085828A758B547F0E8F02
:1008D6008C7589237588897E0A8E8A8F8BE56625B5
:1008E600E0240CF582E4346085828CE4F589758811
:1008F60029E56625E02430F582E4346085828AE5C0
:100906006625E02400F582E4346085828B8E8C7542
:1009160089207588CB2088FDE5F130E00875F10760
:10092600E4F50AF50BE56625E02430F582E434604B
:1009360085828A758B547F0E8F8C7589247588897C
:10094600758A0A8F8BE56625E02430F582E43460EB
:0F09560085828CE4F589758829056602062922B9
:1012B400E4F566902AA3E493FFE566C39F40030226
:1012C400146CE56625E02480F582E43464F583E05B
:1012D400FEA3E07802CEC313CE13D8F9F5518E5095
:1012E400E56625E02468F582E43464F583E0FEA332
:1012F400E0D39551EE9550402EE56625E02474F533
:1013040082E43464F583E0FEA3E0D39551EE955076
:101314004015745C2566F582E43464F583E4F0AF2B
:1013240066120BED021467902AA2E493FFC3E55101
:101334009FFFE5509400FED3EF9400EE940040022A
:1013440080047E007F00E56625E02468F582E434AD
:1013540064F583E0FCA3E0C39FEC9E400302145AAF
:10136400902AA2E493FFC3E5519FFFE5509400FE49
:10137400D3EF9400EE9400400280047E007F00E5E9
:101384006625E02474F582E43464F583E0FCA3E08C
:10139400C39FEC9E400302145A74502566F582E400
:1013A4003464F583E4F0745C2566F582E43464F512
:1013B40083E004F0745C2566F582E43464F583E02C
:1013C400C395635003021467745C2566F582E434A4
:1013D40064F583E4F07F01FEFDFC74622566F5820A
:1013E400E43464F583E0F9F81211271210D2E51FF2
:1013F4005FF51FE51E5EF51EE51D5DF51DE51C5C34
:10140400F51CE47F01FEFDFCA966A8011211271258
:1014140010D2E5335FF533E5325EF532E5315DF543
:1014240031E5305CF530E47F01FEFDFC7462256635
:10143400F582E43464F583E0F9F81211271210D22E
:10144400E51B5FF51BE51A5EF51AE5195DF519E56F
:10145400185CF518800D745C2566F582E43464F537
:0914640083E4F005660212B722D0
:1022DC00E4F566902AA3E493FFE566C39F506EE590
:1022EC006625E02468F582E43464F583E4F0A3F019
:1022FC00E56625E02474F582E43464F583E4F0A308
:10230C00F0E56625E0240CF582E43460F583E0FE0C
:10231C00A3E0FFE56625E02418F582E43460F5833C
:10232C00EEF0A3EFF0E56625E02430F582E43460AE
:10233C00F583E0FEA3E0FFE56625E0243CF582E4AE
:0E234C003460F583EEF0A3EFF0056680862284
:1020B400E4F566902AA3E493FFE566C39F50679016
:1020C4006048E0FF7E00C39410748094805053EF06
:1020D4009408748094804025E56625E02400F58208
:1020E400E43460F583E0FEA3E0FFE56625E0240C1C
:1020F400F582E43460F583EE8FF01210AFE56625C7
:10210400E02400F582E43460F583E0FEA3E0FFE51B
:102114006625E02430F582E43460F583EE8FF01216
:1021240010AF0566808D906048E0C394107480946D
:102134008040054337048006906048E004F07F0146
:032144000221D99C
:10235A00E4FFFEFDFCAB1BAA1AA919A818C31211A7
:10236A0003606390604AE004F07006906049E004FC
:10237A00F0902A97E493FE740193FF4E602ED39057
:10238A00604AE09F906049E09E4021E4F0A3F0F5A6
:10239A001FF51EF51DF51CF533F532F531F530F54F
:1023AA001BF51AF519F518C2010222DC902A99E4E4
:1023BA0093FE740193FFD390604AE09F906049E0D6
:0D23CA009E400AD20122E4906049F0A3F089
:0123D70022E3
:05146D009064C4EFF0E3
:10147200A3E0FCA3E0FDA3E0FEA3E0F5288E278D08
:10148200268C257884E2F50A08E2F50B758A087540
:101492008B25758C2175881D2088FDE4FFFEFDFCDF
:1014A200AB24AA23A922A821D31210ED4006AC2115
:1014B200A8048013AF24AE23AD22AC211210DFABFF
:1014C20007AA06A905A80490604FE0FEA3E0FFE486
:1014D200FCFDC31210ED5041E4FFFEFDFCAB24AA5B
:1014E20023A922A8211210ED4006AF24AE23800BBF
:1014F200AF24AE23AD22AC211210DF90604FEEF08C
:10150200A3EFF09064C4E025E02444F582E434645F
:10151200F583E0A3E090604EF0902A94E493FE7489
:101522000193FFD3906050E09F90604FE09E501B6C
:101532009064C4E025E02444F582E43464F583E059
:10154200A3E090604EF090604B8079E4FFFEFDFCDA
:10155200AB24AA23A922A821D31210ED403490640F
:10156200C4E0FF25E02444F582E43464F583E0FC22
:10157200A3E0D39400EC9400404DEF25E02444F521
:1015820082E43464F58374FFF5F01210AF90604C7E
:1015920080329064C4E0FF25E02444F582E43464A0
:1015A200F583E0FCA3E0C3947FEC94005019EF258F
:1015B200E02444F582E43464F583E475F00112100A
:1015C200AF90604D7401F090604CE064017011A323
:1015D200E06401700B90604CF0A3F090604B04F05B
:1015E20090604BE06401703590604EE0FF9064C4FF
:1015F200E025E02444F582E43464F583E4F0A3EFCB
:10160200F074FF90604FF0A3F090604E747FF0E4AE
:0F16120090604CF0A3F090604BF07F01227F00BE
:0116210022A6
:10251400E49064C3F0902A8E12119078011211276E
:102524009064C51211ACAF6112146DEF60220561A5
:10253400E53730E4095337EF9064C37401F0902A0F
:10254400A3E493FFE561C39F4006E4F561433710BC
:10255400C3902A927401939562E493940040089086
:1025640064C3E064017005D200022933E4FF122140
:01257400D98D
:012575002243
:1021D900EF70607F01FEFDFC74622561F582E434D5
:1021E90064F583E0F9F81211278F178E168D158C77
:1021F90014787EE254FCF2E24514F218E515F2185F
:10220900E516F218E517F2E56125E02444F582E4C4
:102219003464F583E0A3E0547FFF7878E254804F7B
:10222900F2787FE254FBF2E254FB4404F2E2440107
:10223900F2801CE56125E02444F582E43464F583E9
:10224900E0A3E0547FFF7878E254804FF2787FE290
:042259004402F22227
:101F7F00E490648CF0A3F090648CE0FEA3E0FFC3C8
:101F8F009488EE94035031EF2426FFEE34068F82AF
:101F9F00F583E493FF90648DE02451FD90648CE011
:101FAF0034608D82F583EFF090648DE004F070C79C
:081FBF0090648CE004F080BF87
:101FC7009063D97401F0A37460F0A37451F0E4F541
:101FD70061F537F536F535F534C200C201F51FF561
:101FE7001EF51DF51CF533F532F531F530F51BF50A
:101FF7001AF519F518902A9D93FF902AA1E493FEEC
:10200700A807088002C333D8FCF563756420E4FF92
:032017000221D9CA
:1023D8007884E2F50A08E2F50BAE0A7803CEC31357
:1023E800CE13D8F97802C333CE33CED8F9FFE561DE
:1023F80025E02400F582E43460F583EEF0A3EFF0E5
:1024080020000F902A96E4937005D2000229330227
:1024180025140561902AA3E493FFE561C39F401F3B
:10242800787FE254FBF2E254FB4404F2E24401F206
:10243800E4F561E53720E2030220B4433701227F47
:05244800011221D92260
:05000F00056202235A06
:102AE300E53730E01A9063D9A3E0FAA3E0F91212B4
:102AF3007E1212B4E4F5617F011221D95337FE220D
:10203400022BFBE493A3F8E493A34003F68001F29C
:1020440008DFF48029E493A3F85407240CC8C333AD
:10205400C4540F4420C8834004F456800146F6DF7C
:10206400E4800B0102040810204080901B9FE47E52
:10207400019360BCA3FF543F30E509541FFEE49371
:10208400A360010ECF54C025E060A840B8E493A338
:10209400FAE493A3F8E493A3C8C582C8CAC583CA63
:1020A400F0A3C8C582C8CAC583CADFE9DEE780BE1B
:011CAB000038
:10108400BB010689828A83E0225002E722BBFE026A
:09109400E32289828A83E493229D
:10109D00BB010689828A83F0225002F722BBFE0132
:0210AD00F3222C
:1010AF00C5F0F8A3E028F0C5F0F8E58215827002CC
:0610BF001583E038F02269
:0D10C500EF2BFFEE3AFEED39FDEC38FC227A
:0D10D200CFF4CFCEF4CECDF4CDCCF4CC22B3
:0E10DF00C3E49FFFE49EFEE49DFDE49CFC2222
:1010ED00EB9FF5F0EA9E42F0E99D42F0EC6480C87A
:0610FD0064809845F0221A
:10110300EB9FF5F0EA9E42F0E99D42F0E89C45F042
:0111130022B9
:10111400E8600FECC313FCED13FDEE13FEEF13FFB9
:03112400D8F122DD
:10112700E8600FEFC333FFEE33FEED33FDEC33FC26
:03113700D8F122CA
:10113A00BB010DE58229F582E5833AF58302118424
:10114A005007E92582F8021284BBFE07E92582F8D6
:10115A00021290E58229F582E5833AF5830211901D
:10116A00BB010789828A830211AC5005E9F8021291
:0A117A009CBBFE05E9F80212A82252
:0C118400E0FCA3E0FDA3E0FEA3E0FF22DE
:10119000E493FC740193FD740293FE740393FF22A5
:0C11A000E0F8A3E0F9A3E0FAA3E0FB22D2
:0C11AC00ECF0A3EDF0A3EEF0A3EFF022B6
:1011B800A8828583F0D083D0821211CF1211CF126A
:1011C80011CF1211CFE473E493A3C583C5F0C5838F
:1011D800C8C582C8F0A3C583C5F0C583C8C582C881
:0111E80022E4
:0C11E900A42582F582E5F03583F5832211
:0911F500E0FBA3E0FAA3E0F922FB
:1011FE00F8E0FBA3A3E0F925F0F0E582158270027A
:07120E001583E0FA38F0221D
:09121500EBF0A3EAF0A3E9F022DA
:10121E00D083D082F8E4937012740193700DA3A35F
:10122E0093F8740193F5828883E473740293686073
:06123E00EFA3A3A380DF73
:10124400D083D082E4937012740193700DA3A3939E
:10125400F8740193F5828883E4737402936C7012BA
:101264007403936D700C7404936E70067405936F1D
:0A12740060DDA3A3A3A3A3A380CA17
:06127E008A838982E473FB
:0C128400E6FC08E6FD08E6FE08E6FF2296
:0C129000E2FC08E2FD08E2FE08E2FF229A
:0C129C00ECF608EDF608EEF608EFF6227E
:0C12A800ECF208EDF208EEF208EFF22282
:00000001FF
