:030000000220BC1F
:1020BC00787FE4F6D8FD9060007F007E07E4F0A303
:0A20CC00DFFCDEFA758166022111C7
:0C000300000000000000000000000000F1
:0B2C5C00EF1FAC0670011E4C70F6224A
:10004200AB07AA06EB1BAE0270011A4E600C75D903
:0B005200AA7F747E04122C5C80EA225E
:101F4500907120E04480F07F057E00122C5CE4FF58
:101F5500FE12004275A75575AC5C9071327450F055
:101F65009071307403F0907136742FF090715C7439
:101F750003F090715BE054FCF07F18EF2466FDE4FC
:101F850034718D82F583E4F00FEFB433EE90401198
:101F9500E4935407FF90711CE054F84FF0904017FC
:101FA500E493547FFF90711DE054804FF0904010F2
:101FB500E493FF5401C43333335480FE907123E01E
:101FC500547F4EF0EFC313543F4440FFA3E05480C9
:101FD5004FF0904012E493FF540FFE907146E05489
:101FE500F04EF0EFC4540FFF90714FE054F04FF0F6
:101FF500904013E493543FFF907140E054C04FF07C
:10200500904014E493907126F0904015E4939071FC
:0B20150028F0904016E49390712AF030
:01202000229D
:102ABB00000009C4006400C80101F4004B000A00C7
:102ACB0000010F0405060000003200020032000373
:0E2ADB00003200090032000A00320018004BE1
:102B9500E2FE74602FF582E43464F583E02224FCC0
:082BA50025E0FDF8740308228D
:101AFD00E4FF122B97C394085058122B97C39404EC
:101B0D00502878C2C000122B95122BA58002C3332A
:101B1D00D8FCF45ED000F278C2C000122B95122BC7
:101B2D00A58002C333D8FC021C2B78C3C000122B36
:101B3D0095122BA38002C333D8FCF45ED000F2784B
:101B4D00C3C000122B95122BA38002C333D8FC0205
:101B5D001C2B122B97C394084068122B97C394101B
:101B6D005060122B97C3940C502C78D2C000122BBE
:101B7D009524F8122BA58002C333D8FCF45ED00057
:101B8D00F278D2C000122B9524F8122BA58002C337
:101B9D0033D8FC021C2B78D3C000122B9524F412E1
:101BAD002BA58002C333D8FCF45ED000F278D3C0ED
:101BBD0000122B9524F4122BA58002C333D8FC02FE
:101BCD001C2B122B97C39414502B78E2C000122BB0
:101BDD009524F0122BA58002C333D8FCF45ED000FF
:101BED00F278E2C000122B9524F0122BA58002C3CF
:101BFD0033D8FC802978E3C000122B9524EC122BEE
:101C0D00A58002C333D8FCF45ED000F278E3C000A7
:101C1D00122B9524EC122BA58002C333D8FC4ED089
:0B1C2D0000F20FEF64066003021AFFD4
:011C38002289
:03005D0002273A3D
:10273A00C0E0C0F0C083C082C0D075D000C000C065
:10274A0001C002C003C004C005C006C0077881E208
:10275A0030E607E24440F212247AD007D006D005C8
:10276A00D004D003D002D001D000D0D0D082D08300
:05277A00D0F0D0E032B8
:10265800D2AF43AB0843B6C0907132E04440F04378
:10266800AB087877743FF208744BF2787A7430F2DA
:10267800788914F27871744FF2187427F2787274AA
:10268800A8F2087410F208E4F208F208F2787E74EE
:0F269800D0F2087404F208741EF2087402F222E1
:03003F000226F4A2
:1026F400C0E0C0F0C083C082C0D075D000C000C0AC
:1027040001C002C003C004C005C006C007907153D5
:10271400E030E707E04480F0122CA6D007D006D0C2
:1027240005D004D003D002D001D000D0D0D082D0C4
:0627340083D0F0D0E0327A
:1021E900E4FBEB25E025E024D1F582E4342AF583EC
:1021F900740193FF74602BF582E43464F583EFF086
:10220900EB25E025E024D3F582E4342AF583E49331
:10221900FE740193FFEB25E0247EF582E43464F536
:1022290083EEF0A3EFF0EB25E02442F582E4346479
:10223900F583E4F0A3744BF0E47F01FEFDFC7460C8
:102249002B122B9AF9F8121155E53F4FFFE53E4E37
:10225900FEE53D4DFDE53C4C8F3F8E3E8D3DF53C09
:102269000BEB640660030221EB121AFD1220210216
:022279002658E5
:102A8A00122B6012000F122BAD12296F12287E1220
:102A9A002841122BC51221E9120983122AE91200D0
:102AAA0060120C0E300205C2021221E975D9AA8001
:012ABA00EA31
:102C0A00121F4575D95590715EE054FEF075D9BB17
:032C1A00022A8A01
:101C39004264E000004464D5000000004164D9001A
:071C49004464DA0000000012
:10277F007F08E4FEFDFC90648A1211CEC302113172
:10278F0090648E1211B2EF2401FFE43EFEE43DFD92
:10279F00E43CFC90648E0211DAE47F4BFEFDFC906A
:1027AF0064DA22E47F64FEFDFC90648E22E4FFFE77
:0427BF00FD7C01227A
:10006000AF1BAE1AAD19AC1890648A1211DA906405
:100070008E1211E600000000E4906492F0A3F0FFFD
:10008000FEFDFCAB1BAA1AA919A818C312113160F6
:1000900003122C4F90648A1211B2EC4D4E4F700334
:1000A0000202C39064D9E060030202C37F4BFEFDED
:1000B000FCA312278840030202C390648E1211E64B
:1000C000000000007F207EA17D077C0090648E12DE
:1000D000278850497F0A7E00120042122AE9AF1B8E
:1000E000AE1AAD19AC1812278570329064DA12116D
:1000F000B2EF2401FFE43EFEE43DFDE43CFC9064ED
:10010000DA1211DA1227A81211CED31211314008D7
:100110009064D97401F0800512278F80A71227A858
:100120001211CED312113140099064D97401F0023A
:1001300002C39064DA1211E6000000001227BC121C
:100140002785703990648E1211E600000000122796
:10015000B2122788502212057F1227BC1227857001
:1001600011E4FF12278260051205CA80F47D160291
:1001700002B112278F02014E7D160202BE12277FA6
:10018000703690648E1211E6000000001227B21241
:100190002788501F12057F12277F7011E4FF122756
:1001A0008260051205CA80F47D170202B112278F02
:1001B00002018C7D170202BE7F04122781703990E4
:1001C000648E1211E6000000001227B21227885038
:1001D000221205E2E47F041227827011E4FF122745
:1001E0008260051205FB80F47D180202B112278F90
:1001F0000201C97D180202BEE47F01122782703914
:1002000090648E1211E6000000001227B2122788B7
:1002100050221205E2E47F011227827011E4FF12DE
:10022000278260051205FB80F47D190202B11227B6
:100230008F02020A7D190202BEE4FF7E02122783AA
:10024000703A90648E1211E6000000001227B2127C
:1002500027885023120613E4FF7E021227837011B1
:10026000E4FF122782600512062C80F47D1A020238
:10027000B112278F02024C7D1A0202BEE4FF7E04F7
:10028000122783703E90648E1211E6000000001267
:1002900027B21227885025120613E4FF7E04122786
:1002A000837013E4FF122782600512062C80F47D10
:1002B0001B7F04022BDD12278F02028F7D1BE4FFC0
:1002C000122BDD9064D9E064016003020489FF12FF
:1002D0002782700302048990648A1211B29064D557
:1002E0001211DA1227BC122785703B1227A9122798
:1002F000884011E47F5A1227AB12278850067D16DA
:100300007F01801DE4FF12278270030204FA1204A9
:10031000FB40F19064DA1211E60000004B7D167F7D
:1003200002122BDD80DE12277F703B1227A91227D5
:10033000884011E47F5A1227AB12278850067D1798
:100340007F01801DE4FF12278270030204FA120469
:10035000FB40F19064DA1211E60000004B7D177F3C
:1003600002122BDD80DEE47F04122782703B12270D
:10037000A91227884011E47F5A1227AB1227885010
:10038000067D187F01801DE4FF122782700302049E
:10039000FA12053D40F19064DA1211E60000004BBC
:1003A0007D187F02122BDD80DEE47F011227827030
:1003B0003B1227A91227884011E47F5A1227AB125B
:1003C000278850067D197F01801DE4FF1227827067
:1003D000030204FA12053D40F19064DA1211E600BE
:1003E00000004B7D197F02122BDD80DEE4FF7E02D0
:1003F00012278370441227A91227884011E47F5ADC
:100400001227AB12278850067D1A7F018026E4FF51
:1004100012278270030204FA120598E47F5712270C
:10042000AB12278840E89064DA1211E60000004B16
:100430007D1A7F02122BDD80D5E4FF7E0412278314
:1004400060030204FA1227A91227884011E47F5A98
:100450001227AB12278850067D1B7F018026E4FF00
:1004600012278270030204FA120598E47F571227BC
:10047000AB12278840E89064DA1211E60000004BC6
:100480007D1B7F02122BDD80D59064D9E064017062
:1004900069FF12278270639064D51211B212127232
:1004A00004D40000000104D00000000404CC0000CB
:1004B000000804D80000020004DC0000040004C8A6
:1004C00001000000000004E37D1680127D17800EFD
:1004D0007D18800A7D1980067D1A80027D1B7F03AE
:1004E000122BDDE49064D9F0A31211E600000000A5
:0A04F0009064D51211E60000000030
:1004FA00227F0A7E001200429064DA1211B2EF24BF
:10050A0001FFE43EFEE43DFDE43CFC9064DA121196
:10051A00DA122AE9AF1BAE1AAD19AC1890648A1226
:10052A0011DAE47F57FEFDFC9064DA1211CEC31291
:10053A001131227F0A7E001200429064DA1211B24F
:10054A00EF2401FFE43EFEE43DFDE43CFC9064DA66
:10055A001211DA122AE9AF1BAE1AAD19AC1890645F
:10056A008A1211DAE47F57FEFDFC9064DA1211CE8A
:10057A00C3121131227F017E00120042122AE9AF12
:10058A001BAE1AAD19AC1890648A1211DA227F0ACE
:10059A007E001200429064DA1211B2EF2401FFE4E5
:1005AA003EFEE43DFDE43CFC9064DA1211DA122AC4
:1005BA00E9AF1BAE1AAD19AC1890648A1211DA228F
:1005CA0075D9AA122C4F122AE9AF1BAE1AAD19AC73
:1005DA001890648A1211DA227F017E0012004212F8
:1005EA002AE9AF1BAE1AAD19AC1890648A1211DA57
:1005FA002275D9AA122C4F122AE9AF1BAE1AAD19CD
:10060A00AC1890648A1211DA227F017E001200422D
:10061A00122AE9AF1BAE1AAD19AC1890648A1211EE
:10062A00DA2275D9AA122C4F122AE9AF1BAE1AADDB
:0A063A0019AC1890648A1211DA223C
:10002D0078D2E254FBF2E24404F2907187E4F0D20C
:02003D0091220E
:102B090078D2E254EFF2E24410F2907188E4F0785E
:0D2B1900D0E24404F208E24404F2D2922219
:102B260078C2E254FBF2E24404F290717FE4F0785A
:0D2B3600C0E24402F208E24402F2C2812231
:102B430078E3E254EFF2E24410F2907194E4F07807
:0D2B5300E0E24440F208E24440F2C2A62253
:101C50004164EC004264ED00004164E9004164EA43
:051C6000004164EB00EF
:082C9700789CE2541FF2E222D6
:102BAD0078F2E254FBF2E24404F278F0E24402F2ED
:082BBD00907197E4F0D2B122FF
:10296F00E5B154CF42B1789CE254F3F2E24414F251
:10297F00E254FCF2E24401F208E2547FF2E2442016
:10298F00F278A07432F2087401F2789EE4F208F241
:0A299F00122C9744A0F253A8BF22A7
:0A2C6700122C9744C0F243A840224B
:102C3F00122C9744A0F2789EE4F208F253A8BF2218
:03002100021E5567
:101E5500C0E0C083C082C0D075D000C000C006C03D
:011E65000775
:101E6600789DE220E703021F36E24480F29064EC9C
:101E7600E064016003021F369064EAE0FFC3740F5A
:101E86009FFF7E007401A807088005C333CE33CEBA
:101E9600D8F9FF9064EDE05EFEA3E05F4E6021900E
:101EA60064E9E014600E14600F1460102403702FB0
:101EB600D2B1802BD2B18027D2B18023C2B1801F8C
:101EC6009064E9E014600E14600F1460102403702F
:101ED6000ED2B1800AC2B18006C2B18002C2B190F0
:101EE60064E9E004F0E0C394044009A3E004F09040
:101EF60064E9E4F09064EAE0C394104014A3E0704F
:101F06001004F09064EAE014F09064E97403F08041
:101F16001F9064EAE0C394104016A3E0B401119048
:101F260064EAE4F09064E9F09064EBF0A3F0D2B1D7
:0F1F3600D007D006D000D0D0D082D083D0E032F8
:1025B4009064EDEEF0A3EFF0C2B1122C7BE47F0146
:1025C400FEFDFC9064F01211CEC31211315005755A
:1025D400D9AA80E9122C2EE49064EFF09064F012F2
:1025E40011E600000000122C679064EC7401F09076
:1025F40064ECE0600575D9AA80F5122C3F7F0A7E51
:04260400000200428E
:022BDD00A90548
:102BDF00EFC43354E0FCE9541F4CFCECF4FFEFFD61
:052BEF00AE040225B454
:102BF40075AF3F8FAF75AEB975A402E5A520E105A9
:062C040075D9AA80F6223A
:1028F80090649F12124375AF3F8FAF9064A2E0C3FC
:1029080094014027E5A520E00575D9AA80F69064D2
:102918009FE475F00112122C1210B2F5A675AEB92B
:0C29280075A4019064A2E014F080D0229D
:102A1C0090649F1212439064A2E0602AAE070FEEFE
:102A2C002400FDE4343F8D82F583E493FE90649F93
:102A3C00E475F00112122CEE1210CB9064A2E0148B
:072A4C00F075D9AA80D02229
:1027C3009064F47456F0A37478F0E4A3F0A3F0FFDC
:1027D300122BF47B017A6479F49064A27402F012F0
:1027E30028F87B017A6479F69064A27402F0122AC5
:0F27F3001C9064F6E0B45607A3E0B47802C292DB
:0128020022B3
:0F1C65004C6024000000000000000000000000A0
:101D4E0090648E1211B274242FF582E43460F58300
:101D5E00E4F090648A1211B2780812114290648EE7
:101D6E001211CE90602675F004EB121217EA25E0E0
:101D7E0025E02583F5831211DA90648A1211B27B65
:101D8E0001E4FEFDFCFAF9F8C302113190649212DF
:101D9E0011B290602675F004EF121217EE25E025B1
:101DAE00E02583F5830211B29064921211B2906411
:101DBE0092EF2401FFE43EFEE43DFDE43CFC021103
:101DCE00DA906492E47F02FEFDFC1211CEC3021182
:101DDE00319064921211B274242FF582E43460F5BE
:101DEE00832290648E1211B2742E2FF582E4346029
:101DFE00F5832290648E1211B290648EEF2401FF4F
:101E0E00E43EFEE43DFDE43CFC0211DA90648A12ED
:101E1E0011B2E4FEFDFC7B032290648A1211B278AB
:101E2E000802114290648E0211B27B017A6079240D
:101E3E00740CF0E4FF22E47F02FEFDFC22E0FFE4DE
:071E4E00FCFDFE90649622EA
:1009830090648A1211E60000000090648E1211E652
:10099300000000009064921211E600000000C20300
:1009A3009064961211E60000000090649A1211E61A
:1009B30000000000122C7B9064EFE06401600B7573
:1009C300D9AA122803122C4F80ED122C2EE4906426
:1009D300EFF09064F01211E6000000009064A212A0
:1009E3001E38122A1C9063E4E07003020C0DE4F03D
:1009F3007B017A64798A9064A51212431B7A007989
:100A0300009064A81212430B7A6379F27F147E007C
:100A13007D007C0012199E121D87600D121E1AF8AC
:100A2300C31211316003020C0D90648E1211E600A3
:100A330000000090648E121DD24003020AC5906428
:100A43008E121D9DC004C005C006C007121E27A834
:100A530004A905AA06AB07D007D006D005D004C366
:100A63001211317051121D4E7008121DF07401F0F5
:100A7300801290648A1211B27B03121D8F700512CB
:100A83001DF0E4F09064921211E600000000121DC4
:100A9300CF5020121E32906492121DD86010121D86
:100AA3009AE4FB121D936006121DDFE004F0121D91
:100AB300B680DB020BFF121E3290648E121DBF0242
:100AC3000A3690648E1211E600000000121E449054
:100AD300648E121DD8506990648E121DE2E0705A24
:100AE30090648E121D9DE4FB121D93704D121D4EDA
:100AF3007008121DF07401F0800D121E1A121D935E
:100B03007005121DF0E4F09064921211E6000000EB
:100B130000121DCF5020121E32906492121DD86015
:100B230010121D9AE4FB121D936006121DDFE004F0
:100B3300F0121DB680DBD2038006121E01020ACF1B
:100B4300300303020BFF90648E1211E600000000D5
:100B5300121E4490648E121DD8502890648E121D6C
:100B6300E2121E4B121DD8501590648E121DE21214
:100B73001E4B1211DA121E3290649A1211DA121EEF
:100B83000180CD121E2790649A1211CE90602675B3
:100B9300F004EB121217EA25E025E02583F5831212
:100BA30011DA90649A121DE2E4F0121D87700B9023
:100BB300649A121DF37401F08010121E1A121D9311
:100BC300700890649A121DF3E4F09064921211E697
:100BD30000000000121DCF502390649A1211B290AE
:100BE3006492121DD86010121D9AE4FB121D9360CB
:100BF30006121DDFE004F0121DB680D8E4FF122BAD
:0A0C0300F49064A2121E381228F8C3
:010C0D0022C4
:102A5300E490648AF0F090648AE0FBC3940250240B
:102A63009063E7121E2AEB25E025E02426F582E495
:102A73003460F583121DD870037F012290648AE0CD
:062A830004F080D27F0088
:012A8900222A
:1029A9009064F81211E600000000121E449064F8C9
:1029B900121DD850249064F8121DE2E0FF7E001227
:1029C90025B49064F8121D9D1225B49064F8121173
:0929D900B29064F8121E0A80D1CC
:0129E20022D2
:101C74004263E500004463DC000000004463E000CC
:101C84000000004463EB000000004463E700000030
:101C9400004263EF0000605063F2000000000000A7
:101CA4000000000000000000000000000000000030
:101CB4000000000000000000000000000000000020
:101CC4000000000000000000000000000000000010
:101CD4000000000000000000000000000000000000
:101CE400000000000000000000004163F1004163B7
:021CF400E4000A
:10293400E0FEA3E0FFEE3395E0FDFC9064A11211EC
:10294400CED3021131FF90649E1212238F828E83A4
:102954001211689064B522E49063EFF0A3F09063E1
:0B296400E70211B2121223E94A4B22D5
:0D000F0078D0E24408F278D2E2543FF222A9
:0C199E0090649E1212439064A11211DAB2
:1019AA009064AB1211E60000000074FF9064AFF07F
:1019BA00A3F0A31211E6000000009064B51211E62C
:1019CA00000000009064B91211E600000000E490E3
:1019DA0064BDF0A3F0A3F0A3F090649E122968708E
:1019EA0003021AFCE49064BDF0A3F09064BD1229CE
:1019FA00345003021AC99064BDE0FEA3E07802C322
:101A0A0033CE33CED8F91229491211DA9064B912B9
:101A1A0011E600000000E49064BFF0A3F09064BFF8
:101A2A0012293440419064BFE0FEA3E07802C33338
:101A3A00CE33CED8F91229491211CEC31211317000
:101A4A00199064B91211B2EF2401FFE43EFEE43D9D
:101A5A00FDE43CFC9064B91211DA9064BFE475F0BD
:101A6A00011210DD80B79064AB1211B29064B51206
:101A7A0011CEC3121131603A9064B11211B290645E
:101A8A00B9122942402C9064B51211B29064AB127B
:101A9A0011DA9064B91211B29064B11211DA906439
:101AAA00C0E024FFFE9064BFE034FF9064AFF0A36F
:101ABA00CEF09064BDE475F0011210DD0219F590C4
:101ACA0064A5122968600F9064AB1211B29064A5E4
:101ADA001212231211989064A81229686014906453
:101AEA00AFE0FEA3E0FFE4FCFD9064A8121223120B
:021AFA00119841
:011AFC0022C7
:1028030090649E1211E6000000009063EFE07002F6
:10281300A3E0601B12295B9063F1E0FB04F0EB255E
:10282300E025E024F2F582E43463F5831211DA90B3
:0D28330063F1E0B41407E4F09063E404F0F6
:012840002275
:102B7B00E4906504F0A3F0A3F09063EFE07002A380
:092B8B00E0600612295B1225B47A
:012B9400221E
:071CF6004464FC0000000043
:092C8500907108E0541FF0E022F8
:10284100E5B254F342B2907108E054F3F0E044145D
:10285100F0E054FCF0E04401F0A3E0547FF0E044E8
:1028610020F053A9FD90710C7437F0A3743BF090E4
:0D287100710AE4F0A3F0122C8544A0F022BF
:0A2C7100122C8544C0F043A9022292
:102C1D00122C8544A0F090710AE4F0A3F053A9FDA5
:012C2D002284
:03002700022608A6
:10260800C0E0C0F0C083C082C0D075D000C000C098
:1026180004C005C006C007907109E030E71DE0441A
:1026280080F09064FC1211B2EF2401FFE43EFEE456
:102638003DFDE43CFC9064FC1211DAD007D006D0D2
:1026480005D004D000D0D0D082D083D0F0D0E032F2
:101CFD004164E3004464E4000000004164E80041F5
:031D0D0064E2008D
:1024EF007F0C9064FCE4FEFDFC0211CEE47F6E9045
:1024FF006500FEFDFC0211CE9063E71211B2EF549E
:10250F003FFFE4AD07229064E3F09063E71211B24E
:10251F0078080211429064E8EFF09064E41211B26F
:10252F009064FC1211CE1210F39064E41211DA9041
:10253F0064FC22E47F5A9064E4FEFDFC1211CEC3CA
:03254F0002113145
:100C0E009063EFE07002A3E06003122C4F9063EF4D
:100C1E00E07002A3E0603FE4FF9064E4122501C39C
:100C2E0012113170319064E3E0702B9063EFF0A3FA
:100C3E00F0122A53EF64016003020E4504122515CB
:100C4E00C006C007122507D007D00612180E9064F2
:100C5E00E8EFF0022C717F4B9064E41224F4C3127F
:100C6E0011314003020D7E9063EFE07002A3E0604D
:100C7E002D1224EFD31211315024120E46600302AE
:100C8E000E45122519C006C007122507D007D0063B
:100C9E0012180E1225241211E60000000022122452
:100CAE00EFD31211315003020E459064E3E070034E
:030CBE00020E45DE
:100CC100E4F0A31211E600000000122C1D9064FC58
:100CD1001211E6000000009065001211E60000000C
:100CE10000122CAB9064E8E09064E2F09063EFE0D6
:100CF1007002A3E0603BE47F321224FED312113173
:100D0100402F1224FBC312113150269064E8E0FDFC
:100D11009064E2E0B505157F04122BDD7FDC7E00D7
:100D2100120042E49063EFF0A3F08048120E548069
:100D3100439063EFE07002A3E0600E1224FBD31234
:100D410011314005120E54802B9063EFE07002A325
:100D5100E070991224FCD31211314090122C9F9013
:100D610065001211E6000000009064E2E0FDE4FF7E
:0D0D7100122BDDE49064E8F09064E2F022C3
:100D7E009064E3E0640170327F4BA3122548402A51
:100D8E0012254250257402122515C006C0071225E1
:100D9E0007D007D00612180E9064E8EFF0E0FD7F42
:100DAE0001122BDD9064E37403F09064E3E06403BE
:100DBE00704D9063EFE07002A3E060431224EFD316
:100DCE00121131503A120E46706D122519C006C01E
:100DDE0007122507D007D00612180E12252412115D
:100DEE00E600000000122542404D9064E8E0FD7FD1
:100DFE0002122BDD9064E41211E60000004B221269
:100E0E0024EFD3121131402F9064E3E060299064F7
:100E1E00E8E0FD7F03122BDDE49064E3F0A31211F2
:100E2E00E600000000122C1D9064FC1211E600007A
:070E3E000000E49064E8F0FD
:100E450022E49063EFF0A3F0122A53EF640122909D
:0B0E550064E2E0FDE4FF122BDDE4226C
:0B1D10004164EF004464F0000000009C
:092C8E00907100E0541FF0E022F7
:10287E00E5B254FC42B2907100E054F3F0E044141F
:10288E00F0E054FCF0E04401F0A3E0547FF0E044AB
:10289E0020F090710474E0F0A3741DF0907102E4C6
:0D28AE00F0A3F0122C8E44A0F053A9FE22DE
:0A2C7B00122C8E44C0F043A9012280
:102C2E00122C8E44A0F0907102E4F0A3F053A9FE92
:012C3E002273
:030024000222FFB6
:1022FF00C0E0C0F0C083C082C0D075D000C000C0A5
:10230F0001C002C003C004C005C006C00790710120
:10231F00E030E740E04480F09064F01211B2EF2417
:10232F0001FFE43EFEE43DFDE43CFC9064F012113D
:10233F00DAE47FE87E03FDFC9064F01211CEC31245
:10234F00113170109064F01211E6000000009064DB
:10235F00EF7401F0D007D006D005D004D003D0021F
:0F236F00D001D000D0D0D082D083D0F0D0E032D7
:0B180E0090648AEEF0A3EFF0A3EDF071
:10181900E4A3F0A37455F0E4A3F0F090648FE0FB27
:10182900C39402503E90648AE0FEA3E0FFE4FCFD0D
:10183900EB25E025E02426F582E43460F5831211D6
:10184900CEC3121131701490648FE0242EF582E416
:101859003460F583E090648EF0800890648FE00432
:10186900F080B890648EE0FF706490648CE012128E
:101879004C189C01189F0218A20318A40418A70564
:1018890018AA0618B30718BC0818C50918CE0A0003
:1018990000199802192A021932807602194202198E
:1018A9004A90648D7406F002199890648D7407F05B
:1018B90002199890648D7408F002199890648D74D7
:1018C90009F002199890648D740AF0021998EF646E
:1018D90001600302199890648CE012124C191A01E4
:1018E900192202192A03193204193A05194206194B
:1018F9004A07195208195A0919620A196A0B197201
:101909000C197A0D19820E198A0F199210000019F3
:101919009890648D7401F0807690648D740BF080DA
:101929006E90648D7402F0806690648D7403F0800B
:101939005E90648D740CF0805690648D7404F08010
:101949004E90648D7405F0804690648D740DF0801E
:101959003E90648D740EF0803690648D740FF08023
:101969002E90648D7410F0802690648D7411F0802F
:101979001E90648D7412F0801690648D7413F0803B
:101989000E90648D7414F0800690648D7415F09037
:04199900648DE0FF7A
:01199D002227
:071D1B004465000000000018
:102BC50043A90475D11075E6F075E70575DABC758E
:082BD500DF20E4F5DED2AF229F
:042CAB0075DE0122AF
:072C9F00E4F5DE75D11022FF
:03002A000226A704
:1026A700C0E0C0F0C083C082C0D075D000C000C0F9
:1026B70004C005C006C007E5EE30E51C43E22090E4
:1026C70065001211B2EF2401FFE43EFEE43DFDE494
:1026D7003CFC9065001211DAD007D006D005D00473
:0D26E700D000D0D0D082D083D0F0D0E0322F
:0D1D22004464D100000000C1024164D00003
:1029E3009064C81211B2EF4401FFEC9064C8021165
:1029F300DA9064C7E4F09064CC229064CD7401F063
:102A03009064CCE4F0229064C7E004F0E064182200
:092A1300FDFC1211CEC3021131C9
:0D2C4F009064D11211E600000000C20222C4
:102B600043A820D2AF75D10178957412F21874BFC2
:0B2B7000F2789174A0F21874E1F222D8
:03001E000212E2E9
:1012E200C0E0C0F0C083C082C0D075D000C000C0D2
:1012F20001C002C003C004C005C006C0077891E265
:0A13020020E703021485E24480F2A4
:10130C0020933D9064CEE004F0E0C3941E500302A1
:10131C0014149064C7E0641760030214149064CF33
:10132C00E09406400AE0941450051229E3800B90D7
:10133C0064CFE0C394014002E0FF1229FD021414B3
:10134C009064CEE0D3940050030213FAE0D39432AD
:10135C0040129064C81211E6000000001229F40437
:10136C00F00213E79064CCE060249064CEE0C39468
:10137C0002401BE094075016A3E0C39406400FE014
:10138C009414500A1229E3122A09604F8031906498
:10139C00CCE060399064CEE0C394074030E0941404
:1013AC00502BA3E0C394014024E09406501F90649A
:1013BC00C81211B2EF54FE1229EC122A09601CA3B8
:1013CC001211B278011211551229EE800E9064C8D8
:1013DC001211E6000000001229F4F09064CEE4F043
:1013EC00A3F09064C7E0B418191229FD801490641E
:1013FC00CCE0700E9064C81211E6000000001229B7
:10140C00F4F09064CFE004F09064CDE0602190643F
:10141C00C7E4F09064CDF0A3F0A3F09064C812116F
:0F142C00B29063E71211DA9063EFE4F0A304F0DB
:10143B009064D0E004F0E0C3940A403EE4F074FF03
:10144B00FFFEA3122A1350329064D11211B2EF2473
:10145B0001FFE43EFEE43DFDE43CFC9064D112113F
:10146B00DAE47F887E139064D1122A13400C9064C7
:0A147B00D11211E600000000D202B9
:10148500D007D006D005D004D003D002D001D000BB
:0B149500D0D0D082D083D0F0D0E03265
:101D2F0041604801426049000041604B0041604CF6
:0E1D3F000041604D0041604E7F42604FFFFF4B
:1028BB00E4F561AE3EAD3DAC3C853F178E168D15F4
:1028CB008C14787EE254FCF2E24514F218E515F212
:1028DB0018E516F218E517F2787FE254FBF2E25492
:0D28EB00FB4404F2E24401F27F0102227B73
:100E6000906494EFF0E0FF244EF582E43464F5835F
:100E7000E004F0745A2FF582E43464F583E4F074EE
:100E80004E2FF582E43464F583E0C395635003028A
:100E900010B1906494E0FB244EF582E43464F58351
:100EA000E4F0902ACC93640160030210627F01FE9B
:100EB000FDFC74602BF582E43464F583E0F9F812EC
:100EC0001155E51F4FF51FE51E4EF51EE51D4DF5AD
:100ED0001DE51C4CF51CAF1FAE1EAD1DFC780112AC
:100EE0001142EF5455FBEE5455FAED5455F9EC54BC
:100EF00055F8C3E51F9BF53BE51E9AF53AE51D99AC
:100F0000F539E51C98F538AF3BAE3AAD39FC7802BF
:100F1000121142EF5433FBEE5433FAED5433F9EC33
:100F20005433F8E53B5433FFE53A5433FEE5395486
:100F300033FDE5385433FCEB2FF53BEA3EF53AE957
:100F40003DF539E83CF538AF3BAE3AAD39FC7804B5
:100F5000121142EF253BFFEE353AFEED3539FDEC3F
:100F60003538FCEF540FF53BEE540FF53AED540FC6
:100F7000F539EC540FF538AF3BAE3AAD39FC780893
:100F8000121142EF253BFFEE353AED3539FDEC35D8
:100F900038EFF53BE4F53AEDF539E4F538AE3AAC27
:100FA000387810121142EF253BFFEE353AFEEFF58F
:100FB0003BEEF53AE4F539F538906494E025E02409
:100FC00066F582E43464F583E0FEA3E0D39553EE46
:100FD00095524024906494E0FF25E02466F582E475
:100FE0003464F583E0F552A3E0F55374602FF58285
:100FF000E43464F583E0F564902ACCE493FFE4FCE8
:10100000FDFEAB3BAA3AA939A838D31211314052A0
:10101000AF650565D3EF940374809480500302108C
:10102000B1E4F565F51FF51EF51DF51C7F01FEFD0C
:10103000FCA964A8011211558F1B8E1A8D198C18EA
:10104000E47F01FEFDFCA8011211558F338E328D15
:10105000318C30E4F552F55375642012237E43370A
:101060000222E4F5657F01FEFDFC906494E0FB2420
:1010700060F582E43464F583E0F9F8121155E51B5C
:101080004FF51BE51A4EF51AE5194DF519E5184C03
:10109000F518E47F01FEFDFCA803121155E5334F5E
:1010A000F533E5324EF532E5314DF531E5304CF5AD
:0210B0003022EC
:10064400E4F566902AD0E493FFE566C39F40030275
:100654000982E56625E02400F582E4346085828A17
:100664007F548F8B7E0E8E8C758903758889E56621
:1006740025E02400F582E4346085828A8F8B758CB2
:1006840012758904758889E56625E02418F582E4E5
:100694003460F583E0FCA3E0C3950FEC950E502E77
:1006A400E56625E0243CF582E43460F583E0FCA3B0
:1006B400E0C39513EC95125015AF600560EF9402FA
:1006C40074809480400BE4F5605337FD8003E4F5B7
:1006D40060E53730E125E56625E02466F582E434FB
:1006E40064F583E4F0A3F0E56625E02472F582E482
:1006F4003464F583E4F0A3F0020792E56625E02470
:1007040018F582E4346085828A8E8B758C0A75892B
:10071400267588892088FDE5F130E00875F107E445
:10072400F50AF50BAE0AE50B7802C333CE33CED807
:10073400F9FFE56625E02466F582E43464F583EE8A
:10074400F0A3EFF0E56625E0243CF582E43460850F
:10075400828A758B12758C0A758927758889208819
:10076400FDE5F130E00875F107E4F50AF50BAE0A92
:10077400E50B7802C333CE33CED8F9FFE56625E026
:100784002472F582E43464F583EEF0A3EFF0E566B9
:1007940025E0247EF582E43464F583E0FEA3E0786A
:1007A40002CEC313CE13D8F9F5518E50E56625E079
:1007B4002466F582E43464F583E0FEA3E0FF902A26
:1007C400C8E493FC740193FDC3EF9DEE9C4017E5D0
:1007D4006625E02472F582E43464F583E0FEA3E048
:1007E400C39DEE9C50028068E56625E02466F58290
:1007F400E43464F583E0FEA3E0C39551EE955040E4
:100804001CE56625E02472F582E43464F583E0FE99
:10081400A3E0C39551EE9550400302089E745425FD
:1008240066F582E43464F583E004F074542566F5D7
:1008340082E43464F583E0FF902ACDE493FEEFD3A1
:100844009E406474542566F582E43464F583E4F0D0
:10085400E56625E0240CF582E43460F583E0FEA32C
:10086400E0FFE56625E02418F582E43460F583EEC4
:10087400F0A3EFF0E56625E02430F582E43460F57A
:1008840083E0FEA3E0FFE56625E0243CF582E43442
:1008940060F583EEF0A3EFF0800D74542566F582C5
:1008A400E43464F583E4F0E56625E0240CF582E4A1
:1008B400346085828AE56625E02400F582E43460AC
:1008C40085828B758C0A7589207588CB2088FDE517
:1008D400F130E00875F107E4F50AF50BE56625E06B
:1008E400240CF582E4346085828A758B547F0E8FE4
:1008F4008C7589237588897E0A8E8A8F8BE5662597
:10090400E0240CF582E4346085828CE4F5897588F2
:1009140029E56625E02430F582E4346085828AE5A1
:100924006625E02400F582E4346085828B8E8C7524
:1009340089207588CB2088FDE5F130E00875F10742
:10094400E4F50AF50BE56625E02430F582E434602D
:1009540085828A758B547F0E8F8C7589247588895E
:10096400758A0A8F8BE56625E02430F582E43460CD
:0F09740085828CE4F5897588290566020647227D
:1014A000E4F566902AD0E493FFE566C39F4003020B
:1014B0001658E56625E0247EF582E43464F583E081
:1014C000FEA3E07802CEC313CE13D8F9F5518E50A7
:1014D000E56625E02466F582E43464F583E0FEA346
:1014E000E0D39551EE9550402EE56625E02472F547
:1014F00082E43464F583E0FEA3E0D39551EE955089
:101500004015745A2566F582E43464F583E4F0AF3F
:1015100066120E60021653902ACFE493FFC3E55182
:101520009FFFE5509400FED3EF9400EE940040023C
:1015300080047E007F00E56625E02466F582E434C1
:1015400064F583E0FCA3E0C39FEC9E4003021646D3
:10155000902ACFE493FFC3E5519FFFE5509400FE2E
:10156000D3EF9400EE9400400280047E007F00E5FB
:101570006625E02472F582E43464F583E0FCA3E0A0
:10158000C39FEC9E4003021646744E2566F582E426
:101590003464F583E4F0745A2566F582E43464F526
:1015A00083E004F0745A2566F582E43464F583E040
:1015B000C395635003021653745A2566F582E434CA
:1015C00064F583E4F07F01FEFDFC74602566F5821E
:1015D000E43464F583E0F9F8121155121100E51FA7
:1015E0005FF51FE51E5EF51EE51D5DF51DE51C5C46
:1015F000F51CE47F01FEFDFCA966A801121155123D
:101600001100E5335FF533E5325EF532E5315DF526
:1016100031E5305CF530E47F01FEFDFC7460256649
:10162000F582E43464F583E0F9F8121155121100E3
:10163000E51B5FF51BE51A5EF51AE5195DF519E581
:10164000185CF518800D745A2566F582E43464F54B
:0916500083E4F005660214A322F4
:10237E00E4F566902AD0E493FFE566C39F506EE5C0
:10238E006625E02466F582E43464F583E4F0A3F078
:10239E00E56625E02472F582E43464F583E4F0A367
:1023AE00F0E56625E0240CF582E43460F583E0FE6A
:1023BE00A3E0FFE56625E02418F582E43460F5839A
:1023CE00EEF0A3EFF0E56625E02430F582E434600C
:1023DE00F583E0FEA3E0FFE56625E0243CF582E40C
:0E23EE003460F583EEF0A3EFF00566808622E2
:10215600E4F566902AD0E493FFE566C39F50679046
:102166006048E0FF7E00C39410748094805053EF63
:102176009408748094804025E56625E02400F58265
:10218600E43460F583E0FEA3E0FFE56625E0240C79
:10219600F582E43460F583EE8FF01210DDE56625F6
:1021A600E02400F582E43460F583E0FEA3E0FFE579
:1021B6006625E02430F582E43460F583EE8FF01274
:1021C60010DD0566808D906048E0C394107480949D
:1021D6008040054337048006906048E004F07F01A4
:0321E60002227B57
:1023FC00E4FFFEFDFCAB1BAA1AA919A818C3121105
:10240C0031606390604AE004F07006906049E0042B
:10241C00F0902AC4E493FE740193FF4E602ED39087
:10242C00604AE09F906049E09E4021E4F0A3F0F503
:10243C001FF51EF51DF51CF533F532F531F530F5AC
:10244C001BF51AF519F518C20102237E902AC6E471
:10245C0093FE740193FFD390604AE09F906049E033
:0D246C009E400AD20122E4906049F0A3F0E6
:012479002240
:051659009064C2EFF0F7
:10165E00A3E0FCA3E0FDA3E0FEA3E0F5288E278D1A
:10166E00268C257884E2F50A08E2F50B758A087552
:10167E008B25758C2175881D2088FDE4FFFEFDFCF1
:10168E00AB24AA23A922A821D312111B4006AC21F8
:10169E00A8048013AF24AE23AD22AC2112110DABE2
:1016AE0007AA06A905A80490604FE0FEA3E0FFE498
:1016BE00FCFDC312111B5041E4FFFEFDFCAB24AA3E
:1016CE0023A922A82112111B4006AF24AE23800BA2
:1016DE00AF24AE23AD22AC2112110D90604FEEF06F
:1016EE00A3EFF09064C2E025E02442F582E4346476
:1016FE00F583E0A3E090604EF0902AC1E493FE746F
:10170E000193FFD3906050E09F90604FE09E501B7E
:10171E009064C2E025E02442F582E43464F583E06F
:10172E00A3E090604EF090604B8079E4FFFEFDFCEC
:10173E00AB24AA23A922A821D312111B40349064F2
:10174E00C2E0FF25E02442F582E43464F583E0FC38
:10175E00A3E0D39400EC9400404DEF25E02442F535
:10176E0082E43464F58374FFF5F01210DD90604C62
:10177E0080329064C2E0FF25E02442F582E43464B6
:10178E00F583E0FCA3E0C3947FEC94005019EF25A1
:10179E00E02442F582E43464F583E475F00112101E
:1017AE00DD90604D7401F090604CE064017011A307
:1017BE00E06401700B90604CF0A3F090604B04F06D
:1017CE0090604BE06401703590604EE0FF9064C213
:1017DE00E025E02442F582E43464F583E4F0A3EFDF
:1017EE00F074FF90604FF0A3F090604E747FF0E4C1
:0F17FE0090604CF0A3F090604BF07F01227F00D1
:01180D0022B8
:10255200E49064C1F0902ABB1211BE7801121155A9
:102562009064C31211DAAF61121659EF602205614D
:10257200E53730E4095337EF9064C17401F0902AD3
:10258200D0E493FFE561C39F4006E4F56143371051
:10259200C3902ABF7401939562E49394004008901B
:1025A20064C1E064017005D2000228BBE4FF12227C
:0125B2007BAD
:0125B3002205
:10227B00EF70607F01FEFDFC74602561F582E43434
:10228B0064F583E0F9F81211558F178E168D158CA6
:10229B0014787EE254FCF2E24514F218E515F218BC
:1022AB00E516F218E517F2E56125E02442F582E424
:1022BB003464F583E0A3E0547FFF7878E254804FD9
:1022CB00F2787FE254FBF2E254FB4404F2E2440165
:1022DB00F2801CE56125E02442F582E43464F58349
:1022EB00E0A3E0547FFF7878E254804FF2787FE2EE
:0422FB004402F22285
:10202100E490648AF0A3F090648AE0FEA3E0FFC329
:102031009488EE94035031EF2444FFEE34068F82EE
:10204100F583E493FF90648BE02451FD90648AE072
:1020510034608D82F583EFF090648BE004F070C7FB
:0820610090648AE004F080BFE6
:102069009063D97401F0A37460F0A37451F0E4F59E
:1020790061F537F536F535F534C200C201F51FF5BE
:102089001EF51DF51CF533F532F531F530F51BF567
:102099001AF519F518902ACA93FF902ACEE493FEEF
:1020A900A807088002C333D8FCF563756420E4FFF0
:0320B90002227B85
:10247A007884E2F50A08E2F50BAE0A7803CEC313B4
:10248A00CE13D8F97802C333CE33CED8F9FFE5613B
:10249A0025E02400F582E43460F583EEF0A3EFF042
:1024AA0020000F902AC3E4937005D2000228BB02D1
:1024BA0025520561902AD0E493FFE561C39F401F2E
:1024CA00787FE254FBF2E254FB4404F2E24401F264
:1024DA00E4F561E53720E203022156433701227F02
:0524EA000112227B221B
:052CA60005620223FCA1
:102AE900E53730E01A9063D9A3E0FAA3E0F91212AE
:102AF900AC1214A0E4F5617F0112227B5337FE2248
:1020D600022C0AE493A3F8E493A34003F68001F2EA
:1020E60008DFF48029E493A3F85407240CC8C3330B
:1020F600C4540F4420C8834004F456800146F6DFDA
:10210600E4800B0102040810204080901C39E47E14
:10211600019360BCA3FF543F30E509541FFEE493CE
:10212600A360010ECF54C025E060A840B8E493A395
:10213600FAE493A3F8E493A3C8C582C8CAC583CAC0
:10214600F0A3C8C582C8CAC583CADFE9DEE780BE78
:011D4D000095
:1010B200BB010689828A83E0225002E722BBFE023C
:0910C200E32289828A83E493226F
:1010CB00BB010689828A83F0225002F722BBFE0104
:0210DB00F322FE
:1010DD00C5F0F8A3E028F0C5F0F8E582158270029E
:0610ED001583E038F0223B
:0D10F300EF2BFFEE3AFEED39FDEC38FC224C
:0D110000CFF4CFCEF4CECDF4CDCCF4CC2284
:0E110D00C3E49FFFE49EFEE49DFDE49CFC22F3
:10111B00EB9FF5F0EA9E42F0E99D42F0EC6480C84B
:06112B0064809845F022EB
:10113100EB9FF5F0EA9E42F0E99D42F0E89C45F014
:01114100228B
:10114200E8600FECC313FCED13FDEE13FEEF13FF8B
:03115200D8F122AF
:10115500E8600FEFC333FFEE33FEED33FDEC33FCF8
:03116500D8F1229C
:10116800BB010DE58229F582E5833AF5830211B2C8
:101178005007E92582F80212B2BBFE07E92582F87A
:101188000212BEE58229F582E5833AF5830211BE93
:10119800BB010789828A830211DA5005E9F8021235
:0A11A800CABBFE05E9F80212D622C8
:0C11B200E0FCA3E0FDA3E0FEA3E0FF22B0
:1011BE00E493FC740193FD740293FE740393FF2277
:0C11CE00E0F8A3E0F9A3E0FAA3E0FB22A4
:0C11DA00ECF0A3EDF0A3EEF0A3EFF02288
:1011E600A8828583F0D083D0821211FD1211FD12E0
:1011F60011FD1211FDE473E493A3C583C5F0C58305
:10120600C8C582C8F0A3C583C5F0C583C8C582C852
:0112160022B5
:0C121700A42582F582E5F03583F58322E2
:09122300E0FBA3E0FAA3E0F922CC
:10122C00F8E0FBA3A3E0F925F0F0E582158270024B
:07123C001583E0FA38F022EF
:09124300EBF0A3EAF0A3E9F022AC
:10124C00D083D082F8E4937012740193700DA3A331
:10125C0093F8740193F5828883E473740293686045
:06126C00EFA3A3A380DF45
:10127200D083D082E4937012740193700DA3A39370
:10128200F8740193F5828883E4737402936C70128C
:101292007403936D700C7404936E70067405936FEF
:0A12A20060DDA3A3A3A3A3A380CAE9
:0612AC008A838982E473CD
:0C12B200E6FC08E6FD08E6FE08E6FF2268
:0C12BE00E2FC08E2FD08E2FE08E2FF226C
:0C12CA00ECF608EDF608EEF608EFF62250
:0C12D600ECF208EDF208EEF208EFF22254
:00000001FF
