:03000000022E0DC0
:102E0D00787FE4F6D8FD9060007F007E07E4F0A3A4
:0A2E1D00DFFCDEFA758166022E620A
:0C000300000000000000000000000000F1
:0B3A3100EF1FAC0670011E4C70F62267
:10004200AB07AA06EB1BAE0270011A4E600C75D903
:0B005200AA7F747E04123A3180EA227B
:102BEE00907120E04480F07F057E00123A31E4FFC0
:102BFE00FE12004275A75575AC5C9071327450F0A0
:102C0E009071307403F0907136742FF090715C7483
:102C1E0003F090715BE054FCF07F18EF2466FDE446
:102C2E0034718D82F583E4F00FEFB433EE904011E2
:102C3E00E4935407FF90711CE054F84FF090401746
:102C4E00E493547FFF90711DE054804FF09040103C
:102C5E00E493FF5401C43333335480FE907123E068
:102C6E00547F4EF0EFC313543F4440FFA3E0548013
:102C7E004FF0904012E493FF540FFE907146E054D3
:102C8E00F04EF0EFC4540FFF90714FE054F04FF040
:102C9E00904013E493543FFF907140E054C04FF0C6
:102CAE00904014E493907126F0904015E493907147
:0B2CBE0028F0904016E49390712AF07B
:012CC90022E8
:10382700000009C4006400C80101F4004B000A004D
:1038370000010F04050600000032000200320003F9
:0E384700003200090032000A00320018004B67
:1020CB00E4FF74622FF582E43464F583E0C3940873
:1020DB00400302217C74622FF582E43464F583E0C3
:1020EB00C39404504478C2C000E2FE74622FF582A0
:1020FB00E43464F583E025E0FDF87403088002C343
:10210B0033D8FCF45ED000F278C2C000E2FE7462F9
:10211B002FF582E43464F583E025E0FDF8740308C1
:10212B008002C333D8FC0222DE78C3C000E2FE7407
:10213B00622FF582E43464F583E024FC25E0FDF89E
:10214B007403088002C333D8FCF45ED000F278C36A
:10215B00C000E2FE74622FF582E43464F583E02460
:10216B00FC25E0FDF87403088002C333D8FC02227F
:10217B00DE74622FF582E43464F583E0C394085077
:10218B000302224274622FF582E43464F583E0C3C8
:10219B009410400302224274622FF582E43464F5FA
:1021AB0083E0C3940C504878D2C000E2FE74622FD7
:1021BB00F582E43464F583E024F825E0FDF874033C
:1021CB00088002C333D8FCF45ED000F278D2C00092
:1021DB00E2FE74622FF582E43464F583E024F82583
:1021EB00E0FDF87403088002C333D8FC0222DE78CA
:1021FB00D3C000E2FE74622FF582E43464F583E011
:10220B0024F425E0FDF87403088002C333D8FCF4F2
:10221B005ED000F278D3C000E2FE74622FF582E448
:10222B003464F583E024F425E0FDF87403088002A0
:10223B00C333D8FC0222DE74622FF582E43464F5DA
:10224B0083E0C39414504778E2C000E2FE74622F1F
:10225B00F582E43464F583E024F025E0FDF87403A3
:10226B00088002C333D8FCF45ED000F278E2C000E1
:10227B00E2FE74622FF582E43464F583E024F025EA
:10228B00E0FDF87403088002C333D8FC804578E383
:10229B00C000E2FE74622FF582E43464F583E0241F
:1022AB00EC25E0FDF87403088002C333D8FCF45E20
:1022BB00D000F278E3C000E2FE74622FF582E434C2
:1022CB0064F583E024EC25E0FDF87403088002C379
:1022DB0033D8FC4ED000F20FEF640660030220CD22
:0122EB0022D0
:03005D0002362246
:10362200C0E0C0F0C083C082C0D075D000C000C06E
:1036320001C002C003C004C005C006C0077881E211
:1036420030E607E24440F212325DD007D006D005E0
:10365200D004D003D002D001D000D0D0D082D08309
:05366200D0F0D0E032C1
:10358D00D2AF43AB0843B6C0907132E04440F04334
:10359D00AB087877743FF208744BF2787A7430F296
:1035AD00788914F27871744FF2187427F278727466
:1035BD00A8F2087410F208E4F208F208F2787E74AA
:0F35CD00D0F2087404F208741EF2087402F2229D
:03003F000235DCAB
:1035DC00C0E0C0F0C083C082C0D075D000C000C0B5
:1035EC0001C002C003C004C005C006C007907153DF
:1035FC00E030E707E04480F012000FD007D006D08F
:10360C0005D004D003D002D001D000D0D0D082D0CD
:06361C0083D0F0D0E03283
:102EA700E4FBEB25E025E0243DF582E43438F583A7
:102EB700740193FF74622BF582E43464F583EFF0B9
:102EC700EB25E025E0243FF582E43438F583E493ED
:102ED700FE740193FFEB25E02480F582E43464F56A
:102EE70083EEF0A3EFF0EB25E02444F582E43464AD
:102EF700F583E4F0A3744BF0E47F01FEFDFC7462FC
:102F07002BF582E43464F583E0F9F8122398E53F62
:102F17004FF53FE53E4EF53EE53D4DF53DE53C4C75
:102F2700F53C0BEB64066003022EA91220CB122D91
:042F37007202358D60
:10392A00123999122EA7120C37123883120060121C
:07393A0012B275D9AA80F258
:10398400122BEE75D95590715EE054FEF075D9BBDB
:0539940012392A80FE3B
:1029F1004264D500004464CA000000004164CE0076
:072A01004464CF0000000057
:102CCA0078E3E2543FF2E24440F278BC7401F278CD
:102CDA00C2E2543FF278F2E254FCF278D2E254FCB7
:102CEA00F278C3E2543FF218E24440F278F2E24446
:102CFA0001F278D2E24401F278C3E24440F29071E0
:102D0A00817412F090719604F090718604F09071BB
:102D1A008504F078AA7401F278F9F278D9F278AEDB
:102D2A00F2907195741AF0907132E04410F075D9EE
:102D3A005590715EE04404F075D9BB907132E0445D
:102D4A0010F07807740FF278097401F27C64EC7859
:102D5A000DF21874D3F2187481F2187401F29064A7
:082D6A00D3740FF0A3E4F02282
:103999001233341238FA1237AC123A231236EB12B8
:0539A90036A9023912ED
:1039E7009064D5E0FFA3E09064D3CFF0A3EFF0227B
:10006000AF1BAE1AAD19AC1890648C1224059064C5
:100070009012241100000000E4906494F0A3F0902A
:10008000648CE0FCA3E0FDA3E0FEA3E0FFEC4D4E9A
:100090004F70030206709064CEE060030206707F2A
:1000A0004BFEFDFCA3E0F8A3E0F9A3E0FAA3E0FB1C
:1000B000C31223744003020670906490122411004E
:1000C0000000007F207EA17D077C00906490E0F816
:1000D000A3E0F9A3E0FAA3E0FBC3122374400302F8
:1000E000016B7F0A7E00120042123883AF1BAE1AEA
:1000F000AD19AC1890648CE0F8A3E0F9A3E0FAA382
:10010000E0FBC312237470639064CFE0FCA3E0FDB6
:10011000A3E0FEA3E02401FFE43EFEE43DFDE43C59
:10012000FC9064CF122405E47F4BFEFDFC9064CF6D
:10013000E0F8A3E0F9A3E0FAA3E0FBD312237440B4
:10014000089064CE7401F08022906490E0FCA3E0FB
:10015000FDA3E0FEA3E02401FFE43EFEE43DFDE458
:100160003CFC9064901224050200C3E47F4BFEFD2A
:10017000FC9064CFE0F8A3E0F9A3E0FAA3E0FBD39E
:1001800012237440099064CE7401F00206709064EA
:10019000CF12241100000000E4FFFEFD7C019064FA
:1001A0008CE0F8A3E0F9A3E0FAA3E0FBC312237408
:1001B000600302026690649012241100000000E4C3
:1001C0007F64FEFDFC906490E0F8A3E0F9A3E0FA00
:1001D000A3E0FBC312237440030202617F017E008F
:1001E000120042123883AF1BAE1AAD19AC189064DE
:1001F0008C122405E4FFFEFD7C0190648CE0F8A3E2
:10020000E0F9A3E0FAA3E0FBC31223747031E4FF2A
:10021000FEFDFC90648CE0F8A3E0F9A3E0FAA3E013
:10022000FBC31223746013123883AF1BAE1AAD19CF
:10023000AC1890648C12240580D47D16020642907E
:100240006490E0FCA3E0FDA3E0FEA3E02401FFE452
:100250003EFEE43DFDE43CFC906490122405020166
:10026000BF7D1602066BE47F08FEFDFC90648CE007
:10027000F8A3E0F9A3E0FAA3E0FBC3122374600340
:1002800002033490649012241100000000E47F64A3
:10029000FEFDFC906490E0F8A3E0F9A3E0FAA3E08F
:1002A000FBC3122374400302032F7F017E00120060
:1002B00042123883AF1BAE1AAD19AC1890648C1281
:1002C0002405E47F08FEFDFC90648CE0F8A3E0F9CF
:1002D000A3E0FAA3E0FBC31223747031E4FFFEFD38
:1002E000FC90648CE0F8A3E0F9A3E0FAA3E0FBC380
:1002F0001223746013123883AF1BAE1AAD19AC18F9
:1003000090648C12240580D47D170206429064907C
:10031000E0FCA3E0FDA3E0FEA3E02401FFE43EFE39
:10032000E43DFDE43CFC90649012240502028D7DC6
:100330001702066BE47F04FEFDFC90648CE0F8A3DA
:10034000E0F9A3E0FAA3E0FBC31223746003020404
:100350000290649012241100000000E47F64FEFD0E
:10036000FC906490E0F8A3E0F9A3E0FAA3E0FBC3FB
:1003700012237440030203FD7F017E00120042122B
:100380003883AF1BAE1AAD19AC1890648C122405DB
:10039000E47F04FEFDFC90648CE0F8A3E0F9A3E0A8
:1003A000FAA3E0FBC31223747031E4FFFEFDFC905E
:1003B000648CE0F8A3E0F9A3E0FAA3E0FBC3122306
:1003C000746013123883AF1BAE1AAD19AC18906469
:1003D0008C12240580D47D18020642906490E0FCC3
:1003E000A3E0FDA3E0FEA3E02401FFE43EFEE43D24
:1003F000FDE43CFC90649012240502035B7D18022E
:10040000066BE47F01FEFDFC90648CE0F8A3E0F94C
:10041000A3E0FAA3E0FBC312237460030204D090AC
:10042000649012241100000000E47F64FEFDFC9043
:100430006490E0F8A3E0F9A3E0FAA3E0FBC3122381
:100440007440030204CB7F017E0012004212388305
:10045000AF1BAE1AAD19AC1890648C122405E47F62
:1004600001FEFDFC90648CE0F8A3E0F9A3E0FAA3A0
:10047000E0FBC31223747031E4FFFEFDFC90648C3A
:10048000E0F8A3E0F9A3E0FAA3E0FBC31223746051
:1004900013123883AF1BAE1AAD19AC1890648C12CE
:1004A000240580D47D19020642906490E0FCA3E00C
:1004B000FDA3E0FEA3E02401FFE43EFEE43DFDE4F5
:1004C0003CFC9064901224050204297D1902066BFD
:1004D000E4FF7E02FDFC90648CE0F8A3E0F9A3E069
:1004E000FAA3E0FBC3122374600302059E9064909C
:1004F00012241100000000E47F64FEFDFC90649073
:10050000E0F8A3E0F9A3E0FAA3E0FBC312237440F0
:10051000030205997F017E00120042123883AF1B4F
:10052000AE1AAD19AC1890648C122405E4FF7E025B
:10053000FDFC90648CE0F8A3E0F9A3E0FAA3E0FBF3
:10054000C31223747031E4FFFEFDFC90648CE0F86C
:10055000A3E0F9A3E0FAA3E0FBC312237460131233
:100560003883AF1BAE1AAD19AC1890648C122405F9
:1005700080D47D1A020642906490E0FCA3E0FDA3C3
:10058000E0FEA3E02401FFE43EFEE43DFDE43CFC8C
:100590009064901224050204F77D1A02066BE4FFB2
:1005A0007E04FDFC90648CE0F8A3E0F9A3E0FAA3DC
:1005B000E0FBC3122374600302067090649012245F
:1005C0001100000000E47F64FEFDFC906490E0F800
:1005D000A3E0F9A3E0FAA3E0FBC3122374400302F3
:1005E00006697F017E00120042123883AF1BAE1AEB
:1005F000AD19AC1890648C122405E4FF7E04FDFC58
:1006000090648CE0F8A3E0F9A3E0FAA3E0FBC31246
:1006100023747033E4FFFEFDFC90648CE0F8A3E0EB
:10062000F9A3E0FAA3E0FBC312237460131238832A
:10063000AF1BAE1AAD19AC1890648C12240580D48F
:100640007D1B7F04023941906490E0FCA3E0FDA390
:10065000E0FEA3E02401FFE43EFEE43DFDE43CFCBB
:100660009064901224050205C57D1BE4FF123941F8
:100670009064CEE064016003020BA8FFFEFDFC90D5
:10068000648CE0F8A3E0F9A3E0FAA3E0FBC3122333
:10069000747003020BA890648CE0FCA3E0FDA3E05F
:1006A000FEA3E0FF9064CA122405E4FFFEFD7C0176
:1006B00090648CE0F8A3E0F9A3E0FAA3E0FBC31296
:1006C0002374600302077F7F4BFEFDFC9064CFE044
:1006D000F8A3E0F9A3E0FAA3E0FBC3122374401FE0
:1006E000E47F5AFEFDFC9064CFE0F8A3E0F9A3E0BC
:1006F000FAA3E0FB12237450067D167F01807BE491
:10070000FFFEFDFC90648CE0F8A3E0F9A3E0FAA3FF
:10071000E0FBC31223747003020C367F0A7E0012C2
:1007200000429064CFE0FCA3E0FDA3E0FEA3E02440
:1007300001FFE43EFEE43DFDE43CFC9064CF122466
:1007400005123883AF1BAE1AAD19AC1890648C1229
:100750002405E47F57FEFDFC9064CFE0F8A3E0F9A8
:10076000A3E0FAA3E0FBC312237440939064CF127A
:1007700024110000004B7D167F021239418080E475
:100780007F08FEFDFC90648CE0F8A3E0F9A3E0FA9A
:10079000A3E0FBC312237460030208547F4BFEFDE9
:1007A000FC9064CFE0F8A3E0F9A3E0FAA3E0FBC378
:1007B000122374401FE47F5AFEFDFC9064CFE0F8E2
:1007C000A3E0F9A3E0FAA3E0FB12237450067D171F
:1007D0007F01807BE4FFFEFDFC90648CE0F8A3E0E9
:1007E000F9A3E0FAA3E0FBC31223747003020C36F2
:1007F0007F0A7E001200429064CFE0FCA3E0FDA3DC
:10080000E0FEA3E02401FFE43EFEE43DFDE43CFC09
:100810009064CF122405123883AF1BAE1AAD19AC09
:100820001890648C122405E47F57FEFDFC9064CF81
:10083000E0F8A3E0F9A3E0FAA3E0FBC312237440BD
:10084000939064CF1224110000004B7D177F021299
:1008500039418080E47F04FEFDFC90648CE0F8A3C5
:10086000E0F9A3E0FAA3E0FBC312237460030209DA
:10087000297F4BFEFDFC9064CFE0F8A3E0F9A3E0F4
:10088000FAA3E0FBC3122374401FE47F5AFEFDFC71
:100890009064CFE0F8A3E0F9A3E0FAA3E0FB122311
:1008A0007450067D187F01807BE4FFFEFDFC9064A0
:1008B0008CE0F8A3E0F9A3E0FAA3E0FBC3122374F1
:1008C0007003020C367F0A7E001200429064CFE073
:1008D000FCA3E0FDA3E0FEA3E02401FFE43EFEE470
:1008E0003DFDE43CFC9064CF122405123883AF1B1D
:1008F000AE1AAD19AC1890648C122405E47F57FE33
:10090000FDFC9064CFE0F8A3E0F9A3E0FAA3E0FBDC
:10091000C312237440939064CF1224110000004B43
:100920007D187F021239418080E47F01FEFDFC903A
:10093000648CE0F8A3E0F9A3E0FAA3E0FBC3122380
:100940007460030209FE7F4BFEFDFC9064CFE0F86B
:10095000A3E0F9A3E0FAA3E0FBC3122374401FE471
:100960007F5AFEFDFC9064CFE0F8A3E0F9A3E0FA23
:10097000A3E0FB12237450067D197F01807BE4FF06
:10098000FEFDFC90648CE0F8A3E0F9A3E0FAA3E09C
:10099000FBC31223747003020C367F0A7E00120020
:1009A000429064CFE0FCA3E0FDA3E0FEA3E02401BD
:1009B000FFE43EFEE43DFDE43CFC9064CF122405E0
:1009C000123883AF1BAE1AAD19AC1890648C122488
:1009D00005E47F57FEFDFC9064CFE0F8A3E0F9A3A7
:1009E000E0FAA3E0FBC312237440939064CF122477
:1009F000110000004B7D197F021239418080E4FF15
:100A00007E02FDFC90648CE0F8A3E0F9A3E0FAA379
:100A1000E0FBC31223746003020AD37F4BFEFDFC8C
:100A20009064CFE0F8A3E0F9A3E0FAA3E0FBC312DF
:100A30002374401FE47F5AFEFDFC9064CFE0F8A3CE
:100A4000E0F9A3E0FAA3E0FB12237450067D1A7FBD
:100A500001807BE4FFFEFDFC90648CE0F8A3E0F9EC
:100A6000A3E0FAA3E0FBC31223747003020C367FE9
:100A70000A7E001200429064CFE0FCA3E0FDA3E0F8
:100A8000FEA3E02401FFE43EFEE43DFDE43CFC90D7
:100A900064CF122405123883AF1BAE1AAD19AC18FF
:100AA00090648C122405E47F57FEFDFC9064CFE037
:100AB000F8A3E0F9A3E0FAA3E0FBC3122374409388
:100AC0009064CF1224110000004B7D1A7F0212396E
:100AD000418080E4FF7E04FDFC90648CE0F8A3E09C
:100AE000F9A3E0FAA3E0FBC31223746003020C36FF
:100AF0007F4BFEFDFC9064CFE0F8A3E0F9A3E0FAA1
:100B0000A3E0FBC3122374401FE47F5AFEFDFC9058
:100B100064CFE0F8A3E0F9A3E0FAA3E0FB122374AA
:100B200050067D1B7F01807BE4FFFEFDFC90648C02
:100B3000E0F8A3E0F9A3E0FAA3E0FBC3122374708A
:100B400003020C367F0A7E001200429064CFE0FC64
:100B5000A3E0FDA3E0FEA3E02401FFE43EFEE43DAC
:100B6000FDE43CFC9064CF122405123883AF1BAE29
:100B70001AAD19AC1890648C122405E47F57FEFD61
:100B8000FC9064CFE0F8A3E0F9A3E0FAA3E0FBC394
:100B900012237440939064CF1224110000004B7D07
:100BA0001B7F0212394180809064CEE064016003B3
:100BB000020C36FFFEFDFC90648CE0F8A3E0F9A384
:100BC000E0FAA3E0FBC3122374706B9064CAE0FCEC
:100BD000A3E0FDA3E0FEA3E0FF12244E0C100000F2
:100BE00000010C0C000000040C08000000080C14AC
:100BF000000002000C18000004000C0401000000BA
:100C000000000C1F7D1680127D17800E7D18800A53
:100C10007D1980067D1A80027D1B7F03123941E415
:100C20009064CEF0A3122411000000009064CA1258
:060C300024110000000089
:010C3600229B
:10002D0078D2E254FBF2E24404F2907187E4F0D20C
:02003D0091220E
:1038A30078D2E254EFF2E24410F2907188E4F078B7
:0D38B300D0E24404F208E24404F2D2922272
:1038C00078C2E254FBF2E24404F290717FE4F078B3
:0D38D000C0E24402F208E24402F2C281228A
:1038DD0078E3E254EFF2E24410F2907194E4F07860
:0D38ED00E0E24440F208E24440F2C2A622AC
:102A08004164E1004264E200004164DE004164DFA9
:052A1800004164E00034
:1038FA0078F2E254FBF2E24404F278F0E24402F293
:08390A00907197E4F0D2B122A4
:1037AC00E5B154CF42B1789CE254F3F2E24414F206
:1037BC00E254FCF2E24401F208E2547FF2E24420CB
:1037CC00F278A07432F2087401F2789EE4F208F2F6
:0E37DC00789CE2541FF2E244A0F253A8BF22F0
:0E3A1500789CE2541FF2E244C0F243A8402223
:1039AE00789CE2541FF2E244A0F2789EE4F208F210
:0439BE0053A8BF2229
:03002100022AFEB2
:102AFE00C0E0C083C082C0D075D000C000C006C088
:012B0E0007BF
:102B0F00789DE220E703022BDFE24480F29064E13C
:102B1F00E064016003022BDF9064DFE0FFC3740FFA
:102B2F009FFF7E007401A807088005C333CE33CE04
:102B3F00D8F9FF9064E2E05EFEA3E05F4E60219063
:102B4F0064DEE014600E14600F1460102403702F05
:102B5F00D2B1802BD2B18027D2B18023C2B1801FD6
:102B6F009064DEE014600E14600F14601024037084
:102B7F000ED2B1800AC2B18006C2B18002C2B1903A
:102B8F0064DEE004F0E0C394044009A3E004F09095
:102B9F0064DEE4F09064DFE0C394104014A3E070AF
:102BAF001004F09064DFE014F09064DE7403F080A2
:102BBF001F9064DFE0C394104016A3E0B40111909E
:102BCF0064DFE4F09064DEF09064E0F0A3F0D2B143
:0F2BDF00D007D006D000D0D0D082D083D0E03243
:103392009064E2EEF0A3EFF0C2B1123A06E47F01CC
:1033A200FEFDFC9064E5E0F8A3E0F9A3E0FAA3E0F7
:1033B200FBC3122374500575D9AA80E112396EE459
:1033C2009064E4F09064E512241100000000123AC7
:1033D200159064E17401F09064E1E070FA1239AE84
:0733E2007F0A7E0002004299
:02394100A905D6
:10394300EFC43354E0FCE9541F4CFCECF4FFEFFDEF
:05395300AE04023392F6
:1039D60075AF3F8FAF75AEB975A402E5A530E1FBB3
:0139E60022BE
:103667009064A1EBF0A3EAF0A3E9F075AF3F8FAF49
:103677009064A4E0C394014028E5A530E0FB906482
:10368700A1E0FBA3E475F00112232DA9F0FA1222A1
:10369700ECF5A675AEB975A4019064A4E014F080AA
:0236A700CF2230
:10376D009064A1EBF0A3EAF0A3E9F09064A4E0600B
:10377D002DAE070FEE2400FDE4343F8D82F583E47A
:10378D0093FE9064A1E0FBA3E475F00112232DA933
:0F379D00F0FAEE1223059064A4E014F080CD2220
:10372D009064E97456F0A37478F0E4A3F0A3F0FF6D
:10373D001239D67B017A6479E99064A47402F0128F
:10374D0036677B017A6479EB9064A47402F01237CA
:0F375D006D9064EBE0B45607A3E0B47802C2921B
:01376C00223A
:0F2A1D004C6024000000000000000000000000DA
:100C370090648C122411000000009064901224111B
:100C47000000000090649412241100000000C2020A
:100C57009064981224110000000090649C122411E3
:100C670000000000123A069064E4E0640160087531
:100C7700D9AA1233E980F012396EE49064E4F09057
:100C870064E5122411000000007B017A607924904A
:100C970064A4740CF0E4FF12376D9063E6E0700310
:100CA7000212B1E4F07B019064A704F0A37464F02E
:100CB700A3748CF01BA3EBF0A3F0A3F00B7A63797A
:100CC700F47F14FEFDFC121EA590648CA3A3A3E081
:100CD700FFE4FEFDFC7B01FAF9F8C31223746018E8
:100CE70090648CA3A3A3E0FFE4FEFDFC7B03F8C3A1
:100CF70012237460030212B1906490122411000051
:100D07000000E47F02FEFDFC906490E0F8A3E0F9A8
:100D1700A3E0FAA3E0FBC31223744003020EE090A2
:100D27006490A3A3E0FEA3E090602675F00412246C
:100D370042EE25E025E02583F583E0FCA3E0FDA353
:100D4700E0FEA3E0FFC004C005C006C00790648CA6
:100D5700E0FCA3E0FDA3E0FEA3E0FF7808122385F3
:100D6700A804A905AA06AB07D007D006D005D0046A
:100D7700C31223746003020EBE906490A3A3A3E082
:100D87002424F582E43460F583E4F090648CE0FC7D
:100D9700A3E0FDA3E0FEA3E0FF7808122385A3A349
:100DA700A3E0FAA3E090602675F004122442EA2536
:100DB700E025E02583F58312240590648CA3A3A383
:100DC700E0FFE4FEFDFC7B01FAF9F8C3122374701F
:100DD70015906490A3A3A3E0242EF582E43460F574
:100DE700837401F0802990648CA3A3A3E0FFE4FE41
:100DF700FDFC7B03FAF9F8C3122374701290649018
:100E0700A3A3A3E0242EF582E43460F583E4F090F5
:100E1700649412241100000000E47F02FEFDFC90A0
:100E27006494E0F8A3E0F9A3E0FAA3E0FBC312237C
:100E370074400302129B906490E0FCA3E0FDA3E0E2
:100E4700FEA3E0FFA3E0F8A3A3A3E0C3122374600B
:100E570044906494A3A3E0FEA3E090602675F00499
:100E6700122442EE25E025E02583F583E0FCA3E08C
:100E7700FDA3E0FEA3E0FFE4FBFAF9F8C312237435
:100E87006013906494A3A3A3E02424F582E4346060
:100E9700F583E004F0906494E0FCA3E0FDA3E0FE9A
:100EA700A3E02401FFE43EFEE43DFDE43CFC906446
:100EB70094122405020E20906490E0FCA3E0FDA3A9
:100EC700E0FEA3E02401FFE43EFEE43DFDE43CFC3C
:100ED700906490122405020D099064901224110069
:100EE700000000E47F02FEFDFC906490E0F8A3E0C0
:100EF700F9A3E0FAA3E0FBC312237440030210B383
:100F0700906490A3A3A3E02424F582E43460F583DE
:100F1700E06003021091906490A3A3E0FEA3E09029
:100F2700602675F004122442EE25E025E02583F5BE
:100F370083E0FCA3E0FDA3E0FEA3E0FFE4FBFAF9F6
:100F4700F8C31223746003021091906490A3A3A3C3
:100F5700E02424F582E43460F583E4F090648CE0C7
:100F6700FCA3E0FDA3E0FEA3E0FF7808122385A31E
:100F7700A3A3E0FAA3E090602675F004122442EAE6
:100F870025E025E02583F58312240590648CA3A32F
:100F9700A3E0FFE4FEFDFC0BFAF8C31223747015FF
:100FA700906490A3A3A3E0242EF582E43460F58334
:100FB7007401F0802990648CA3A3A3E0FFE4FEFDF5
:100FC700FC7B03FAF9F8C31223747012906490A3A0
:100FD700A3A3E0242EF582E43460F583E4F0906463
:100FE7009412241100000000E47F02FEFDFC9064CF
:100FF70094E0F8A3E0F9A3E0FAA3E0FBC31223749B
:10100700400302108D906490E0FCA3E0FDA3E0FE96
:10101700A3E0FFA3E0F8A3A3A3E0C31223746044F3
:10102700906494A3A3E0FEA3E090602675F00412F9
:101037002442EE25E025E02583F583E0FCA3E0FDCF
:10104700A3E0FEA3E0FFE4FBFAF9F8C31223746000
:1010570013906494A3A3A3E02424F582E43460F5F9
:1010670083E004F0906494E0FCA3E0FDA3E0FEA31A
:10107700E02401FFE43EFEE43DFDE43CFC90649483
:10108700122405020FEFD2028022906490E0FCA3A5
:10109700E0FDA3E0FEA3E02401FFE43EFEE43DFD06
:1010A700E43CFC906490122405020EEA300203022D
:1010B700129B90649012241100000000E47F02FE4E
:1010C700FDFC906490E0F8A3E0F9A3E0FAA3E0FB4D
:1010D700C3122374507C906490A3A3A3E02424F547
:1010E70082E43460F583E0FFE4FCFDFE906498E061
:1010F700F8A3E0F9A3E0FAA3E0FBC312237450308E
:10110700906490A3A3A3E02424F582E43460F583DC
:10111700E0FFE4FCFDFE906498122405906490E0E3
:10112700FCA3E0FDA3E0FEA3E0FF90649C1224056E
:10113700906490E0FCA3E0FDA3E0FEA3E02401FFA0
:10114700E43EFEE43DFDE43CFC906490122405027D
:1011570010C390648CE0FCA3E0FDA3E0FEA3E0FFD6
:10116700780812238590649CA3A3E0FAA3E090601B
:101177002675F004122442EA25E025E02583F5834D
:1011870012240590649CA3A3A3E02424F582E434ED
:1011970060F583E4F090648CA3A3A3E0FFE4FEFD75
:1011A700FC7B01FAF9F8C3122374701590649CA3B1
:1011B700A3A3E0242EF582E43460F5837401F08064
:1011C7002990648CA3A3A3E0FFE4FEFDFC7B03FA54
:1011D700F9F8C3122374701290649CA3A3A3E024AC
:1011E7002EF582E43460F583E4F0906494122411C0
:1011F70000000000E47F02FEFDFC906494E0F8A389
:10120700E0F9A3E0FAA3E0FBC31223744003021240
:101217009B90649CE0FCA3E0FDA3E0FEA3E0FF90AD
:101227006494E0F8A3A3A3E0C3122374604490641A
:1012370094A3A3E0FEA3E090602675F00412244275
:10124700EE25E025E02583F583E0FCA3E0FDA3E0A0
:10125700FEA3E0FFE4FBFAF9F8C3122374601390CE
:101267006494A3A3A3E02424F582E43460F583E027
:1012770004F0906494E0FCA3E0FDA3E0FEA3E02467
:1012870001FFE43EFEE43DFDE43CFC90649412243F
:10129700050211FBE4FF1239D67B017A60792490AD
:0A12A70064A4740CF0E4FF12366733
:0112B100221A
:10353D00E490648CF0F090648CE0FBC39402503DF9
:10354D009063E9E0FCA3E0FDA3E0FEA3E0FF7808B3
:10355D00122385EB25E025E02426F582E43460F581
:10356D0083E0F8A3E0F9A3E0FAA3E0FBC312237410
:0F357D0070037F012290648CE004F080B97F001E
:01358C00221C
:1030DF009064ED12241100000000E47F02FEFDFC5D
:1030EF009064EDE0F8A3E0F9A3E0FAA3E0FBC312CC
:1030FF002374505D9064EDA3A3A3E02424F582E430
:10310F003460F583E0FF7E001233929064EDA3A349
:10311F00E0FEA3E090602675F004122442EE25E055
:10312F0025E02583F583A3A3E0FEA3E0FF123392EE
:10313F009064EDE0FCA3E0FDA3E0FEA3E02401FF1B
:10314F00E43EFEE43DFDE43CFC9064ED122405807A
:01315F0089E6
:01316000224C
:102A2C004263E700004463DE000000004463E20000
:102A3C000000004463ED000000004463E900000066
:102A4C00004263F10000605063F4000000000000DD
:102A5C00000000000000000000000000000000006A
:102A6C00000000000000000000000000000000005A
:102A7C00000000000000000000000000000000004A
:102A8C00000000000000000000000000000000003A
:102A9C00000000000000000000004163F3004163EF
:072AAC00E6004263DC0000BC
:1033340078D2E254BFF218E24408F2E5B854CF421E
:10334400B843A804D2AF78D7E24408F278D4E25460
:103354003FF2E5B154F342B17890E254F3F2E2441F
:1033640014F2E254FCF2E24401F208E2547FF2E285
:103374004420F278947498F208E4F27892F208F215
:0E3384007890E2541FF2E244A0F253A8DF2238
:03001E0002349514
:10349500C0E0C0F0C083C082C0D075D000C000C0FD
:1034A50004C005C006C0077891E230E723E24480F6
:1034B500F29063DEE0FCA3E0FDA3E0FEA3E02401BF
:1034C500FFE43EFEE43DFDE43CFC9063DE12240592
:1034D500D007D006D005D004D000D0D0D082D0837C
:0534E500D0F0D0E03240
:0E3A23007890E2541FF2E244C0F243A8202241
:1039C2007890E2541FF2E244A0F27892E4F208F214
:0439D20053A8DF22F5
:03001500021C5B6F
:101C5B00C0E0C0F0C083C082C0D075D000C000C04F
:0D1C6B0001C002C003C004C005C006C007D0
:101C780078D6E29064C9F053A8FBE020E303021E83
:101C8800809063DEE0FCA3E0FDA3E0FEA3E0FF306C
:101C9800931A9063ED1224059063DE12241100005C
:101CA80000009063E7E4F0A304F080109063E21270
:101CB80024059063DE122411000000009063E7E021
:101CC8007002A3E07003021E809063E7E4F0A3F0C3
:101CD8007F32FEFDFC9063EDE0F8A3E0F9A3E0FAA3
:101CE800A3E0FBD31223744003021E4FE47F01FEDE
:101CF800FDFC9063E2E0F8A3E0F9A3E0FAA3E0FBBF
:101D0800D31223745003021D96E47F06FEFDFC9057
:101D180063E2E0F8A3E0F9A3E0FAA3E0FBD312231F
:101D280074506BE47F05FEFDFC9063EDE0F8A3E0E2
:101D3800F9A3E0FAA3E0FBC31223744051E47F1433
:101D4800FEFDFC9063EDE0F8A3E0F9A3E0FAA3E060
:101D5800FBD312237450379063E9E0FCA3E0FDA3A2
:101D6800E0FEA3E054FEFFEC9063E91224059063C3
:101D7800DDE004F070069063DCE004F09063DCE0E2
:101D88007004A3E064187003021E60021E34E47F2E
:101D980005FEFDFC9063E2E0F8A3E0F9A3E0FAA3F6
:101DA800E0FBC31223745003021E4FE47F14FEFDB0
:101DB800FC9063E2E0F8A3E0F9A3E0FAA3E0FBD328
:101DC8001223744003021E4FE47F01FEFDFC906362
:101DD800EDE0F8A3E0F9A3E0FAA3E0FBC312237453
:101DE8004065E47F0AFEFDFC9063EDE0F8A3E0F9AE
:101DF800A3E0FAA3E0FB122374504C9063E9E0FCE3
:101E0800A3E0FDA3E0FEA3E04401FFEC9063E91228
:101E180024059063DDE004F070069063DCE004F0D4
:101E28009063DCE07004A3E06418602C9063E9E040
:101E3800FCA3E0FDA3E0FEA3E0FF78011223989045
:101E480063E912240580119063E91224110000004F
:101E5800009063DCE4F0A3F0C39063DDE094189095
:101E680063DCE064809480400F9063F1E4F0A304A5
:101E7800F09063DCE4F0A3F09064C9E078D6F24314
:021E8800A804AC
:101E8A00D007D006D005D004D003D002D001D000AC
:0B1E9A00D0D0D082D083D0F0D0E03256
:0F1EA5009064A0EBF0A3EAF0A3E9F0A3122405E8
:101EB4009064AD1224110000000074FF9064B1F02E
:101EC400A3F0A3122411000000009064B71224119F
:101ED400000000009064BB12241100000000E49094
:101EE40064BFF0A3F0A3F0A3F09064A0E0FBA3E030
:101EF400FAA3E04A4B70030220CAE49064BFF0A343
:101F0400F09064BFE0FEA3E0FFEE3395E0FDFC90AB
:101F140064A3E0F8A3E0F9A3E0FAA3E0FBD312235F
:101F24007450030220819064BFE0FEA3E07802C3F2
:101F340033CE33CED8F9FF9064A0E0FBA3E0FAA33C
:101F4400E0F98F828E831223AB9064B7122405903C
:101F540064BB12241100000000E49064C1F0A3F0FB
:101F64009064C1E0FEA3E0FFEE3395E0FDFC9064D5
:101F7400A3E0F8A3E0F9A3E0FAA3E0FBD3122374EF
:101F840040679064C1E0FEA3E07802C333CE33CE51
:101F9400D8F9FF9064A0E0FBA3E0FAA3E0F98F82F4
:101FA4008E831223AB9064B7E0F8A3E0F9A3E0FAC0
:101FB400A3E0FBC3122374701F9064BBE0FCA3E096
:101FC400FDA3E0FEA3E02401FFE43EFEE43DFDE4C6
:101FD4003CFC9064BB1224059064C2E004F0708061
:101FE4009064C1E004F0021F649064ADE0FCA3E0DF
:101FF400FDA3E0FEA3E0FF9064B7E0F8A3E0F9A33B
:10200400E0FAA3E0FBC3122374605E9064B3E0FCC7
:10201400A3E0FDA3E0FEA3E0FF9064BBE0F8A3E02F
:10202400F9A3E0FAA3E0FBD3122374403C9064B715
:10203400E0FCA3E0FDA3E0FEA3E0FF9064AD122466
:10204400059064BBE0FCA3E0FDA3E0FEA3E0FF90E9
:1020540064B31224059064C2E024FFFE9064C1E0DE
:1020640034FF9064B1F0A3CEF09064C0E004F0605B
:1020740003021F059064BFE004F0021F059064A7EB
:10208400E0FBA3E0FAA3E04A4B60189064ADE0FCE7
:10209400A3E0FDA3E0FEA3E0FF9064A7A3A3E0F9FF
:1020A4001223DB9064AAE0FBA3E0FAA3E04A4B60AE
:1020B400159064B1E0FEA3E0FFE4FCFD9064AAA3E4
:0620C400A3E0F91223DB8A
:0120CA0022F3
:1033E9009064A0122411000000009063F1E07002C3
:1033F900A3E06033E49063F1F0A3F053A8FB90637A
:10340900E9E0FCA3E0FDA3E0FEA3E0FF9063F3E0A5
:10341900FB04F0EB25E025E024F4F582E43463F5C0
:103429008312240543A8049063F3E0B41407E4F07D
:053439009063E604F0C1
:01343E00226B
:10385500E49064F9F0A3F0A3F09063F1E07002A3A3
:10386500E0601AE49063F1F0A3F053A8FD9063E9DA
:0D387500A3A3E0FEA3E0FF12339243A802DC
:013882002223
:072AB3004464F10000000083
:1036A900E5B254F342B2907108E054F3F0E04414E7
:1036B900F0E054FCF0E04401F0A3E0547FF0E04472
:1036C90020F053A9FD90710C7437F0A3743BF0906E
:1036D900710AE4F0A3F0907108E0541FF0E044A0EF
:0236E900F022CD
:0F39F700907108E0541FF0E044C0F043A9022291
:10395800907108E0541FF0E044A0F090710AE4F080
:06396800A3F053A9FD22AB
:0300270002343F61
:10343F00C0E0C0F0C083C082C0D075D000C000C053
:10344F0004C005C006C007907109E030E723E044CF
:10345F0080F09064F1E0FCA3E0FDA3E0FEA3E02484
:10346F0001FFE43EFEE43DFDE43CFC9064F11224D8
:10347F0005D007D006D005D004D000D0D0D082D050
:06348F0083D0F0D0E03212
:102ABA004164D8004464D9000000004164DD00414B
:032ACA0064D700CE
:1012B2009063F1E07002A3E0606AE4FFFEFDFC903F
:1012C20064D9E0F8A3E0F9A3E0FAA3E0FBC3122398
:1012D2007470519064D8E0704B9063F1F0A3F012F7
:1012E200353DEF640160030216C99064D804F090A2
:1012F20063E9E0FCA3E0FDA3E0FEA3E0FF780812AF
:101302002385C006C0079063E9E0FCA3A3A3E054D1
:101312003FFFE4AD07D007D0061224CA9064DDEF88
:10132200F00239F7E47F4BFEFDFC9064D9E0F8A3AC
:10133200E0F9A3E0FAA3E0FBC31223744003021511
:10134200239063F1E07002A3E070030213EAE47FEA
:101352000CFEFDFC9064F1E0F8A3E0F9A3E0FAA32F
:10136200E0FBD312237440030213EAE49063F1F02A
:10137200A3F012353DEF640160030216C99063E9E0
:10138200E0FCA3E0FDA3E0FEA3E0FF7808122385C2
:10139200C006C0079063E9E0FCA3A3A3E0543FFFAB
:1013A200E4AD07D007D0061224CA9064DDEFF090B6
:1013B20064D9E0FCA3E0FDA3E0FEA3E0FF9064F1AA
:1013C200E0F8A3E0F9A3E0FAA3E0FBEF2BFFEE3A8B
:1013D200FEED39FDEC38FC9064D91224059064F1DD
:1013E2001224110000000022E47F0CFEFDFC906438
:1013F200F1E0F8A3E0F9A3E0FAA3E0FBD31223742F
:0E14020050030216C99064D8E070030216C9A8
:10141000E4F0A3122411000000001239589064F186
:10142000122411000000009064F512241100000045
:10143000001200189064DDE09064D7F09063F1E052
:101440007002A3E06062E47F32FEFDFC9064F5E090
:10145000F8A3E0F9A3E0FAA3E0FBD3122374404819
:10146000E47F6EFEFDFC9064F5E0F8A3E0F9A3E0F4
:10147000FAA3E0FB122374502F9064DDE0FD90642A
:10148000D7E0B505167F041239417FDC7E001200DB
:1014900042E49063F1F0A3F002151A9064D7E0FDE6
:1014A000E4FF123941E480729063F1E07002A3E03E
:1014B0006027E47F6EFEFDFC9064F5E0F8A3E0F9A0
:1014C000A3E0FAA3E0FBD3122374400D9064D7E0AD
:1014D000FDE4FF123941E480419063F1E07002A322
:1014E000E0600302143C7F6EFEFDFC9064F5E0F8C2
:1014F000A3E0F9A3E0FAA3E0FBD3122374500302A4
:10150000143C123A3C9064F5122411000000009043
:1015100064D7E0FDE4FF123941E49064DDF09064AB
:03152000D7F022DF
:101523009064D8E0640170757F4BFEFDFCA3E0F886
:10153300A3E0F9A3E0FAA3E0FBC3122374405EE443
:101543007F5AFEFDFC9064D9E0F8A3E0F9A3E0FA2A
:10155300A3E0FB12237450459064D87402F09063A7
:10156300E9E0FCA3E0FDA3E0FEA3E0FF780812237B
:1015730085C006C0079063E9E0FCA3A3A3E0543F42
:10158300FFE4AD07D007D0061224CA9064DDEFF064
:10159300E0FD7F011239419064D87403F09064D860
:1015A300E0640360030216809063F1E07002A3E03D
:1015B3007003021680E47F0CFEFDFC9064F1E0F8FA
:1015C300A3E0F9A3E0FAA3E0FBD3122374400302E0
:1015D3001680E49063F1F0A3F012353DEF640160EF
:1015E300030216C99063E9E0FCA3E0FDA3E0FEA3B8
:1015F300E0FF7808122385C006C0079063E9E0FC8A
:10160300A3A3A3E0543FFFE4AD07D007D006122401
:10161300CA9064DDEFF09064D9E0FCA3E0FDA3E0A1
:10162300FEA3E0FF9064F1E0F8A3E0F9A3E0FAA3DE
:10163300E0FBEF2BFFEE3AFEED39FDEC38FC906456
:10164300D91224059064F112241100000000E47FF4
:101653005AFEFDFC9064D9E0F8A3E0F9A3E0FAA3F5
:10166300E0FBC3122374405E9064DDE0FD7F021251
:1016730039419064D91224110000004B22E47F0CFD
:10168300FEFDFC9064F1E0F8A3E0F9A3E0FAA3E027
:10169300FBD3122374402F9064D8E060299064DD5B
:1016A300E0FD7F03123941E49064D8F0A3122411C2
:1016B300000000001239589064F112241100000058
:0616C30000E49064DDF07C
:0116C90022FE
:0B2ACD004164E4004464E500000000E8
:1036EB00E5B254FC42B2907100E054F3F0E04414A4
:1036FB00F0E054FCF0E04401F0A3E0547FF0E04430
:10370B0020F090710474E0F0A3741DF0907102E44A
:10371B00F0A3F0907100E0541FF0E044A0F053A927
:02372B00FE227C
:0F3A0600907100E0541FF0E044C0F043A901228A
:10396E00907100E0541FF0E044A0F0907102E4F07A
:06397E00A3F053A9FE2294
:03002400022FCEDA
:102FCE00C0E0C0F0C083C082C0D075D000C000C0C9
:102FDE0001C002C003C004C005C006C00790710145
:102FEE00E030E74EE04480F09064E5E0FCA3E0FDC5
:102FFE00A3E0FEA3E02401FFE43EFEE43DFDE43C3D
:10300E00FC9064E5122405E47FE87E03FDFC9064E9
:10301E00E5E0F8A3E0F9A3E0FAA3E0FBC312237402
:10302E0070109064E5122411000000009064E474A6
:10303E0001F0D007D006D005D004D003D002D001C5
:0D304E00D000D0D0D082D083D0F0D0E032BE
:0B24CA0090648CEEF0A3EFF0A3EDF0A7
:1024D500E4A3F0A37455F0E4A3F0F0906491E0FB5D
:1024E500C39402504690648CE0FEA3E0FFE4FCFD3B
:1024F500EB25E025E02426F582E43460F583E0F859
:10250500A3E0F9A3E0FAA3E0FBC3122374701490CF
:102515006491E0242EF582E43460F583E0906490C4
:10252500F08008906491E004F080B0906490E0FF42
:10253500707590648EE014B40A00400302267D9005
:10254500255275F003A4C58325F0C5837302257054
:1025550002257302257602257902257C02257F0254
:10256500258802259102259A0225A302260F022617
:10257500170225FF02262702262F90648F7406F086
:1025850002267D90648F7407F002267D90648F7417
:1025950008F002267D90648F7409F002267D906410
:1025A5008F740AF002267DEF6401600302267D9098
:1025B500648EE014B41000400302267D9025CF758B
:1025C500F003A4C58325F0C583730225FF02260702
:1025D50002260F02261702261F02262702262F0291
:1025E500263702263F02264702264F022657022695
:1025F5005F02266702266F02267790648F7401F0CA
:10260500807690648F740BF0806E90648F7402F006
:10261500806690648F7403F0805E90648F740CF014
:10262500805690648F7404F0804E90648F7405F02A
:10263500804690648F740DF0803E90648F740EF028
:10264500803690648F740FF0802E90648F7410F034
:10265500802690648F7411F0801E90648F7412F040
:10266500801690648F7413F0800E90648F7414F04C
:0D267500800690648F7415F090648FE0FF74
:012682002235
:072AD8004464F5000000005A
:1039120043A90475D11075E6F075E70575DABC7533
:08392200DF20E4F5DED2AF2244
:0400180075DE01226E
:073A3C00E4F5DE75D1102254
:03002A000234EAB3
:1034EA00C0E0C0F0C083C082C0D075D000C000C0A8
:1034FA0004C005C006C007E5EE30E52243E220908D
:10350A0064F5E0FCA3E0FDA3E0FEA3E02401FFE4F0
:10351A003EFEE43DFDE43CFC9064F5122405D00730
:10352A00D006D005D004D000D0D0D082D083D0F03D
:03353A00D0E032AC
:102ADF0041604801426049000041604B0041604C39
:0E2AEF000041604D0041604E7F42604FFFFF8E
:1037EA00E4F561AE3EAD3DAC3C853F178E168D15B6
:1037FA008C14787EE254FCF2E24514F218E515F2D4
:10380A0018E516F218E517F2787FE254FBF2E25453
:0D381A00FB4404F2E24401F27F0102305B46
:101A0900906496EFF0E0FF2450F582E43464F583A6
:101A1900E004F0745C2FF582E43464F583E4F07437
:101A2900502FF582E43464F583E0C39563500302D3
:101A39001C5A906496E0FB2450F582E43464F583E3
:101A4900E4F09038389364016003021C0B7F01FEB7
:101A5900FDFC74622BF582E43464F583E0F9F81235
:101A69002398E51F4FF51FE51E4EF51EE51D4DF5A3
:101A79001DE51C4CF51CAF1FAE1EAD1DFC780112F7
:101A89002385EF5455FBEE5455FAED5455F9EC54B2
:101A990055F8C3E51F9BF53BE51E9AF53AE51D99F7
:101AA900F539E51C98F538AF3BAE3AAD39FC78020B
:101AB900122385EF5433FBEE5433FAED5433F9EC2A
:101AC9005433F8E53B5433FFE53A5433FEE53954D2
:101AD90033FDE5385433FCEB2FF53BEA3EF53AE9A3
:101AE9003DF539E83CF538AF3BAE3AAD39FC780401
:101AF900122385EF253BFFEE353AFEED3539FDEC36
:101B09003538FCEF540FF53BEE540FF53AED540F11
:101B1900F539EC540FF538AF3BAE3AAD39FC7808DE
:101B2900122385EF253BFFEE353AED3539FDEC35CE
:101B390038EFF53BE4F53AEDF539E4F538AE3AAC72
:101B4900387810122385EF253BFFEE353AFEEFF585
:101B59003BEEF53AE4F539F538906496E025E02452
:101B690068F582E43464F583E0FEA3E0D39553EE8F
:101B790095524024906496E0FF25E02468F582E4BC
:101B89003464F583E0F552A3E0F55374622FF582CE
:101B9900E43464F583E0F564903838E493FFE4FCB9
:101BA900FDFEAB3BAA3AA939A838D3122374405297
:101BB900AF650565D3EF9403748094805003021CCC
:101BC9005AE4F565F51FF51EF51DF51C7F01FEFDAF
:101BD900FCA964A8011223988F1B8E1A8D198C18E1
:101BE900E47F01FEFDFCA8011223988F338E328D0C
:101BF900318C30E4F552F553756420123161433765
:101C09000222E4F5657F01FEFDFC906496E0FB2469
:101C190062F582E43464F583E0F9F8122398E51B50
:101C29004FF51BE51A4EF51AE5194DF519E5184C4E
:101C3900F518E47F01FEFDFCA803122398E5334F54
:101C4900F533E5324EF532E5314DF531E5304CF5F8
:021C5900302237
:1016CA00E4F56690383CE493FFE566C39F40030265
:1016DA001A08E56625E02400F582E4346085828AEA
:1016EA007F548F8B7E0E8E8C758903758889E5668B
:1016FA0025E02400F582E4346085828A8F8B758C1C
:10170A0012758904758889E56625E02418F582E44E
:10171A003460F583E0FCA3E0C3950FEC950E502EE0
:10172A00E56625E0243CF582E43460F583E0FCA319
:10173A00E0C39513EC95125015AF600560EF940263
:10174A0074809480400BE4F5605337FD8003E4F520
:10175A0060E53730E125E56625E02468F582E43462
:10176A0064F583E4F0A3F0E56625E02474F582E4E9
:10177A003464F583E4F0A3F0021818E56625E02442
:10178A0018F582E4346085828A8E8B758C0A758995
:10179A00267588892088FDE5F130E00875F107E4AF
:1017AA00F50AF50BAE0AE50B7802C333CE33CED871
:1017BA00F9FFE56625E02468F582E43464F583EEF2
:1017CA00F0A3EFF0E56625E0243CF582E434608579
:1017DA00828A758B12758C0A758927758889208883
:1017EA00FDE5F130E00875F107E4F50AF50BAE0AFC
:1017FA00E50B7802C333CE33CED8F9FFE56625E090
:10180A002474F582E43464F583EEF0A3EFF0E56620
:10181A0025E02480F582E43464F583E0FEA3E078D1
:10182A0002CEC313CE13D8F9F5518E50E56625E0E2
:10183A002468F582E43464F583E0FEA3E0FF90387F
:10184A0034E493FC740193FDC3EF9DEE9C4017E5CD
:10185A006625E02474F582E43464F583E0FEA3E0AF
:10186A00C39DEE9C50028068E56625E02468F582F7
:10187A00E43464F583E0FEA3E0C39551EE9550404D
:10188A001CE56625E02474F582E43464F583E0FE01
:10189A00A3E0C39551EE95504003021924745625CE
:1018AA0066F582E43464F583E004F074562566F53F
:1018BA0082E43464F583E0FF903839E493FEEFD391
:1018CA009E406474562566F582E43464F583E4F038
:1018DA00E56625E0240CF582E43460F583E0FEA396
:1018EA00E0FFE56625E02418F582E43460F583EE2E
:1018FA00F0A3EFF0E56625E02430F582E43460F5E4
:10190A0083E0FEA3E0FFE56625E0243CF582E434AB
:10191A0060F583EEF0A3EFF0800D74562566F5822C
:10192A00E43464F583E4F0E56625E0240CF582E40A
:10193A00346085828AE56625E02400F582E4346015
:10194A0085828B758C0A7589207588CB2088FDE580
:10195A00F130E00875F107E4F50AF50BE56625E0D4
:10196A00240CF582E4346085828A758B547F0E8F4D
:10197A008C7589237588897E0A8E8A8F8BE5662500
:10198A00E0240CF582E4346085828CE4F58975885C
:10199A0029E56625E02430F582E4346085828AE50B
:1019AA006625E02400F582E4346085828B8E8C758E
:1019BA0089207588CB2088FDE5F130E00875F107AC
:1019CA00E4F50AF50BE56625E02430F582E4346097
:1019DA0085828A758B547F0E8F8C758924758889C8
:1019EA00758A0A8F8BE56625E02430F582E4346037
:0F19FA0085828CE4F58975882905660216CD2251
:10268300E4F56690383CE493FFE566C39F4003029C
:10269300283BE56625E02480F582E43464F583E095
:1026A300FEA3E07802CEC313CE13D8F9F5518E50B2
:1026B300E56625E02468F582E43464F583E0FEA34F
:1026C300E0D39551EE9550402EE56625E02474F550
:1026D30082E43464F583E0FEA3E0D39551EE955094
:1026E3004015745C2566F582E43464F583E4F0AF49
:1026F30066121A0902283690383BE493FFC3E5516A
:102703009FFFE5509400FED3EF9400EE9400400247
:1027130080047E007F00E56625E02468F582E434CA
:1027230064F583E0FCA3E0C39FEC9E4003022829E9
:1027330090383BE493FFC3E5519FFFE5509400FEBF
:10274300D3EF9400EE9400400280047E007F00E506
:102753006625E02474F582E43464F583E0FCA3E0A9
:10276300C39FEC9E400302282974502566F582E43A
:102773003464F583E4F0745C2566F582E43464F52F
:1027830083E004F0745C2566F582E43464F583E049
:10279300C395635003022836745C2566F582E434DE
:1027A30064F583E4F07F01FEFDFC74622566F58227
:1027B300E43464F583E0F9F8122398122343E51F08
:1027C3005FF51FE51E5EF51EE51D5DF51DE51C5C51
:1027D300F51CE47F01FEFDFCA966A80112239812F3
:1027E3002343E5335FF533E5325EF532E5315DF5DD
:1027F30031E5305CF530E47F01FEFDFC7462256653
:10280300F582E43464F583E0F9F812239812234344
:10281300E51B5FF51BE51A5EF51AE5195DF519E58C
:10282300185CF518800D745C2566F582E43464F554
:0928330083E4F00566022686220A
:10316100E4F56690383CE493FFE566C39F506EE555
:103171006625E02468F582E43464F583E4F0A3F085
:10318100E56625E02474F582E43464F583E4F0A374
:10319100F0E56625E0240CF582E43460F583E0FE79
:1031A100A3E0FFE56625E02418F582E43460F583A9
:1031B100EEF0A3EFF0E56625E02430F582E434601B
:1031C100F583E0FEA3E0FFE56625E0243CF582E41B
:0E31D1003460F583EEF0A3EFF00566808622F1
:102F3B00E4F56690383CE493FFE566C39F506790D9
:102F4B006048E0FF7E00C39410748094805053EF70
:102F5B009408748094804025E56625E02400F58272
:102F6B00E43460F583E0FEA3E0FFE56625E0240C86
:102F7B00F582E43460F583EE8FF0122317E56625B6
:102F8B00E02400F582E43460F583E0FEA3E0FFE586
:102F9B006625E02430F582E43460F583EE8FF01281
:102FAB0023170566808D906048E0C394107480945D
:102FBB008040054337048006906048E004F07F01B1
:032FCB0002305B76
:1031DF00E4FFFEFDFCAB1BAA1AA919A818C3122302
:1031EF0074606390604AE004F07006906049E004F8
:1031FF00F0903830E493FE740193FF4E602ED3901D
:10320F00604AE09F906049E09E4021E4F0A3F0F512
:10321F001FF51EF51DF51CF533F532F531F530F5BB
:10322F001BF51AF519F518C201023161903832E415
:10323F0093FE740193FFD390604AE09F906049E042
:0D324F009E400AD20122E4906049F0A3F0F5
:01325C00224F
:05283C009064C4EFF000
:10284100A3E0FCA3E0FDA3E0FEA3E0F5288E278D25
:10285100268C257884E2F50A08E2F50B758A08755D
:102861008B25758C2175881D2088FDE4FFFEFDFCFC
:10287100AB24AA23A922A821D312235E4006AC21AE
:10288100A8048013AF24AE23AD22AC21122350AB98
:1028910007AA06A905A80490604FE0FEA3E0FFE4A3
:1028A100FCFDC312235E5041E4FFFEFDFCAB24AAF4
:1028B10023A922A82112235E4006AF24AE23800B58
:1028C100AF24AE23AD22AC2112235090604FEEF025
:1028D100A3EFF09064C4E025E02444F582E434647D
:1028E100F583E0A3E090604EF090382DE493FE7400
:1028F1000193FFD3906050E09F90604FE09E501B8A
:102901009064C4E025E02444F582E43464F583E076
:10291100A3E090604EF090604B8079E4FFFEFDFCF7
:10292100AB24AA23A922A821D312235E40349064A8
:10293100C4E0FF25E02444F582E43464F583E0FC3F
:10294100A3E0D39400EC9400404DEF25E02444F53E
:1029510082E43464F58374FFF5F012231790604C20
:1029610080329064C4E0FF25E02444F582E43464BD
:10297100F583E0FCA3E0C3947FEC94005019EF25AC
:10298100E02444F582E43464F583E475F001122314
:102991001790604D7401F090604CE064017011A3D8
:1029A100E06401700B90604CF0A3F090604B04F078
:1029B10090604BE06401703590604EE0FF9064C41C
:1029C100E025E02444F582E43464F583E4F0A3EFE8
:1029D100F074FF90604FF0A3F090604E747FF0E4CC
:0F29E10090604CF0A3F090604BF07F01227F00DC
:0129F00022C4
:1032D200E49064C3F09038271223F5780112239802
:1032E2009064C5122405AF6112283CEF602205618B
:1032F200E53730E4095337EF9064C37401F0903836
:103302003CE493FFE561C39F4006E4F56143371057
:10331200C390382B7401939562E493940040089013
:1033220064C3E064017005D2000237EAE4FF1230A0
:013332005B3F
:013333002277
:10305B00EF70607F01FEFDFC74622561F582E43444
:10306B0064F583E0F9F81223988F178E168D158C63
:10307B0014787EE254FCF2E24514F218E515F218CE
:10308B00E516F218E517F2E56125E02444F582E434
:10309B003464F583E0A3E0547FFF7878E254804FEB
:1030AB00F2787FE254FBF2E254FB4404F2E2440177
:1030BB00F2801CE56125E02444F582E43464F58359
:1030CB00E0A3E0547FFF7878E254804FF2787FE200
:0430DB004402F22297
:102D7200E490648CF0A3F090648CE0FEA3E0FFC3C7
:102D82009488EE94035031EF24CAFFEE34168F82FA
:102D9200F583E493FF90648DE02451FD90648CE010
:102DA20034608D82F583EFF090648DE004F070C79B
:082DB20090648CE004F080BF86
:102DBA009063D97401F0A37460F0A37451F0E4F540
:102DCA0061F537F536F535F534C200C201F51FF560
:102DDA001EF51DF51CF533F532F531F530F51BF509
:102DEA001AF519F51890383693FF90383AE493FE9D
:102DFA00A807088002C333D8FCF563756420E4FF92
:032E0A0002305B38
:10325D007884E2F50A08E2F50BAE0A7803CEC313C3
:10326D00CE13D8F97802C333CE33CED8F9FFE5614A
:10327D0025E02400F582E43460F583EEF0A3EFF051
:10328D0020000F90382FE4937005D2000237EA0228
:10329D0032D2056190383CE493FFE561C39F401F36
:1032AD00787FE254FBF2E254FB4404F2E24401F273
:1032BD00E4F561E53720E203022F3B433701227F1E
:0532CD000112305B223C
:05000F0005620231DF73
:10388300E53730E01A9063D9A3E0FAA3E0F91224F4
:1038930088122683E4F5617F0112305B5337FE22E1
:102E2700023984E493A3F8E493A34003F68001F204
:102E370008DFF48029E493A3F85407240CC8C333AC
:102E4700C4540F4420C8834004F456800146F6DF7B
:102E5700E4800B01020408102040809029F1E47EF1
:102E6700019360BCA3FF543F30E509541FFEE49370
:102E7700A360010ECF54C025E060A840B8E493A337
:102E8700FAE493A3F8E493A3C8C582C8CAC583CA62
:102E9700F0A3C8C582C8CAC583CADFE9DEE780BE1A
:012AFD0000D8
:1022EC00BB010689828A83E0225002E722BBFE02F0
:0922FC00E32289828A83E4932223
:10230500BB010689828A83F0225002F722BBFE01B7
:02231500F322B1
:10231700C5F0F8A3E028F0C5F0F8E5821582700251
:062327001583E038F022EE
:10232D00A3F8E0C5F025F0F0E58215827002158363
:06233D00E0C838F0E822C0
:0D234300CFF4CFCEF4CECDF4CDCCF4CC222F
:0E235000C3E49FFFE49EFEE49DFDE49CFC229E
:10235E00EB9FF5F0EA9E42F0E99D42F0EC6480C8F6
:06236E0064809845F02296
:10237400EB9FF5F0EA9E42F0E99D42F0E89C45F0BF
:012384002236
:10238500E8600FECC313FCED13FDEE13FEEF13FF36
:03239500D8F1225A
:10239800E8600FEFC333FFEE33FEED33FDEC33FCA3
:0323A800D8F12247
:1023AB00BB010DE58229F582E5833AF58302249A78
:1023BB005007E92582F802248EBBFE07E92582F837
:1023CB000224A6E58229F582E5833AF5830223F5FB
:1023DB00BB010789828A830224055005E9F8022490
:0A23EB00B2BBFE05E9F80224BE2291
:1023F500E493FC740193FD740293FE740393FF222E
:0C240500ECF0A3EDF0A3EEF0A3EFF0224A
:10241100A8828583F0D083D0821224281224281226
:102421002428122428E473E493A3C583C5F0C5834B
:10243100C8C582C8F0A3C583C5F0C583C8C582C815
:012441002278
:0C244200A42582F582E5F03583F58322A5
:10244E00D083D082E4937012740193700DA3A39382
:10245E00F8740193F5828883E4737402936C70129E
:10246E007403936D700C7404936E70067405936F01
:0A247E0060DDA3A3A3A3A3A380CAFB
:062488008A838982E473DF
:0C248E00E6FC08E6FD08E6FE08E6FF227A
:0C249A00E0FCA3E0FDA3E0FEA3E0FF22B5
:0C24A600E2FC08E2FD08E2FE08E2FF2272
:0C24B200ECF608EDF608EEF608EFF62256
:0C24BE00ECF208EDF208EEF208EFF2225A
:00000001FF
